{
  "contractName": "BasicCollateralJoin",
  "abi": [
    {
      "inputs": [
        {
          "internalType": "address",
          "name": "safeEngine_",
          "type": "address"
        },
        {
          "internalType": "bytes32",
          "name": "collateralType_",
          "type": "bytes32"
        },
        {
          "internalType": "address",
          "name": "collateral_",
          "type": "address"
        }
      ],
      "stateMutability": "nonpayable",
      "type": "constructor"
    },
    {
      "anonymous": false,
      "inputs": [
        {
          "indexed": false,
          "internalType": "address",
          "name": "account",
          "type": "address"
        }
      ],
      "name": "AddAuthorization",
      "type": "event"
    },
    {
      "anonymous": false,
      "inputs": [],
      "name": "DisableContract",
      "type": "event"
    },
    {
      "anonymous": false,
      "inputs": [
        {
          "indexed": false,
          "internalType": "address",
          "name": "sender",
          "type": "address"
        },
        {
          "indexed": false,
          "internalType": "address",
          "name": "account",
          "type": "address"
        },
        {
          "indexed": false,
          "internalType": "uint256",
          "name": "wad",
          "type": "uint256"
        }
      ],
      "name": "Exit",
      "type": "event"
    },
    {
      "anonymous": false,
      "inputs": [
        {
          "indexed": false,
          "internalType": "address",
          "name": "sender",
          "type": "address"
        },
        {
          "indexed": false,
          "internalType": "address",
          "name": "account",
          "type": "address"
        },
        {
          "indexed": false,
          "internalType": "uint256",
          "name": "wad",
          "type": "uint256"
        }
      ],
      "name": "Join",
      "type": "event"
    },
    {
      "anonymous": false,
      "inputs": [
        {
          "indexed": false,
          "internalType": "address",
          "name": "account",
          "type": "address"
        }
      ],
      "name": "RemoveAuthorization",
      "type": "event"
    },
    {
      "inputs": [
        {
          "internalType": "address",
          "name": "",
          "type": "address"
        }
      ],
      "name": "authorizedAccounts",
      "outputs": [
        {
          "internalType": "uint256",
          "name": "",
          "type": "uint256"
        }
      ],
      "stateMutability": "view",
      "type": "function"
    },
    {
      "inputs": [],
      "name": "collateral",
      "outputs": [
        {
          "internalType": "contract CollateralLike",
          "name": "",
          "type": "address"
        }
      ],
      "stateMutability": "view",
      "type": "function"
    },
    {
      "inputs": [],
      "name": "collateralType",
      "outputs": [
        {
          "internalType": "bytes32",
          "name": "",
          "type": "bytes32"
        }
      ],
      "stateMutability": "view",
      "type": "function"
    },
    {
      "inputs": [],
      "name": "contractEnabled",
      "outputs": [
        {
          "internalType": "uint256",
          "name": "",
          "type": "uint256"
        }
      ],
      "stateMutability": "view",
      "type": "function"
    },
    {
      "inputs": [],
      "name": "decimals",
      "outputs": [
        {
          "internalType": "uint256",
          "name": "",
          "type": "uint256"
        }
      ],
      "stateMutability": "view",
      "type": "function"
    },
    {
      "inputs": [],
      "name": "safeEngine",
      "outputs": [
        {
          "internalType": "contract SAFEEngineLike",
          "name": "",
          "type": "address"
        }
      ],
      "stateMutability": "view",
      "type": "function"
    },
    {
      "inputs": [
        {
          "internalType": "address",
          "name": "account",
          "type": "address"
        }
      ],
      "name": "addAuthorization",
      "outputs": [],
      "stateMutability": "nonpayable",
      "type": "function"
    },
    {
      "inputs": [
        {
          "internalType": "address",
          "name": "account",
          "type": "address"
        }
      ],
      "name": "removeAuthorization",
      "outputs": [],
      "stateMutability": "nonpayable",
      "type": "function"
    },
    {
      "inputs": [],
      "name": "disableContract",
      "outputs": [],
      "stateMutability": "nonpayable",
      "type": "function"
    },
    {
      "inputs": [
        {
          "internalType": "address",
          "name": "account",
          "type": "address"
        },
        {
          "internalType": "uint256",
          "name": "wad",
          "type": "uint256"
        }
      ],
      "name": "join",
      "outputs": [],
      "stateMutability": "nonpayable",
      "type": "function"
    },
    {
      "inputs": [
        {
          "internalType": "address",
          "name": "account",
          "type": "address"
        },
        {
          "internalType": "uint256",
          "name": "wad",
          "type": "uint256"
        }
      ],
      "name": "exit",
      "outputs": [],
      "stateMutability": "nonpayable",
      "type": "function"
    }
  ],
  "bytecode": "0x608060405234801561001057600080fd5b506040516111483803806111488339818101604052606081101561003357600080fd5b8101908080519060200190929190805190602001909291908051906020019092919050505060016000803373ffffffffffffffffffffffffffffffffffffffff1673ffffffffffffffffffffffffffffffffffffffff16815260200190815260200160002081905550600160058190555082600160006101000a81548173ffffffffffffffffffffffffffffffffffffffff021916908373ffffffffffffffffffffffffffffffffffffffff1602179055508160028190555080600360006101000a81548173ffffffffffffffffffffffffffffffffffffffff021916908373ffffffffffffffffffffffffffffffffffffffff160217905550600360009054906101000a900473ffffffffffffffffffffffffffffffffffffffff1673ffffffffffffffffffffffffffffffffffffffff1663313ce5676040518163ffffffff1660e01b815260040160206040518083038186803b15801561019557600080fd5b505afa1580156101a9573d6000803e3d6000fd5b505050506040513d60208110156101bf57600080fd5b8101908080519060200190929190505050600481905550601260045414610231576040517f08c379a00000000000000000000000000000000000000000000000000000000081526004018080602001828103825260238152602001806111256023913960400191505060405180910390fd5b7f599a298163e1678bb1c676052a8930bf0b8a1261ed6e01b8a2391e55f700010233604051808273ffffffffffffffffffffffffffffffffffffffff1673ffffffffffffffffffffffffffffffffffffffff16815260200191505060405180910390a1505050610e7f806102a66000396000f3fe608060405234801561001057600080fd5b50600436106100a95760003560e01c806367aea3131161007157806367aea313146101d4578063894ba8331461021e57806394f3f81d14610228578063d8dfeb451461026c578063e824600f146102b6578063ef693bed146102d4576100a9565b806324ba5884146100ae578063313ce5671461010657806335b28153146101245780633b4da69f1461016857806341b3a0d9146101b6575b600080fd5b6100f0600480360360208110156100c457600080fd5b81019080803573ffffffffffffffffffffffffffffffffffffffff169060200190929190505050610322565b6040518082815260200191505060405180910390f35b61010e61033a565b6040518082815260200191505060405180910390f35b6101666004803603602081101561013a57600080fd5b81019080803573ffffffffffffffffffffffffffffffffffffffff169060200190929190505050610340565b005b6101b46004803603604081101561017e57600080fd5b81019080803573ffffffffffffffffffffffffffffffffffffffff16906020019092919080359060200190929190505050610481565b005b6101be61082e565b6040518082815260200191505060405180910390f35b6101dc610834565b604051808273ffffffffffffffffffffffffffffffffffffffff1673ffffffffffffffffffffffffffffffffffffffff16815260200191505060405180910390f35b61022661085a565b005b61026a6004803603602081101561023e57600080fd5b81019080803573ffffffffffffffffffffffffffffffffffffffff169060200190929190505050610927565b005b610274610a68565b604051808273ffffffffffffffffffffffffffffffffffffffff1673ffffffffffffffffffffffffffffffffffffffff16815260200191505060405180910390f35b6102be610a8e565b6040518082815260200191505060405180910390f35b610320600480360360408110156102ea57600080fd5b81019080803573ffffffffffffffffffffffffffffffffffffffff16906020019092919080359060200190929190505050610a94565b005b60006020528060005260406000206000915090505481565b60045481565b60016000803373ffffffffffffffffffffffffffffffffffffffff1673ffffffffffffffffffffffffffffffffffffffff16815260200190815260200160002054146103d7576040517f08c379a000000000000000000000000000000000000000000000000000000000815260040180806020018281038252602a815260200180610e20602a913960400191505060405180910390fd5b60016000808373ffffffffffffffffffffffffffffffffffffffff1673ffffffffffffffffffffffffffffffffffffffff168152602001908152602001600020819055507f599a298163e1678bb1c676052a8930bf0b8a1261ed6e01b8a2391e55f700010281604051808273ffffffffffffffffffffffffffffffffffffffff1673ffffffffffffffffffffffffffffffffffffffff16815260200191505060405180910390a150565b6001600554146104dc576040517f08c379a0000000000000000000000000000000000000000000000000000000008152600401808060200182810382526028815260200180610df86028913960400191505060405180910390fd5b6000811215610553576040517f08c379a000000000000000000000000000000000000000000000000000000000815260040180806020018281038252601c8152602001807f4261736963436f6c6c61746572616c4a6f696e2f6f766572666c6f770000000081525060200191505060405180910390fd5b600160009054906101000a900473ffffffffffffffffffffffffffffffffffffffff1673ffffffffffffffffffffffffffffffffffffffff16634a11825e60025484846040518463ffffffff1660e01b8152600401808481526020018373ffffffffffffffffffffffffffffffffffffffff1673ffffffffffffffffffffffffffffffffffffffff1681526020018281526020019350505050600060405180830381600087803b15801561060657600080fd5b505af115801561061a573d6000803e3d6000fd5b50505050600360009054906101000a900473ffffffffffffffffffffffffffffffffffffffff1673ffffffffffffffffffffffffffffffffffffffff166323b872dd3330846040518463ffffffff1660e01b8152600401808473ffffffffffffffffffffffffffffffffffffffff1673ffffffffffffffffffffffffffffffffffffffff1681526020018373ffffffffffffffffffffffffffffffffffffffff1673ffffffffffffffffffffffffffffffffffffffff1681526020018281526020019350505050602060405180830381600087803b1580156106fb57600080fd5b505af115801561070f573d6000803e3d6000fd5b505050506040513d602081101561072557600080fd5b810190808051906020019092919050505061078b576040517f08c379a0000000000000000000000000000000000000000000000000000000008152600401808060200182810382526023815260200180610dd56023913960400191505060405180910390fd5b7f0e64978d073561c3dfd4d4e3e4dce066cde2ab246a44f990fabb0a21a4a3bd95338383604051808473ffffffffffffffffffffffffffffffffffffffff1673ffffffffffffffffffffffffffffffffffffffff1681526020018373ffffffffffffffffffffffffffffffffffffffff1673ffffffffffffffffffffffffffffffffffffffff168152602001828152602001935050505060405180910390a15050565b60055481565b600160009054906101000a900473ffffffffffffffffffffffffffffffffffffffff1681565b60016000803373ffffffffffffffffffffffffffffffffffffffff1673ffffffffffffffffffffffffffffffffffffffff16815260200190815260200160002054146108f1576040517f08c379a000000000000000000000000000000000000000000000000000000000815260040180806020018281038252602a815260200180610e20602a913960400191505060405180910390fd5b60006005819055507f2d4b4ecff7bd7503135271925520a2f6c0d98c9473ffc1a1e72c92502f51b25e60405160405180910390a1565b60016000803373ffffffffffffffffffffffffffffffffffffffff1673ffffffffffffffffffffffffffffffffffffffff16815260200190815260200160002054146109be576040517f08c379a000000000000000000000000000000000000000000000000000000000815260040180806020018281038252602a815260200180610e20602a913960400191505060405180910390fd5b60008060008373ffffffffffffffffffffffffffffffffffffffff1673ffffffffffffffffffffffffffffffffffffffff168152602001908152602001600020819055507f8834a87e641e9716be4f34527af5d23e11624f1ddeefede6ad75a9acfc31b90381604051808273ffffffffffffffffffffffffffffffffffffffff1673ffffffffffffffffffffffffffffffffffffffff16815260200191505060405180910390a150565b600360009054906101000a900473ffffffffffffffffffffffffffffffffffffffff1681565b60025481565b7f8000000000000000000000000000000000000000000000000000000000000000811115610b2a576040517f08c379a000000000000000000000000000000000000000000000000000000000815260040180806020018281038252601c8152602001807f4261736963436f6c6c61746572616c4a6f696e2f6f766572666c6f770000000081525060200191505060405180910390fd5b600160009054906101000a900473ffffffffffffffffffffffffffffffffffffffff1673ffffffffffffffffffffffffffffffffffffffff16634a11825e60025433846000036040518463ffffffff1660e01b8152600401808481526020018373ffffffffffffffffffffffffffffffffffffffff1673ffffffffffffffffffffffffffffffffffffffff1681526020018281526020019350505050600060405180830381600087803b158015610be057600080fd5b505af1158015610bf4573d6000803e3d6000fd5b50505050600360009054906101000a900473ffffffffffffffffffffffffffffffffffffffff1673ffffffffffffffffffffffffffffffffffffffff1663a9059cbb83836040518363ffffffff1660e01b8152600401808373ffffffffffffffffffffffffffffffffffffffff1673ffffffffffffffffffffffffffffffffffffffff16815260200182815260200192505050602060405180830381600087803b158015610ca157600080fd5b505af1158015610cb5573d6000803e3d6000fd5b505050506040513d6020811015610ccb57600080fd5b8101908080519060200190929190505050610d31576040517f08c379a0000000000000000000000000000000000000000000000000000000008152600401808060200182810382526023815260200180610dd56023913960400191505060405180910390fd5b7fbc2a67d422c268da6fe45f3e7d194e1d98906d221f1cfad62a5c80f2cd209f4c338383604051808473ffffffffffffffffffffffffffffffffffffffff1673ffffffffffffffffffffffffffffffffffffffff1681526020018373ffffffffffffffffffffffffffffffffffffffff1673ffffffffffffffffffffffffffffffffffffffff168152602001828152602001935050505060405180910390a1505056fe4261736963436f6c6c61746572616c4a6f696e2f6661696c65642d7472616e736665724261736963436f6c6c61746572616c4a6f696e2f636f6e74726163742d6e6f742d656e61626c65644261736963436f6c6c61746572616c4a6f696e2f6163636f756e742d6e6f742d617574686f72697a6564a26469706673582212200a06652f38d561f9689ad202f9e5a49dcfe67190b76fe0a5a0cb35f1bb576a9f64736f6c634300060700334261736963436f6c6c61746572616c4a6f696e2f6e6f6e2d31382d646563696d616c73",
  "immutableReferences": {},
  "source": "/// BasicTokenAdapters.sol\n\n// Copyright (C) 2018 Rain <rainbreak@riseup.net>\n//\n// This program is free software: you can redistribute it and/or modify\n// it under the terms of the GNU Affero General Public License as published by\n// the Free Software Foundation, either version 3 of the License, or\n// (at your option) any later version.\n//\n// This program is distributed in the hope that it will be useful,\n// but WITHOUT ANY WARRANTY; without even the implied warranty of\n// MERCHANTABILITY or FITNESS FOR A PARTICULAR PURPOSE.  See the\n// GNU Affero General Public License for more details.\n//\n// You should have received a copy of the GNU Affero General Public License\n// along with this program.  If not, see <https://www.gnu.org/licenses/>.\n\npragma solidity 0.6.7;\n\nabstract contract CollateralLike {\n    function decimals() virtual public view returns (uint256);\n    function transfer(address,uint256) virtual public returns (bool);\n    function transferFrom(address,address,uint256) virtual public returns (bool);\n}\n\nabstract contract DSTokenLike {\n    function mint(address,uint256) virtual external;\n    function burn(address,uint256) virtual external;\n}\n\nabstract contract SAFEEngineLike {\n    function modifyCollateralBalance(bytes32,address,int256) virtual external;\n    function transferInternalCoins(address,address,uint256) virtual external;\n}\n\n/*\n    Here we provide *adapters* to connect the SAFEEngine to arbitrary external\n    token implementations, creating a bounded context for the SAFEEngine. The\n    adapters here are provided as working examples:\n      - `BasicCollateralJoin`: For well behaved ERC20 tokens, with simple transfer semantics.\n      - `RBTCJoin`: For native RBTC.\n      - `CoinJoin`: For connecting internal coin balances to an external\n                   `Coin` implementation.\n    In practice, adapter implementations will be varied and specific to\n    individual collateral types, accounting for different transfer\n    semantics and token standards.\n    Adapters need to implement two basic methods:\n      - `join`: enter collateral into the system\n      - `exit`: remove collateral from the system\n*/\n\ncontract BasicCollateralJoin {\n    // --- Auth ---\n    mapping (address => uint256) public authorizedAccounts;\n    /**\n     * @notice Add auth to an account\n     * @param account Account to add auth to\n     */\n    function addAuthorization(address account) external isAuthorized {\n        authorizedAccounts[account] = 1;\n        emit AddAuthorization(account);\n    }\n    /**\n     * @notice Remove auth from an account\n     * @param account Account to remove auth from\n     */\n    function removeAuthorization(address account) external isAuthorized {\n        authorizedAccounts[account] = 0;\n        emit RemoveAuthorization(account);\n    }\n    /**\n    * @notice Checks whether msg.sender can call an authed function\n    **/\n    modifier isAuthorized {\n        require(authorizedAccounts[msg.sender] == 1, \"BasicCollateralJoin/account-not-authorized\");\n        _;\n    }\n\n    // SAFE database\n    SAFEEngineLike  public safeEngine;\n    // Collateral type name\n    bytes32        public collateralType;\n    // Actual collateral token contract\n    CollateralLike public collateral;\n    // How many decimals the collateral token has\n    uint256        public decimals;\n    // Whether this adapter contract is enabled or not\n    uint256        public contractEnabled;\n\n    // --- Events ---\n    event AddAuthorization(address account);\n    event RemoveAuthorization(address account);\n    event DisableContract();\n    event Join(address sender, address account, uint256 wad);\n    event Exit(address sender, address account, uint256 wad);\n\n    constructor(address safeEngine_, bytes32 collateralType_, address collateral_) public {\n        authorizedAccounts[msg.sender] = 1;\n        contractEnabled = 1;\n        safeEngine      = SAFEEngineLike(safeEngine_);\n        collateralType  = collateralType_;\n        collateral      = CollateralLike(collateral_);\n        decimals        = collateral.decimals();\n        require(decimals == 18, \"BasicCollateralJoin/non-18-decimals\");\n        emit AddAuthorization(msg.sender);\n    }\n    /**\n     * @notice Disable this contract\n     */\n    function disableContract() external isAuthorized {\n        contractEnabled = 0;\n        emit DisableContract();\n    }\n    /**\n    * @notice Join collateral in the system\n    * @dev This function locks collateral in the adapter and creates a 'representation' of\n    *      the locked collateral inside the system. This adapter assumes that the collateral\n    *      has 18 decimals\n    * @param account Account from which we transferFrom collateral and add it in the system\n    * @param wad Amount of collateral to transfer in the system (represented as a number with 18 decimals)\n    **/\n    function join(address account, uint256 wad) external {\n        require(contractEnabled == 1, \"BasicCollateralJoin/contract-not-enabled\");\n        require(int256(wad) >= 0, \"BasicCollateralJoin/overflow\");\n        safeEngine.modifyCollateralBalance(collateralType, account, int256(wad));\n        require(collateral.transferFrom(msg.sender, address(this), wad), \"BasicCollateralJoin/failed-transfer\");\n        emit Join(msg.sender, account, wad);\n    }\n    /**\n    * @notice Exit collateral from the system\n    * @dev This function destroys the collateral representation from inside the system\n    *      and exits the collateral from this adapter. The adapter assumes that the collateral\n    *      has 18 decimals\n    * @param account Account to which we transfer the collateral\n    * @param wad Amount of collateral to transfer to 'account' (represented as a number with 18 decimals)\n    **/\n    function exit(address account, uint256 wad) external {\n        require(wad <= 2 ** 255, \"BasicCollateralJoin/overflow\");\n        safeEngine.modifyCollateralBalance(collateralType, msg.sender, -int256(wad));\n        require(collateral.transfer(account, wad), \"BasicCollateralJoin/failed-transfer\");\n        emit Exit(msg.sender, account, wad);\n    }\n}\n\n// Use Native RBTC on RSK as collateralType for B-RAI.\ncontract RBTCJoin {\n    // --- Auth ---\n    mapping (address => uint256) public authorizedAccounts;\n    /**\n     * @notice Add auth to an account\n     * @param account Account to add auth to\n     */\n    function addAuthorization(address account) external isAuthorized {\n        authorizedAccounts[account] = 1;\n        emit AddAuthorization(account);\n    }\n    /**\n     * @notice Remove auth from an account\n     * @param account Account to remove auth from\n     */\n    function removeAuthorization(address account) external isAuthorized {\n        authorizedAccounts[account] = 0;\n        emit RemoveAuthorization(account);\n    }\n    /**\n    * @notice Checks whether msg.sender can call a restricted function\n    **/\n    modifier isAuthorized {\n        require(authorizedAccounts[msg.sender] == 1, \"RBTCJoin/account-not-authorized\");\n        _;\n    }\n\n    // SAFE database\n    SAFEEngineLike public safeEngine;\n    // Collateral type name\n    bytes32       public collateralType;\n    // Whether this contract is enabled or not\n    uint256       public contractEnabled;\n    // Number of decimals ETH has\n    uint256       public decimals;\n\n    // --- Events ---\n    event AddAuthorization(address account);\n    event RemoveAuthorization(address account);\n    event DisableContract();\n    event Join(address sender, address account, uint256 wad);\n    event Exit(address sender, address account, uint256 wad);\n\n    constructor(address safeEngine_, bytes32 collateralType_) public {\n        authorizedAccounts[msg.sender] = 1;\n        contractEnabled                = 1;\n        safeEngine                     = SAFEEngineLike(safeEngine_);\n        collateralType                 = collateralType_;\n        decimals                       = 18;\n        emit AddAuthorization(msg.sender);\n    }\n    /**\n     * @notice Disable this contract\n     */\n    function disableContract() external isAuthorized {\n        contractEnabled = 0;\n        emit DisableContract();\n    }\n    /**\n    * @notice Join ETH in the system\n    * @param account Account that will receive the RBTC representation inside the system\n    **/\n    function join(address account) external payable {\n        require(contractEnabled == 1, \"RBTCJoin/contract-not-enabled\");\n        require(int256(msg.value) >= 0, \"RBTCJoin/overflow\");\n        safeEngine.modifyCollateralBalance(collateralType, account, int256(msg.value));\n        emit Join(msg.sender, account, msg.value);\n    }\n    /**\n    * @notice Exit rbtc from the system\n    * @param account Account that will receive the rbtc representation inside the system\n    **/\n    function exit(address payable account, uint256 wad) external {\n        require(int256(wad) >= 0, \"rbtcJoin/overflow\");\n        safeEngine.modifyCollateralBalance(collateralType, msg.sender, -int256(wad));\n        emit Exit(msg.sender, account, wad);\n        account.transfer(wad);\n    }\n}\n\ncontract CoinJoin {\n    // --- Auth ---\n    mapping (address => uint256) public authorizedAccounts;\n    /**\n     * @notice Add auth to an account\n     * @param account Account to add auth to\n     */\n    function addAuthorization(address account) external isAuthorized {\n        authorizedAccounts[account] = 1;\n        emit AddAuthorization(account);\n    }\n    /**\n     * @notice Remove auth from an account\n     * @param account Account to remove auth from\n     */\n    function removeAuthorization(address account) external isAuthorized {\n        authorizedAccounts[account] = 0;\n        emit RemoveAuthorization(account);\n    }\n    /**\n    * @notice Checks wthr msg.sender can call an authed function\n    **/\n    modifier isAuthorized {\n        require(authorizedAccounts[msg.sender] == 1, \"CoinJoin/account-not-authorized\");\n        _;\n    }\n\n    // SAFE database\n    SAFEEngineLike public safeEngine;\n    // Coin created by the system; this is the external, ERC-20 representation, not the internal 'coinBalance'\n    DSTokenLike    public systemCoin;\n    // Whether this contract is enabled or not\n    uint256        public contractEnabled;\n    // Number of decimals the system coin has\n    uint256        public decimals;\n\n    // --- Events ---\n    event AddAuthorization(address account);\n    event RemoveAuthorization(address account);\n    event DisableContract();\n    event Join(address sender, address account, uint256 wad);\n    event Exit(address sender, address account, uint256 wad);\n\n    constructor(address safeEngine_, address systemCoin_) public {\n        authorizedAccounts[msg.sender] = 1;\n        contractEnabled                = 1;\n        safeEngine                     = SAFEEngineLike(safeEngine_);\n        systemCoin                     = DSTokenLike(systemCoin_);\n        decimals                       = 18;\n        emit AddAuthorization(msg.sender);\n    }\n    /**\n     * @notice Disable this contract\n     */\n    function disableContract() external isAuthorized {\n        contractEnabled = 0;\n        emit DisableContract();\n    }\n    uint256 constant RAY = 10 ** 27;\n    function multiply(uint256 x, uint256 y) internal pure returns (uint256 z) {\n        require(y == 0 || (z = x * y) / y == x, \"CoinJoin/mul-overflow\");\n    }\n    /**\n    * @notice Join system coins in the system\n    * @dev Exited coins have 18 decimals but inside the system they have 45 (rad) decimals.\n           When we join, the amount (wad) is multiplied by 10**27 (ray)\n    * @param account Account that will receive the joined coins\n    * @param wad Amount of external coins to join (18 decimal number)\n    **/\n    function join(address account, uint256 wad) external {\n        safeEngine.transferInternalCoins(address(this), account, multiply(RAY, wad));\n        systemCoin.burn(msg.sender, wad);\n        emit Join(msg.sender, account, wad);\n    }\n    /**\n    * @notice Exit system coins from the system and inside 'Coin.sol'\n    * @dev Inside the system, coins have 45 (rad) decimals but outside of it they have 18 decimals (wad).\n           When we exit, we specify a wad amount of coins and then the contract automatically multiplies\n           wad by 10**27 to move the correct 45 decimal coin amount to this adapter\n    * @param account Account that will receive the exited coins\n    * @param wad Amount of internal coins to join (18 decimal number that will be multiplied by ray)\n    **/\n    function exit(address account, uint256 wad) external {\n        require(contractEnabled == 1, \"CoinJoin/contract-not-enabled\");\n        safeEngine.transferInternalCoins(msg.sender, address(this), multiply(RAY, wad));\n        systemCoin.mint(account, wad);\n        emit Exit(msg.sender, account, wad);\n    }\n}\n",
  "sourcePath": "/Users/dhruv/Documents/tao/geb/B-RAI_contracts/contracts/BasicTokenAdapters.sol",
  "compiler": {
    "name": "solc",
    "version": "0.6.7+commit.b8d736ae.Emscripten.clang"
  },
  "schemaVersion": "3.4.1",
  "updatedAt": "2021-07-20T22:29:24.319Z",
  "devdoc": {
    "methods": {
      "addAuthorization(address)": {
        "params": {
          "account": "Account to add auth to"
        }
      },
      "exit(address,uint256)": {
        "details": "This function destroys the collateral representation from inside the system     and exits the collateral from this adapter. The adapter assumes that the collateral     has 18 decimals",
        "params": {
          "account": "Account to which we transfer the collateral",
          "wad": "Amount of collateral to transfer to 'account' (represented as a number with 18 decimals)*"
        }
      },
      "join(address,uint256)": {
        "details": "This function locks collateral in the adapter and creates a 'representation' of     the locked collateral inside the system. This adapter assumes that the collateral     has 18 decimals",
        "params": {
          "account": "Account from which we transferFrom collateral and add it in the system",
          "wad": "Amount of collateral to transfer in the system (represented as a number with 18 decimals)*"
        }
      },
      "removeAuthorization(address)": {
        "params": {
          "account": "Account to remove auth from"
        }
      }
    }
  },
  "userdoc": {
    "methods": {
      "addAuthorization(address)": {
        "notice": "Add auth to an account"
      },
      "disableContract()": {
        "notice": "Disable this contract"
      },
      "exit(address,uint256)": {
        "notice": "Exit collateral from the system"
      },
      "join(address,uint256)": {
        "notice": "Join collateral in the system"
      },
      "removeAuthorization(address)": {
        "notice": "Remove auth from an account"
      }
    }
  }
}