{
  "contractName": "DebtAuctionHouse",
  "abi": [
    {
      "inputs": [
        {
          "internalType": "address",
          "name": "safeEngine_",
          "type": "address"
        },
        {
          "internalType": "address",
          "name": "protocolToken_",
          "type": "address"
        }
      ],
      "stateMutability": "nonpayable",
      "type": "constructor"
    },
    {
      "anonymous": false,
      "inputs": [
        {
          "indexed": false,
          "internalType": "address",
          "name": "account",
          "type": "address"
        }
      ],
      "name": "AddAuthorization",
      "type": "event"
    },
    {
      "anonymous": false,
      "inputs": [
        {
          "indexed": true,
          "internalType": "uint256",
          "name": "id",
          "type": "uint256"
        },
        {
          "indexed": false,
          "internalType": "address",
          "name": "highBidder",
          "type": "address"
        },
        {
          "indexed": false,
          "internalType": "uint256",
          "name": "amountToBuy",
          "type": "uint256"
        },
        {
          "indexed": false,
          "internalType": "uint256",
          "name": "bid",
          "type": "uint256"
        },
        {
          "indexed": false,
          "internalType": "uint256",
          "name": "bidExpiry",
          "type": "uint256"
        }
      ],
      "name": "DecreaseSoldAmount",
      "type": "event"
    },
    {
      "anonymous": false,
      "inputs": [
        {
          "indexed": false,
          "internalType": "address",
          "name": "sender",
          "type": "address"
        }
      ],
      "name": "DisableContract",
      "type": "event"
    },
    {
      "anonymous": false,
      "inputs": [
        {
          "indexed": false,
          "internalType": "bytes32",
          "name": "parameter",
          "type": "bytes32"
        },
        {
          "indexed": false,
          "internalType": "uint256",
          "name": "data",
          "type": "uint256"
        }
      ],
      "name": "ModifyParameters",
      "type": "event"
    },
    {
      "anonymous": false,
      "inputs": [
        {
          "indexed": false,
          "internalType": "bytes32",
          "name": "parameter",
          "type": "bytes32"
        },
        {
          "indexed": false,
          "internalType": "address",
          "name": "data",
          "type": "address"
        }
      ],
      "name": "ModifyParameters",
      "type": "event"
    },
    {
      "anonymous": false,
      "inputs": [
        {
          "indexed": false,
          "internalType": "address",
          "name": "account",
          "type": "address"
        }
      ],
      "name": "RemoveAuthorization",
      "type": "event"
    },
    {
      "anonymous": false,
      "inputs": [
        {
          "indexed": true,
          "internalType": "uint256",
          "name": "id",
          "type": "uint256"
        },
        {
          "indexed": false,
          "internalType": "uint256",
          "name": "auctionDeadline",
          "type": "uint256"
        }
      ],
      "name": "RestartAuction",
      "type": "event"
    },
    {
      "anonymous": false,
      "inputs": [
        {
          "indexed": true,
          "internalType": "uint256",
          "name": "id",
          "type": "uint256"
        },
        {
          "indexed": false,
          "internalType": "uint256",
          "name": "activeDebtAuctions",
          "type": "uint256"
        }
      ],
      "name": "SettleAuction",
      "type": "event"
    },
    {
      "anonymous": false,
      "inputs": [
        {
          "indexed": true,
          "internalType": "uint256",
          "name": "id",
          "type": "uint256"
        },
        {
          "indexed": false,
          "internalType": "uint256",
          "name": "auctionsStarted",
          "type": "uint256"
        },
        {
          "indexed": false,
          "internalType": "uint256",
          "name": "amountToSell",
          "type": "uint256"
        },
        {
          "indexed": false,
          "internalType": "uint256",
          "name": "initialBid",
          "type": "uint256"
        },
        {
          "indexed": true,
          "internalType": "address",
          "name": "incomeReceiver",
          "type": "address"
        },
        {
          "indexed": true,
          "internalType": "uint256",
          "name": "auctionDeadline",
          "type": "uint256"
        },
        {
          "indexed": false,
          "internalType": "uint256",
          "name": "activeDebtAuctions",
          "type": "uint256"
        }
      ],
      "name": "StartAuction",
      "type": "event"
    },
    {
      "anonymous": false,
      "inputs": [
        {
          "indexed": true,
          "internalType": "uint256",
          "name": "id",
          "type": "uint256"
        },
        {
          "indexed": false,
          "internalType": "address",
          "name": "sender",
          "type": "address"
        },
        {
          "indexed": false,
          "internalType": "address",
          "name": "highBidder",
          "type": "address"
        },
        {
          "indexed": false,
          "internalType": "uint256",
          "name": "bidAmount",
          "type": "uint256"
        },
        {
          "indexed": false,
          "internalType": "uint256",
          "name": "activeDebtAuctions",
          "type": "uint256"
        }
      ],
      "name": "TerminateAuctionPrematurely",
      "type": "event"
    },
    {
      "inputs": [],
      "name": "AUCTION_HOUSE_TYPE",
      "outputs": [
        {
          "internalType": "bytes32",
          "name": "",
          "type": "bytes32"
        }
      ],
      "stateMutability": "view",
      "type": "function"
    },
    {
      "inputs": [],
      "name": "accountingEngine",
      "outputs": [
        {
          "internalType": "address",
          "name": "",
          "type": "address"
        }
      ],
      "stateMutability": "view",
      "type": "function"
    },
    {
      "inputs": [],
      "name": "activeDebtAuctions",
      "outputs": [
        {
          "internalType": "uint256",
          "name": "",
          "type": "uint256"
        }
      ],
      "stateMutability": "view",
      "type": "function"
    },
    {
      "inputs": [],
      "name": "amountSoldIncrease",
      "outputs": [
        {
          "internalType": "uint256",
          "name": "",
          "type": "uint256"
        }
      ],
      "stateMutability": "view",
      "type": "function"
    },
    {
      "inputs": [],
      "name": "auctionsStarted",
      "outputs": [
        {
          "internalType": "uint256",
          "name": "",
          "type": "uint256"
        }
      ],
      "stateMutability": "view",
      "type": "function"
    },
    {
      "inputs": [
        {
          "internalType": "address",
          "name": "",
          "type": "address"
        }
      ],
      "name": "authorizedAccounts",
      "outputs": [
        {
          "internalType": "uint256",
          "name": "",
          "type": "uint256"
        }
      ],
      "stateMutability": "view",
      "type": "function"
    },
    {
      "inputs": [],
      "name": "bidDecrease",
      "outputs": [
        {
          "internalType": "uint256",
          "name": "",
          "type": "uint256"
        }
      ],
      "stateMutability": "view",
      "type": "function"
    },
    {
      "inputs": [],
      "name": "bidDuration",
      "outputs": [
        {
          "internalType": "uint48",
          "name": "",
          "type": "uint48"
        }
      ],
      "stateMutability": "view",
      "type": "function"
    },
    {
      "inputs": [
        {
          "internalType": "uint256",
          "name": "",
          "type": "uint256"
        }
      ],
      "name": "bids",
      "outputs": [
        {
          "internalType": "uint256",
          "name": "bidAmount",
          "type": "uint256"
        },
        {
          "internalType": "uint256",
          "name": "amountToSell",
          "type": "uint256"
        },
        {
          "internalType": "address",
          "name": "highBidder",
          "type": "address"
        },
        {
          "internalType": "uint48",
          "name": "bidExpiry",
          "type": "uint48"
        },
        {
          "internalType": "uint48",
          "name": "auctionDeadline",
          "type": "uint48"
        }
      ],
      "stateMutability": "view",
      "type": "function"
    },
    {
      "inputs": [],
      "name": "contractEnabled",
      "outputs": [
        {
          "internalType": "uint256",
          "name": "",
          "type": "uint256"
        }
      ],
      "stateMutability": "view",
      "type": "function"
    },
    {
      "inputs": [],
      "name": "protocolToken",
      "outputs": [
        {
          "internalType": "contract TokenLike",
          "name": "",
          "type": "address"
        }
      ],
      "stateMutability": "view",
      "type": "function"
    },
    {
      "inputs": [],
      "name": "safeEngine",
      "outputs": [
        {
          "internalType": "contract SAFEEngineLike",
          "name": "",
          "type": "address"
        }
      ],
      "stateMutability": "view",
      "type": "function"
    },
    {
      "inputs": [],
      "name": "totalAuctionLength",
      "outputs": [
        {
          "internalType": "uint48",
          "name": "",
          "type": "uint48"
        }
      ],
      "stateMutability": "view",
      "type": "function"
    },
    {
      "inputs": [
        {
          "internalType": "address",
          "name": "account",
          "type": "address"
        }
      ],
      "name": "addAuthorization",
      "outputs": [],
      "stateMutability": "nonpayable",
      "type": "function"
    },
    {
      "inputs": [
        {
          "internalType": "address",
          "name": "account",
          "type": "address"
        }
      ],
      "name": "removeAuthorization",
      "outputs": [],
      "stateMutability": "nonpayable",
      "type": "function"
    },
    {
      "inputs": [
        {
          "internalType": "bytes32",
          "name": "parameter",
          "type": "bytes32"
        },
        {
          "internalType": "address",
          "name": "addr",
          "type": "address"
        }
      ],
      "name": "modifyParameters",
      "outputs": [],
      "stateMutability": "nonpayable",
      "type": "function"
    },
    {
      "inputs": [
        {
          "internalType": "bytes32",
          "name": "parameter",
          "type": "bytes32"
        },
        {
          "internalType": "uint256",
          "name": "data",
          "type": "uint256"
        }
      ],
      "name": "modifyParameters",
      "outputs": [],
      "stateMutability": "nonpayable",
      "type": "function"
    },
    {
      "inputs": [
        {
          "internalType": "address",
          "name": "incomeReceiver",
          "type": "address"
        },
        {
          "internalType": "uint256",
          "name": "amountToSell",
          "type": "uint256"
        },
        {
          "internalType": "uint256",
          "name": "initialBid",
          "type": "uint256"
        }
      ],
      "name": "startAuction",
      "outputs": [
        {
          "internalType": "uint256",
          "name": "id",
          "type": "uint256"
        }
      ],
      "stateMutability": "nonpayable",
      "type": "function"
    },
    {
      "inputs": [
        {
          "internalType": "uint256",
          "name": "id",
          "type": "uint256"
        }
      ],
      "name": "restartAuction",
      "outputs": [],
      "stateMutability": "nonpayable",
      "type": "function"
    },
    {
      "inputs": [
        {
          "internalType": "uint256",
          "name": "id",
          "type": "uint256"
        },
        {
          "internalType": "uint256",
          "name": "amountToBuy",
          "type": "uint256"
        },
        {
          "internalType": "uint256",
          "name": "bid",
          "type": "uint256"
        }
      ],
      "name": "decreaseSoldAmount",
      "outputs": [],
      "stateMutability": "nonpayable",
      "type": "function"
    },
    {
      "inputs": [
        {
          "internalType": "uint256",
          "name": "id",
          "type": "uint256"
        }
      ],
      "name": "settleAuction",
      "outputs": [],
      "stateMutability": "nonpayable",
      "type": "function"
    },
    {
      "inputs": [],
      "name": "disableContract",
      "outputs": [],
      "stateMutability": "nonpayable",
      "type": "function"
    },
    {
      "inputs": [
        {
          "internalType": "uint256",
          "name": "id",
          "type": "uint256"
        }
      ],
      "name": "terminateAuctionPrematurely",
      "outputs": [],
      "stateMutability": "nonpayable",
      "type": "function"
    }
  ],
  "bytecode": "0x6080604052670e92596fd62900006005556714d1120d7b160000600655612a30600760006101000a81548165ffffffffffff021916908365ffffffffffff1602179055506202a300600760066101000a81548165ffffffffffff021916908365ffffffffffff160217905550600060085534801561007c57600080fd5b50604051612c29380380612c298339818101604052604081101561009f57600080fd5b81019080805190602001909291908051906020019092919050505060016000803373ffffffffffffffffffffffffffffffffffffffff1673ffffffffffffffffffffffffffffffffffffffff1681526020019081526020016000208190555081600260006101000a81548173ffffffffffffffffffffffffffffffffffffffff021916908373ffffffffffffffffffffffffffffffffffffffff16021790555080600360006101000a81548173ffffffffffffffffffffffffffffffffffffffff021916908373ffffffffffffffffffffffffffffffffffffffff1602179055506001600a819055507f599a298163e1678bb1c676052a8930bf0b8a1261ed6e01b8a2391e55f700010233604051808273ffffffffffffffffffffffffffffffffffffffff1673ffffffffffffffffffffffffffffffffffffffff16815260200191505060405180910390a15050612a2d806101fc6000396000f3fe608060405234801561001057600080fd5b506004361061014d5760003560e01c806373c0a367116100c3578063961d45c41161007c578063961d45c414610554578063d25ccf531461059e578063f6b45eb7146105cc578063f8a2685e146105fa578063fe4f589014610618578063ff6b7b1c146106505761014d565b806373c0a3671461046e5780637fa9ecb81461049c5780638115ba74146104ba578063894ba833146104d8578063933f7608146104e257806394f3f81d146105105761014d565b806341b3a0d91161011557806341b3a0d9146102845780634423c5f1146102a2578063551cb3b11461034c57806356dd47551461036a5780636614f010146103d657806367aea313146104245761014d565b80631266fb94146101525780631a465fe11461017057806324ba5884146101ba5780632e9936111461021257806335b2815314610240575b600080fd5b61015a610692565b6040518082815260200191505060405180910390f35b6101786106b6565b604051808273ffffffffffffffffffffffffffffffffffffffff1673ffffffffffffffffffffffffffffffffffffffff16815260200191505060405180910390f35b6101fc600480360360208110156101d057600080fd5b81019080803573ffffffffffffffffffffffffffffffffffffffff1690602001909291905050506106dc565b6040518082815260200191505060405180910390f35b61023e6004803603602081101561022857600080fd5b81019080803590602001909291905050506106f4565b005b6102826004803603602081101561025657600080fd5b81019080803573ffffffffffffffffffffffffffffffffffffffff169060200190929190505050610a64565b005b61028c610ba5565b6040518082815260200191505060405180910390f35b6102ce600480360360208110156102b857600080fd5b8101908080359060200190929190505050610bab565b604051808681526020018581526020018473ffffffffffffffffffffffffffffffffffffffff1673ffffffffffffffffffffffffffffffffffffffff1681526020018365ffffffffffff1665ffffffffffff1681526020018265ffffffffffff1665ffffffffffff1681526020019550505050505060405180910390f35b610354610c25565b6040518082815260200191505060405180910390f35b6103c06004803603606081101561038057600080fd5b81019080803573ffffffffffffffffffffffffffffffffffffffff1690602001909291908035906020019092919080359060200190929190505050610c2b565b6040518082815260200191505060405180910390f35b610422600480360360408110156103ec57600080fd5b8101908080359060200190929190803573ffffffffffffffffffffffffffffffffffffffff169060200190929190505050610f5e565b005b61042c6111ed565b604051808273ffffffffffffffffffffffffffffffffffffffff1673ffffffffffffffffffffffffffffffffffffffff16815260200191505060405180910390f35b610476611213565b604051808265ffffffffffff1665ffffffffffff16815260200191505060405180910390f35b6104a461122b565b6040518082815260200191505060405180910390f35b6104c2611231565b6040518082815260200191505060405180910390f35b6104e0611237565b005b61050e600480360360208110156104f857600080fd5b8101908080359060200190929190505050611384565b005b6105526004803603602081101561052657600080fd5b81019080803573ffffffffffffffffffffffffffffffffffffffff169060200190929190505050611776565b005b61055c6118b7565b604051808273ffffffffffffffffffffffffffffffffffffffff1673ffffffffffffffffffffffffffffffffffffffff16815260200191505060405180910390f35b6105ca600480360360208110156105b457600080fd5b81019080803590602001909291905050506118dd565b005b6105d4611b74565b604051808265ffffffffffff1665ffffffffffff16815260200191505060405180910390f35b610602611b8c565b6040518082815260200191505060405180910390f35b61064e6004803603604081101561062e57600080fd5b810190808035906020019092919080359060200190929190505050611b92565b005b6106906004803603606081101561066657600080fd5b81019080803590602001909291908035906020019092919080359060200190929190505050611dcc565b005b7f444542540000000000000000000000000000000000000000000000000000000081565b600360009054906101000a900473ffffffffffffffffffffffffffffffffffffffff1681565b60006020528060005260406000206000915090505481565b6001600a541461076c576040517f08c379a00000000000000000000000000000000000000000000000000000000081526004018080602001828103825260198152602001807f4465627441756374696f6e486f7573652f6e6f742d6c6976650000000000000081525060200191505060405180910390fd5b60006001600083815260200190815260200160002060020160149054906101000a900465ffffffffffff1665ffffffffffff16141580156108165750426001600083815260200190815260200160002060020160149054906101000a900465ffffffffffff1665ffffffffffff16108061081557504260016000838152602001908152602001600020600201601a9054906101000a900465ffffffffffff1665ffffffffffff16105b5b610888576040517f08c379a000000000000000000000000000000000000000000000000000000000815260040180806020018281038252601d8152602001807f4465627441756374696f6e486f7573652f6e6f742d66696e697368656400000081525060200191505060405180910390fd5b600360009054906101000a900473ffffffffffffffffffffffffffffffffffffffff1673ffffffffffffffffffffffffffffffffffffffff166340c10f196001600084815260200190815260200160002060020160009054906101000a900473ffffffffffffffffffffffffffffffffffffffff1660016000858152602001908152602001600020600101546040518363ffffffff1660e01b8152600401808373ffffffffffffffffffffffffffffffffffffffff1673ffffffffffffffffffffffffffffffffffffffff16815260200182815260200192505050600060405180830381600087803b15801561097d57600080fd5b505af1158015610991573d6000803e3d6000fd5b505050506109a260095460016125d9565b6009819055506001600082815260200190815260200160002060008082016000905560018201600090556002820160006101000a81549073ffffffffffffffffffffffffffffffffffffffff02191690556002820160146101000a81549065ffffffffffff021916905560028201601a6101000a81549065ffffffffffff02191690555050807fef063949eb6ef5abef19139d9c75a558424ffa759302cfe445f8d2d327376fe46009546040518082815260200191505060405180910390a250565b60016000803373ffffffffffffffffffffffffffffffffffffffff1673ffffffffffffffffffffffffffffffffffffffff1681526020019081526020016000205414610afb576040517f08c379a00000000000000000000000000000000000000000000000000000000081526004018080602001828103825260278152602001806128cd6027913960400191505060405180910390fd5b60016000808373ffffffffffffffffffffffffffffffffffffffff1673ffffffffffffffffffffffffffffffffffffffff168152602001908152602001600020819055507f599a298163e1678bb1c676052a8930bf0b8a1261ed6e01b8a2391e55f700010281604051808273ffffffffffffffffffffffffffffffffffffffff1673ffffffffffffffffffffffffffffffffffffffff16815260200191505060405180910390a150565b600a5481565b60016020528060005260406000206000915090508060000154908060010154908060020160009054906101000a900473ffffffffffffffffffffffffffffffffffffffff16908060020160149054906101000a900465ffffffffffff169080600201601a9054906101000a900465ffffffffffff16905085565b60085481565b600060016000803373ffffffffffffffffffffffffffffffffffffffff1673ffffffffffffffffffffffffffffffffffffffff1681526020019081526020016000205414610cc4576040517f08c379a00000000000000000000000000000000000000000000000000000000081526004018080602001828103825260278152602001806128cd6027913960400191505060405180910390fd5b6001600a5414610d1f576040517f08c379a000000000000000000000000000000000000000000000000000000000815260040180806020018281038252602581526020018061298b6025913960400191505060405180910390fd5b7fffffffffffffffffffffffffffffffffffffffffffffffffffffffffffffffff60085410610db6576040517f08c379a00000000000000000000000000000000000000000000000000000000081526004018080602001828103825260198152602001807f4465627441756374696f6e486f7573652f6f766572666c6f770000000000000081525060200191505060405180910390fd5b6008600081546001019190508190559050816001600083815260200190815260200160002060000181905550826001600083815260200190815260200160002060010181905550836001600083815260200190815260200160002060020160006101000a81548173ffffffffffffffffffffffffffffffffffffffff021916908373ffffffffffffffffffffffffffffffffffffffff160217905550610e7042600760069054906101000a900465ffffffffffff1661265c565b60016000838152602001908152602001600020600201601a6101000a81548165ffffffffffff021916908365ffffffffffff160217905550610eb560095460016126d2565b60098190555060016000828152602001908152602001600020600201601a9054906101000a900465ffffffffffff1665ffffffffffff168473ffffffffffffffffffffffffffffffffffffffff16827f9102bd0b66dcb83f469f1122a583dc797657b114141460c59230fc1b41f4822960085487876009546040518085815260200184815260200183815260200182815260200194505050505060405180910390a49392505050565b60016000803373ffffffffffffffffffffffffffffffffffffffff1673ffffffffffffffffffffffffffffffffffffffff1681526020019081526020016000205414610ff5576040517f08c379a00000000000000000000000000000000000000000000000000000000081526004018080602001828103825260278152602001806128cd6027913960400191505060405180910390fd5b6001600a5414611050576040517f08c379a000000000000000000000000000000000000000000000000000000000815260040180806020018281038252602581526020018061298b6025913960400191505060405180910390fd5b7f70726f746f636f6c546f6b656e000000000000000000000000000000000000008214156110be5780600360006101000a81548173ffffffffffffffffffffffffffffffffffffffff021916908373ffffffffffffffffffffffffffffffffffffffff16021790555061117e565b7f6163636f756e74696e67456e67696e650000000000000000000000000000000082141561112c5780600460006101000a81548173ffffffffffffffffffffffffffffffffffffffff021916908373ffffffffffffffffffffffffffffffffffffffff16021790555061117d565b6040517f08c379a000000000000000000000000000000000000000000000000000000000815260040180806020018281038252602a815260200180612859602a913960400191505060405180910390fd5b5b7fd91f38cf03346b5dc15fb60f9076f866295231ad3c3841a1051f8443f25170d18282604051808381526020018273ffffffffffffffffffffffffffffffffffffffff1673ffffffffffffffffffffffffffffffffffffffff1681526020019250505060405180910390a15050565b600260009054906101000a900473ffffffffffffffffffffffffffffffffffffffff1681565b600760069054906101000a900465ffffffffffff1681565b60065481565b60095481565b60016000803373ffffffffffffffffffffffffffffffffffffffff1673ffffffffffffffffffffffffffffffffffffffff16815260200190815260200160002054146112ce576040517f08c379a00000000000000000000000000000000000000000000000000000000081526004018080602001828103825260278152602001806128cd6027913960400191505060405180910390fd5b6000600a8190555033600460006101000a81548173ffffffffffffffffffffffffffffffffffffffff021916908373ffffffffffffffffffffffffffffffffffffffff16021790555060006009819055507f8232b6f6b40c9c98ad4c93e3a92cd021a28ddf6b027b80717ab32eced1469a1d33604051808273ffffffffffffffffffffffffffffffffffffffff1673ffffffffffffffffffffffffffffffffffffffff16815260200191505060405180910390a1565b6000600a54146113df576040517f08c379a00000000000000000000000000000000000000000000000000000000081526004018080602001828103825260278152602001806128f46027913960400191505060405180910390fd5b600073ffffffffffffffffffffffffffffffffffffffff166001600083815260200190815260200160002060020160009054906101000a900473ffffffffffffffffffffffffffffffffffffffff1673ffffffffffffffffffffffffffffffffffffffff16141561149b576040517f08c379a00000000000000000000000000000000000000000000000000000000081526004018080602001828103825260248152602001806129d46024913960400191505060405180910390fd5b600260009054906101000a900473ffffffffffffffffffffffffffffffffffffffff1673ffffffffffffffffffffffffffffffffffffffff16631b142820600460009054906101000a900473ffffffffffffffffffffffffffffffffffffffff166001600085815260200190815260200160002060020160009054906101000a900473ffffffffffffffffffffffffffffffffffffffff1660016000868152602001908152602001600020600001546040518463ffffffff1660e01b8152600401808473ffffffffffffffffffffffffffffffffffffffff1673ffffffffffffffffffffffffffffffffffffffff1681526020018373ffffffffffffffffffffffffffffffffffffffff1673ffffffffffffffffffffffffffffffffffffffff1681526020018281526020019350505050600060405180830381600087803b1580156115e657600080fd5b505af11580156115fa573d6000803e3d6000fd5b50505050807fb44e0a3b14eb47d78f0e8862fef549e98212558fd69c690d2fe3a7780bcd6f19336001600085815260200190815260200160002060020160009054906101000a900473ffffffffffffffffffffffffffffffffffffffff166001600086815260200190815260200160002060000154600954604051808573ffffffffffffffffffffffffffffffffffffffff1673ffffffffffffffffffffffffffffffffffffffff1681526020018473ffffffffffffffffffffffffffffffffffffffff1673ffffffffffffffffffffffffffffffffffffffff16815260200183815260200182815260200194505050505060405180910390a26001600082815260200190815260200160002060008082016000905560018201600090556002820160006101000a81549073ffffffffffffffffffffffffffffffffffffffff02191690556002820160146101000a81549065ffffffffffff021916905560028201601a6101000a81549065ffffffffffff0219169055505050565b60016000803373ffffffffffffffffffffffffffffffffffffffff1673ffffffffffffffffffffffffffffffffffffffff168152602001908152602001600020541461180d576040517f08c379a00000000000000000000000000000000000000000000000000000000081526004018080602001828103825260278152602001806128cd6027913960400191505060405180910390fd5b60008060008373ffffffffffffffffffffffffffffffffffffffff1673ffffffffffffffffffffffffffffffffffffffff168152602001908152602001600020819055507f8834a87e641e9716be4f34527af5d23e11624f1ddeefede6ad75a9acfc31b90381604051808273ffffffffffffffffffffffffffffffffffffffff1673ffffffffffffffffffffffffffffffffffffffff16815260200191505060405180910390a150565b600460009054906101000a900473ffffffffffffffffffffffffffffffffffffffff1681565b600854811115611938576040517f08c379a00000000000000000000000000000000000000000000000000000000081526004018080602001828103825260268152602001806128336026913960400191505060405180910390fd5b4260016000838152602001908152602001600020600201601a9054906101000a900465ffffffffffff1665ffffffffffff16106119dd576040517f08c379a000000000000000000000000000000000000000000000000000000000815260040180806020018281038252601d8152602001807f4465627441756374696f6e486f7573652f6e6f742d66696e697368656400000081525060200191505060405180910390fd5b60006001600083815260200190815260200160002060020160149054906101000a900465ffffffffffff1665ffffffffffff1614611a66576040517f08c379a000000000000000000000000000000000000000000000000000000000815260040180806020018281038252602381526020018061291b6023913960400191505060405180910390fd5b670de0b6b3a7640000611a916006546001600085815260200190815260200160002060010154612738565b81611a9857fe5b046001600083815260200190815260200160002060010181905550611ad142600760069054906101000a900465ffffffffffff1661265c565b60016000838152602001908152602001600020600201601a6101000a81548165ffffffffffff021916908365ffffffffffff160217905550807f10a109258779eb298071adf16637b95f8d7cf00e49595711da10eeb90e6e8e9460016000848152602001908152602001600020600201601a9054906101000a900465ffffffffffff16604051808265ffffffffffff16815260200191505060405180910390a250565b600760009054906101000a900465ffffffffffff1681565b60055481565b60016000803373ffffffffffffffffffffffffffffffffffffffff1673ffffffffffffffffffffffffffffffffffffffff1681526020019081526020016000205414611c29576040517f08c379a00000000000000000000000000000000000000000000000000000000081526004018080602001828103825260278152602001806128cd6027913960400191505060405180910390fd5b7f6269644465637265617365000000000000000000000000000000000000000000821415611c5d5780600581905550611d89565b7f616d6f756e74536f6c64496e6372656173650000000000000000000000000000821415611c915780600681905550611d88565b7f6269644475726174696f6e000000000000000000000000000000000000000000821415611ce35780600760006101000a81548165ffffffffffff021916908365ffffffffffff160217905550611d87565b7f746f74616c41756374696f6e4c656e6774680000000000000000000000000000821415611d355780600760066101000a81548165ffffffffffff021916908365ffffffffffff160217905550611d86565b6040517f08c379a000000000000000000000000000000000000000000000000000000000815260040180806020018281038252602a815260200180612859602a913960400191505060405180910390fd5b5b5b5b7fac7c5c1afaef770ec56ac6268cd3f2fbb1035858ead2601d6553157c33036c3a8282604051808381526020018281526020019250505060405180910390a15050565b6001600a5414611e27576040517f08c379a000000000000000000000000000000000000000000000000000000000815260040180806020018281038252602581526020018061298b6025913960400191505060405180910390fd5b600073ffffffffffffffffffffffffffffffffffffffff166001600085815260200190815260200160002060020160009054906101000a900473ffffffffffffffffffffffffffffffffffffffff1673ffffffffffffffffffffffffffffffffffffffff161415611ee3576040517f08c379a00000000000000000000000000000000000000000000000000000000081526004018080602001828103825260248152602001806129d46024913960400191505060405180910390fd5b426001600085815260200190815260200160002060020160149054906101000a900465ffffffffffff1665ffffffffffff161180611f51575060006001600085815260200190815260200160002060020160149054906101000a900465ffffffffffff1665ffffffffffff16145b611fa6576040517f08c379a00000000000000000000000000000000000000000000000000000000081526004018080602001828103825260248152602001806129b06024913960400191505060405180910390fd5b4260016000858152602001908152602001600020600201601a9054906101000a900465ffffffffffff1665ffffffffffff161161202e576040517f08c379a00000000000000000000000000000000000000000000000000000000081526004018080602001828103825260288152602001806127ea6028913960400191505060405180910390fd5b6001600084815260200190815260200160002060000154811461209c576040517f08c379a00000000000000000000000000000000000000000000000000000000081526004018080602001828103825260218152602001806128126021913960400191505060405180910390fd5b6001600084815260200190815260200160002060010154821061210a576040517f08c379a000000000000000000000000000000000000000000000000000000000815260040180806020018281038252602881526020018061293e6028913960400191505060405180910390fd5b6121326001600085815260200190815260200160002060010154670de0b6b3a7640000612738565b61213e60055484612738565b1115612195576040517f08c379a00000000000000000000000000000000000000000000000000000000081526004018080602001828103825260268152602001806128836026913960400191505060405180910390fd5b600260009054906101000a900473ffffffffffffffffffffffffffffffffffffffff1673ffffffffffffffffffffffffffffffffffffffff1663efabcadc336001600087815260200190815260200160002060020160009054906101000a900473ffffffffffffffffffffffffffffffffffffffff16846040518463ffffffff1660e01b8152600401808473ffffffffffffffffffffffffffffffffffffffff1673ffffffffffffffffffffffffffffffffffffffff1681526020018373ffffffffffffffffffffffffffffffffffffffff1673ffffffffffffffffffffffffffffffffffffffff1681526020018281526020019350505050600060405180830381600087803b1580156122a857600080fd5b505af11580156122bc573d6000803e3d6000fd5b5050505060006001600085815260200190815260200160002060020160149054906101000a900465ffffffffffff1665ffffffffffff1614156124625760006001600085815260200190815260200160002060020160009054906101000a900473ffffffffffffffffffffffffffffffffffffffff1673ffffffffffffffffffffffffffffffffffffffff16630f44d6bd6040518163ffffffff1660e01b8152600401602060405180830381600087803b15801561237957600080fd5b505af115801561238d573d6000803e3d6000fd5b505050506040513d60208110156123a357600080fd5b810190808051906020019092919050505090506001600085815260200190815260200160002060020160009054906101000a900473ffffffffffffffffffffffffffffffffffffffff1673ffffffffffffffffffffffffffffffffffffffff16633dc4ab1d61241284846127cd565b6040518263ffffffff1660e01b815260040180828152602001915050600060405180830381600087803b15801561244857600080fd5b505af115801561245c573d6000803e3d6000fd5b50505050505b336001600085815260200190815260200160002060020160006101000a81548173ffffffffffffffffffffffffffffffffffffffff021916908373ffffffffffffffffffffffffffffffffffffffff1602179055508160016000858152602001908152602001600020600101819055506124f042600760009054906101000a900465ffffffffffff1661265c565b6001600085815260200190815260200160002060020160146101000a81548165ffffffffffff021916908365ffffffffffff160217905550827f8c63feacc784a7f735e454365ba433f17d17293b02c57d98dad113977dbf0f133384846001600089815260200190815260200160002060020160149054906101000a900465ffffffffffff16604051808573ffffffffffffffffffffffffffffffffffffffff1673ffffffffffffffffffffffffffffffffffffffff1681526020018481526020018381526020018265ffffffffffff16815260200194505050505060405180910390a2505050565b6000828284039150811115612656576040517f08c379a000000000000000000000000000000000000000000000000000000000815260040180806020018281038252601e8152602001807f4465627441756374696f6e486f7573652f7375622d756e646572666c6f77000081525060200191505060405180910390fd5b92915050565b60008265ffffffffffff1682840191508165ffffffffffff1610156126cc576040517f08c379a00000000000000000000000000000000000000000000000000000000081526004018080602001828103825260248152602001806128a96024913960400191505060405180910390fd5b92915050565b6000828284019150811015612732576040517f08c379a00000000000000000000000000000000000000000000000000000000081526004018080602001828103825260258152602001806129666025913960400191505060405180910390fd5b92915050565b600080821480612755575082828385029250828161275257fe5b04145b6127c7576040517f08c379a000000000000000000000000000000000000000000000000000000000815260040180806020018281038252601d8152602001807f4465627441756374696f6e486f7573652f6d756c2d6f766572666c6f7700000081525060200191505060405180910390fd5b92915050565b6000818311156127df578190506127e3565b8290505b9291505056fe4465627441756374696f6e486f7573652f61756374696f6e2d616c72656164792d657870697265644465627441756374696f6e486f7573652f6e6f742d6d61746368696e672d6269644465627441756374696f6e486f7573652f61756374696f6e2d6e657665722d737461727465644465627441756374696f6e486f7573652f6d6f646966792d756e7265636f676e697a65642d706172616d4465627441756374696f6e486f7573652f696e73756666696369656e742d64656372656173654465627441756374696f6e486f7573652f6164642d75696e7434382d6f766572666c6f774465627441756374696f6e486f7573652f6163636f756e742d6e6f742d617574686f72697a65644465627441756374696f6e486f7573652f636f6e74726163742d7374696c6c2d656e61626c65644465627441756374696f6e486f7573652f6269642d616c72656164792d706c616365644465627441756374696f6e486f7573652f616d6f756e742d626f756768742d6e6f742d6c6f7765724465627441756374696f6e486f7573652f6164642d75696e743235362d6f766572666c6f774465627441756374696f6e486f7573652f636f6e74726163742d6e6f742d656e61626c65644465627441756374696f6e486f7573652f6269642d616c72656164792d657870697265644465627441756374696f6e486f7573652f686967682d6269646465722d6e6f742d736574a264697066735822122081198e8ebc0ab60b9645da6f1f091a5c173310130a3e14e22a3c60ef1325b34f64736f6c63430006070033",
  "immutableReferences": {},
  "source": "/// DebtAuctionHouse.sol\n\n// Copyright (C) 2018 Rain <rainbreak@riseup.net>\n//\n// This program is free software: you can redistribute it and/or modify\n// it under the terms of the GNU Affero General Public License as published by\n// the Free Software Foundation, either version 3 of the License, or\n// (at your option) any later version.\n//\n// This program is distributed in the hope that it will be useful,\n// but WITHOUT ANY WARRANTY; without even the implied warranty of\n// MERCHANTABILITY or FITNESS FOR A PARTICULAR PURPOSE.  See the\n// GNU Affero General Public License for more details.\n//\n// You should have received a copy of the GNU Affero General Public License\n// along with this program.  If not, see <https://www.gnu.org/licenses/>.\n\npragma solidity 0.6.7;\n\nabstract contract SAFEEngineLike {\n    function transferInternalCoins(address,address,uint256) virtual external;\n    function createUnbackedDebt(address,address,uint256) virtual external;\n}\nabstract contract TokenLike {\n    function mint(address,uint256) virtual external;\n}\nabstract contract AccountingEngineLike {\n    function totalOnAuctionDebt() virtual public returns (uint256);\n    function cancelAuctionedDebtWithSurplus(uint256) virtual external;\n}\n\n/*\n   This thing creates protocol tokens on demand in return for system coins\n*/\n\ncontract DebtAuctionHouse {\n    // --- Auth ---\n    mapping (address => uint256) public authorizedAccounts;\n    /**\n     * @notice Add auth to an account\n     * @param account Account to add auth to\n     */\n    function addAuthorization(address account) external isAuthorized {\n        authorizedAccounts[account] = 1;\n        emit AddAuthorization(account);\n    }\n    /**\n     * @notice Remove auth from an account\n     * @param account Account to remove auth from\n     */\n    function removeAuthorization(address account) external isAuthorized {\n        authorizedAccounts[account] = 0;\n        emit RemoveAuthorization(account);\n    }\n    /**\n    * @notice Checks whether msg.sender can call an authed function\n    **/\n    modifier isAuthorized {\n        require(authorizedAccounts[msg.sender] == 1, \"DebtAuctionHouse/account-not-authorized\");\n        _;\n    }\n\n    // --- Data ---\n    struct Bid {\n        // Bid size\n        uint256 bidAmount;                                                        // [rad]\n        // How many protocol tokens are sold in an auction\n        uint256 amountToSell;                                                     // [wad]\n        // Who the high bidder is\n        address highBidder;\n        // When the latest bid expires and the auction can be settled\n        uint48  bidExpiry;                                                        // [unix epoch time]\n        // Hard deadline for the auction after which no more bids can be placed\n        uint48  auctionDeadline;                                                  // [unix epoch time]\n    }\n\n    // Bid data for each separate auction\n    mapping (uint256 => Bid) public bids;\n\n    // SAFE database\n    SAFEEngineLike public safeEngine;\n    // Protocol token address\n    TokenLike public protocolToken;\n    // Accounting engine\n    address public accountingEngine;\n\n    uint256  constant ONE = 1.00E18;                                              // [wad]\n    // Minimum bid increase compared to the last bid in order to take the new one in consideration\n    uint256  public   bidDecrease = 1.05E18;                                      // [wad]\n    // Increase in protocol tokens sold in case an auction is restarted\n    uint256  public   amountSoldIncrease = 1.50E18;                               // [wad]\n    // How long the auction lasts after a new bid is submitted\n    uint48   public   bidDuration = 3 hours;                                      // [seconds]\n    // Total length of the auction\n    uint48   public   totalAuctionLength = 2 days;                                // [seconds]\n    // Number of auctions started up until now\n    uint256  public   auctionsStarted = 0;\n    // Accumulator for all debt auctions currently not settled\n    uint256  public   activeDebtAuctions;\n    uint256  public   contractEnabled;\n\n    bytes32 public constant AUCTION_HOUSE_TYPE = bytes32(\"DEBT\");\n\n    // --- Events ---\n    event AddAuthorization(address account);\n    event RemoveAuthorization(address account);\n    event StartAuction(\n      uint256 indexed id,\n      uint256 auctionsStarted,\n      uint256 amountToSell,\n      uint256 initialBid,\n      address indexed incomeReceiver,\n      uint256 indexed auctionDeadline,\n      uint256 activeDebtAuctions\n    );\n    event ModifyParameters(bytes32 parameter, uint256 data);\n    event ModifyParameters(bytes32 parameter, address data);\n    event RestartAuction(uint256 indexed id, uint256 auctionDeadline);\n    event DecreaseSoldAmount(uint256 indexed id, address highBidder, uint256 amountToBuy, uint256 bid, uint256 bidExpiry);\n    event SettleAuction(uint256 indexed id, uint256 activeDebtAuctions);\n    event TerminateAuctionPrematurely(uint256 indexed id, address sender, address highBidder, uint256 bidAmount, uint256 activeDebtAuctions);\n    event DisableContract(address sender);\n\n    // --- Init ---\n    constructor(address safeEngine_, address protocolToken_) public {\n        authorizedAccounts[msg.sender] = 1;\n        safeEngine = SAFEEngineLike(safeEngine_);\n        protocolToken = TokenLike(protocolToken_);\n        contractEnabled = 1;\n        emit AddAuthorization(msg.sender);\n    }\n\n    // --- Math ---\n    function addUint48(uint48 x, uint48 y) internal pure returns (uint48 z) {\n        require((z = x + y) >= x, \"DebtAuctionHouse/add-uint48-overflow\");\n    }\n    function addUint256(uint256 x, uint256 y) internal pure returns (uint256 z) {\n        require((z = x + y) >= x, \"DebtAuctionHouse/add-uint256-overflow\");\n    }\n    function subtract(uint256 x, uint256 y) internal pure returns (uint256 z) {\n        require((z = x - y) <= x, \"DebtAuctionHouse/sub-underflow\");\n    }\n    function multiply(uint256 x, uint256 y) internal pure returns (uint256 z) {\n        require(y == 0 || (z = x * y) / y == x, \"DebtAuctionHouse/mul-overflow\");\n    }\n    function minimum(uint256 x, uint256 y) internal pure returns (uint256 z) {\n        if (x > y) { z = y; } else { z = x; }\n    }\n\n    // --- Admin ---\n    /**\n     * @notice Modify an uint256 parameter\n     * @param parameter The name of the parameter modified\n     * @param data New value for the parameter\n     */\n    function modifyParameters(bytes32 parameter, uint256 data) external isAuthorized {\n        if (parameter == \"bidDecrease\") bidDecrease = data;\n        else if (parameter == \"amountSoldIncrease\") amountSoldIncrease = data;\n        else if (parameter == \"bidDuration\") bidDuration = uint48(data);\n        else if (parameter == \"totalAuctionLength\") totalAuctionLength = uint48(data);\n        else revert(\"DebtAuctionHouse/modify-unrecognized-param\");\n        emit ModifyParameters(parameter, data);\n    }\n    /**\n     * @notice Modify an address parameter\n     * @param parameter The name of the oracle contract modified\n     * @param addr New contract address\n     */\n    function modifyParameters(bytes32 parameter, address addr) external isAuthorized {\n        require(contractEnabled == 1, \"DebtAuctionHouse/contract-not-enabled\");\n        if (parameter == \"protocolToken\") protocolToken = TokenLike(addr);\n        else if (parameter == \"accountingEngine\") accountingEngine = addr;\n        else revert(\"DebtAuctionHouse/modify-unrecognized-param\");\n        emit ModifyParameters(parameter, addr);\n    }\n\n    // --- Auction ---\n    /**\n     * @notice Start a new debt auction\n     * @param incomeReceiver Who receives the auction proceeds\n     * @param amountToSell Amount of protocol tokens to sell (wad)\n     * @param initialBid Initial bid size (rad)\n     */\n    function startAuction(\n        address incomeReceiver,\n        uint256 amountToSell,\n        uint256 initialBid\n    ) external isAuthorized returns (uint256 id) {\n        require(contractEnabled == 1, \"DebtAuctionHouse/contract-not-enabled\");\n        require(auctionsStarted < uint256(-1), \"DebtAuctionHouse/overflow\");\n        id = ++auctionsStarted;\n\n        bids[id].bidAmount = initialBid;\n        bids[id].amountToSell = amountToSell;\n        bids[id].highBidder = incomeReceiver;\n        bids[id].auctionDeadline = addUint48(uint48(now), totalAuctionLength);\n\n        activeDebtAuctions = addUint256(activeDebtAuctions, 1);\n\n        emit StartAuction(id, auctionsStarted, amountToSell, initialBid, incomeReceiver, bids[id].auctionDeadline, activeDebtAuctions);\n    }\n    /**\n     * @notice Restart an auction if no bids were submitted for it\n     * @param id ID of the auction to restart\n     */\n    function restartAuction(uint256 id) external {\n        require(id <= auctionsStarted, \"DebtAuctionHouse/auction-never-started\");\n        require(bids[id].auctionDeadline < now, \"DebtAuctionHouse/not-finished\");\n        require(bids[id].bidExpiry == 0, \"DebtAuctionHouse/bid-already-placed\");\n        bids[id].amountToSell = multiply(amountSoldIncrease, bids[id].amountToSell) / ONE;\n        bids[id].auctionDeadline = addUint48(uint48(now), totalAuctionLength);\n        emit RestartAuction(id, bids[id].auctionDeadline);\n    }\n    /**\n     * @notice Decrease the protocol token amount you're willing to receive in\n     *         exchange for providing the same amount of system coins being raised by the auction\n     * @param id ID of the auction for which you want to submit a new bid\n     * @param amountToBuy Amount of protocol tokens to buy (must be smaller than the previous proposed amount) (wad)\n     * @param bid New system coin bid (must always equal the total amount raised by the auction) (rad)\n     */\n    function decreaseSoldAmount(uint256 id, uint256 amountToBuy, uint256 bid) external {\n        require(contractEnabled == 1, \"DebtAuctionHouse/contract-not-enabled\");\n        require(bids[id].highBidder != address(0), \"DebtAuctionHouse/high-bidder-not-set\");\n        require(bids[id].bidExpiry > now || bids[id].bidExpiry == 0, \"DebtAuctionHouse/bid-already-expired\");\n        require(bids[id].auctionDeadline > now, \"DebtAuctionHouse/auction-already-expired\");\n\n        require(bid == bids[id].bidAmount, \"DebtAuctionHouse/not-matching-bid\");\n        require(amountToBuy <  bids[id].amountToSell, \"DebtAuctionHouse/amount-bought-not-lower\");\n        require(multiply(bidDecrease, amountToBuy) <= multiply(bids[id].amountToSell, ONE), \"DebtAuctionHouse/insufficient-decrease\");\n\n        safeEngine.transferInternalCoins(msg.sender, bids[id].highBidder, bid);\n\n        // on first bid submitted, clear as much totalOnAuctionDebt as possible\n        if (bids[id].bidExpiry == 0) {\n            uint256 totalOnAuctionDebt = AccountingEngineLike(bids[id].highBidder).totalOnAuctionDebt();\n            AccountingEngineLike(bids[id].highBidder).cancelAuctionedDebtWithSurplus(minimum(bid, totalOnAuctionDebt));\n        }\n\n        bids[id].highBidder = msg.sender;\n        bids[id].amountToSell = amountToBuy;\n        bids[id].bidExpiry = addUint48(uint48(now), bidDuration);\n\n        emit DecreaseSoldAmount(id, msg.sender, amountToBuy, bid, bids[id].bidExpiry);\n    }\n    /**\n     * @notice Settle/finish an auction\n     * @param id ID of the auction to settle\n     */\n    function settleAuction(uint256 id) external {\n        require(contractEnabled == 1, \"DebtAuctionHouse/not-live\");\n        require(bids[id].bidExpiry != 0 && (bids[id].bidExpiry < now || bids[id].auctionDeadline < now), \"DebtAuctionHouse/not-finished\");\n        protocolToken.mint(bids[id].highBidder, bids[id].amountToSell);\n        activeDebtAuctions = subtract(activeDebtAuctions, 1);\n        delete bids[id];\n        emit SettleAuction(id, activeDebtAuctions);\n    }\n\n    // --- Shutdown ---\n    /**\n    * @notice Disable the auction house (usually called by the AccountingEngine)\n    */\n    function disableContract() external isAuthorized {\n        contractEnabled    = 0;\n        accountingEngine   = msg.sender;\n        activeDebtAuctions = 0;\n        emit DisableContract(msg.sender);\n    }\n    /**\n     * @notice Terminate an auction prematurely\n     * @param id ID of the auction to terminate\n     */\n    function terminateAuctionPrematurely(uint256 id) external {\n        require(contractEnabled == 0, \"DebtAuctionHouse/contract-still-enabled\");\n        require(bids[id].highBidder != address(0), \"DebtAuctionHouse/high-bidder-not-set\");\n        safeEngine.createUnbackedDebt(accountingEngine, bids[id].highBidder, bids[id].bidAmount);\n        emit TerminateAuctionPrematurely(id, msg.sender, bids[id].highBidder, bids[id].bidAmount, activeDebtAuctions);\n        delete bids[id];\n    }\n}\n",
  "sourcePath": "/Users/dhruv/Documents/tao/geb/B-RAI_contracts/contracts/DebtAuctionHouse.sol",
  "compiler": {
    "name": "solc",
    "version": "0.6.7+commit.b8d736ae.Emscripten.clang"
  },
  "schemaVersion": "3.4.1",
  "updatedAt": "2021-07-20T23:25:31.775Z",
  "devdoc": {
    "methods": {
      "addAuthorization(address)": {
        "params": {
          "account": "Account to add auth to"
        }
      },
      "decreaseSoldAmount(uint256,uint256,uint256)": {
        "params": {
          "amountToBuy": "Amount of protocol tokens to buy (must be smaller than the previous proposed amount) (wad)",
          "bid": "New system coin bid (must always equal the total amount raised by the auction) (rad)",
          "id": "ID of the auction for which you want to submit a new bid"
        }
      },
      "modifyParameters(bytes32,address)": {
        "params": {
          "addr": "New contract address",
          "parameter": "The name of the oracle contract modified"
        }
      },
      "modifyParameters(bytes32,uint256)": {
        "params": {
          "data": "New value for the parameter",
          "parameter": "The name of the parameter modified"
        }
      },
      "removeAuthorization(address)": {
        "params": {
          "account": "Account to remove auth from"
        }
      },
      "restartAuction(uint256)": {
        "params": {
          "id": "ID of the auction to restart"
        }
      },
      "settleAuction(uint256)": {
        "params": {
          "id": "ID of the auction to settle"
        }
      },
      "startAuction(address,uint256,uint256)": {
        "params": {
          "amountToSell": "Amount of protocol tokens to sell (wad)",
          "incomeReceiver": "Who receives the auction proceeds",
          "initialBid": "Initial bid size (rad)"
        }
      },
      "terminateAuctionPrematurely(uint256)": {
        "params": {
          "id": "ID of the auction to terminate"
        }
      }
    }
  },
  "userdoc": {
    "methods": {
      "addAuthorization(address)": {
        "notice": "Add auth to an account"
      },
      "decreaseSoldAmount(uint256,uint256,uint256)": {
        "notice": "Decrease the protocol token amount you're willing to receive in        exchange for providing the same amount of system coins being raised by the auction"
      },
      "disableContract()": {
        "notice": "Disable the auction house (usually called by the AccountingEngine)"
      },
      "modifyParameters(bytes32,address)": {
        "notice": "Modify an address parameter"
      },
      "modifyParameters(bytes32,uint256)": {
        "notice": "Modify an uint256 parameter"
      },
      "removeAuthorization(address)": {
        "notice": "Remove auth from an account"
      },
      "restartAuction(uint256)": {
        "notice": "Restart an auction if no bids were submitted for it"
      },
      "settleAuction(uint256)": {
        "notice": "Settle/finish an auction"
      },
      "startAuction(address,uint256,uint256)": {
        "notice": "Start a new debt auction"
      },
      "terminateAuctionPrematurely(uint256)": {
        "notice": "Terminate an auction prematurely"
      }
    }
  }
}