{
  "contractName": "LiquidationEngine",
  "abi": [
    {
      "inputs": [
        {
          "internalType": "address",
          "name": "safeEngine_",
          "type": "address"
        }
      ],
      "stateMutability": "nonpayable",
      "type": "constructor"
    },
    {
      "anonymous": false,
      "inputs": [
        {
          "indexed": false,
          "internalType": "address",
          "name": "account",
          "type": "address"
        }
      ],
      "name": "AddAuthorization",
      "type": "event"
    },
    {
      "anonymous": false,
      "inputs": [
        {
          "indexed": false,
          "internalType": "address",
          "name": "saviour",
          "type": "address"
        }
      ],
      "name": "ConnectSAFESaviour",
      "type": "event"
    },
    {
      "anonymous": false,
      "inputs": [],
      "name": "DisableContract",
      "type": "event"
    },
    {
      "anonymous": false,
      "inputs": [
        {
          "indexed": false,
          "internalType": "address",
          "name": "saviour",
          "type": "address"
        }
      ],
      "name": "DisconnectSAFESaviour",
      "type": "event"
    },
    {
      "anonymous": false,
      "inputs": [
        {
          "indexed": false,
          "internalType": "bytes",
          "name": "failReason",
          "type": "bytes"
        }
      ],
      "name": "FailedSAFESave",
      "type": "event"
    },
    {
      "anonymous": false,
      "inputs": [
        {
          "indexed": true,
          "internalType": "bytes32",
          "name": "collateralType",
          "type": "bytes32"
        },
        {
          "indexed": true,
          "internalType": "address",
          "name": "safe",
          "type": "address"
        },
        {
          "indexed": false,
          "internalType": "uint256",
          "name": "collateralAmount",
          "type": "uint256"
        },
        {
          "indexed": false,
          "internalType": "uint256",
          "name": "debtAmount",
          "type": "uint256"
        },
        {
          "indexed": false,
          "internalType": "uint256",
          "name": "amountToRaise",
          "type": "uint256"
        },
        {
          "indexed": false,
          "internalType": "address",
          "name": "collateralAuctioneer",
          "type": "address"
        },
        {
          "indexed": false,
          "internalType": "uint256",
          "name": "auctionId",
          "type": "uint256"
        }
      ],
      "name": "Liquidate",
      "type": "event"
    },
    {
      "anonymous": false,
      "inputs": [
        {
          "indexed": false,
          "internalType": "bytes32",
          "name": "parameter",
          "type": "bytes32"
        },
        {
          "indexed": false,
          "internalType": "uint256",
          "name": "data",
          "type": "uint256"
        }
      ],
      "name": "ModifyParameters",
      "type": "event"
    },
    {
      "anonymous": false,
      "inputs": [
        {
          "indexed": false,
          "internalType": "bytes32",
          "name": "parameter",
          "type": "bytes32"
        },
        {
          "indexed": false,
          "internalType": "address",
          "name": "data",
          "type": "address"
        }
      ],
      "name": "ModifyParameters",
      "type": "event"
    },
    {
      "anonymous": false,
      "inputs": [
        {
          "indexed": false,
          "internalType": "bytes32",
          "name": "collateralType",
          "type": "bytes32"
        },
        {
          "indexed": false,
          "internalType": "bytes32",
          "name": "parameter",
          "type": "bytes32"
        },
        {
          "indexed": false,
          "internalType": "uint256",
          "name": "data",
          "type": "uint256"
        }
      ],
      "name": "ModifyParameters",
      "type": "event"
    },
    {
      "anonymous": false,
      "inputs": [
        {
          "indexed": false,
          "internalType": "bytes32",
          "name": "collateralType",
          "type": "bytes32"
        },
        {
          "indexed": false,
          "internalType": "bytes32",
          "name": "parameter",
          "type": "bytes32"
        },
        {
          "indexed": false,
          "internalType": "address",
          "name": "data",
          "type": "address"
        }
      ],
      "name": "ModifyParameters",
      "type": "event"
    },
    {
      "anonymous": false,
      "inputs": [
        {
          "indexed": true,
          "internalType": "bytes32",
          "name": "collateralType",
          "type": "bytes32"
        },
        {
          "indexed": true,
          "internalType": "address",
          "name": "safe",
          "type": "address"
        },
        {
          "indexed": false,
          "internalType": "address",
          "name": "saviour",
          "type": "address"
        }
      ],
      "name": "ProtectSAFE",
      "type": "event"
    },
    {
      "anonymous": false,
      "inputs": [
        {
          "indexed": false,
          "internalType": "address",
          "name": "account",
          "type": "address"
        }
      ],
      "name": "RemoveAuthorization",
      "type": "event"
    },
    {
      "anonymous": false,
      "inputs": [
        {
          "indexed": true,
          "internalType": "bytes32",
          "name": "collateralType",
          "type": "bytes32"
        },
        {
          "indexed": true,
          "internalType": "address",
          "name": "safe",
          "type": "address"
        },
        {
          "indexed": false,
          "internalType": "uint256",
          "name": "collateralAddedOrDebtRepaid",
          "type": "uint256"
        }
      ],
      "name": "SaveSAFE",
      "type": "event"
    },
    {
      "anonymous": false,
      "inputs": [
        {
          "indexed": false,
          "internalType": "uint256",
          "name": "currentOnAuctionSystemCoins",
          "type": "uint256"
        }
      ],
      "name": "UpdateCurrentOnAuctionSystemCoins",
      "type": "event"
    },
    {
      "inputs": [],
      "name": "accountingEngine",
      "outputs": [
        {
          "internalType": "contract AccountingEngineLike",
          "name": "",
          "type": "address"
        }
      ],
      "stateMutability": "view",
      "type": "function",
      "constant": true
    },
    {
      "inputs": [
        {
          "internalType": "address",
          "name": "",
          "type": "address"
        }
      ],
      "name": "authorizedAccounts",
      "outputs": [
        {
          "internalType": "uint256",
          "name": "",
          "type": "uint256"
        }
      ],
      "stateMutability": "view",
      "type": "function",
      "constant": true
    },
    {
      "inputs": [
        {
          "internalType": "bytes32",
          "name": "",
          "type": "bytes32"
        },
        {
          "internalType": "address",
          "name": "",
          "type": "address"
        }
      ],
      "name": "chosenSAFESaviour",
      "outputs": [
        {
          "internalType": "address",
          "name": "",
          "type": "address"
        }
      ],
      "stateMutability": "view",
      "type": "function",
      "constant": true
    },
    {
      "inputs": [
        {
          "internalType": "bytes32",
          "name": "",
          "type": "bytes32"
        }
      ],
      "name": "collateralTypes",
      "outputs": [
        {
          "internalType": "address",
          "name": "collateralAuctionHouse",
          "type": "address"
        },
        {
          "internalType": "uint256",
          "name": "liquidationPenalty",
          "type": "uint256"
        },
        {
          "internalType": "uint256",
          "name": "liquidationQuantity",
          "type": "uint256"
        }
      ],
      "stateMutability": "view",
      "type": "function",
      "constant": true
    },
    {
      "inputs": [],
      "name": "contractEnabled",
      "outputs": [
        {
          "internalType": "uint256",
          "name": "",
          "type": "uint256"
        }
      ],
      "stateMutability": "view",
      "type": "function",
      "constant": true
    },
    {
      "inputs": [],
      "name": "currentOnAuctionSystemCoins",
      "outputs": [
        {
          "internalType": "uint256",
          "name": "",
          "type": "uint256"
        }
      ],
      "stateMutability": "view",
      "type": "function",
      "constant": true
    },
    {
      "inputs": [
        {
          "internalType": "bytes32",
          "name": "",
          "type": "bytes32"
        },
        {
          "internalType": "address",
          "name": "",
          "type": "address"
        }
      ],
      "name": "mutex",
      "outputs": [
        {
          "internalType": "uint8",
          "name": "",
          "type": "uint8"
        }
      ],
      "stateMutability": "view",
      "type": "function",
      "constant": true
    },
    {
      "inputs": [],
      "name": "onAuctionSystemCoinLimit",
      "outputs": [
        {
          "internalType": "uint256",
          "name": "",
          "type": "uint256"
        }
      ],
      "stateMutability": "view",
      "type": "function",
      "constant": true
    },
    {
      "inputs": [],
      "name": "safeEngine",
      "outputs": [
        {
          "internalType": "contract SAFEEngineLike",
          "name": "",
          "type": "address"
        }
      ],
      "stateMutability": "view",
      "type": "function",
      "constant": true
    },
    {
      "inputs": [
        {
          "internalType": "address",
          "name": "",
          "type": "address"
        }
      ],
      "name": "safeSaviours",
      "outputs": [
        {
          "internalType": "uint256",
          "name": "",
          "type": "uint256"
        }
      ],
      "stateMutability": "view",
      "type": "function",
      "constant": true
    },
    {
      "inputs": [
        {
          "internalType": "address",
          "name": "account",
          "type": "address"
        }
      ],
      "name": "addAuthorization",
      "outputs": [],
      "stateMutability": "nonpayable",
      "type": "function"
    },
    {
      "inputs": [
        {
          "internalType": "address",
          "name": "account",
          "type": "address"
        }
      ],
      "name": "removeAuthorization",
      "outputs": [],
      "stateMutability": "nonpayable",
      "type": "function"
    },
    {
      "inputs": [
        {
          "internalType": "address",
          "name": "saviour",
          "type": "address"
        }
      ],
      "name": "connectSAFESaviour",
      "outputs": [],
      "stateMutability": "nonpayable",
      "type": "function"
    },
    {
      "inputs": [
        {
          "internalType": "address",
          "name": "saviour",
          "type": "address"
        }
      ],
      "name": "disconnectSAFESaviour",
      "outputs": [],
      "stateMutability": "nonpayable",
      "type": "function"
    },
    {
      "inputs": [
        {
          "internalType": "bytes32",
          "name": "collateralType",
          "type": "bytes32"
        },
        {
          "internalType": "bytes32",
          "name": "parameter",
          "type": "bytes32"
        },
        {
          "internalType": "address",
          "name": "data",
          "type": "address"
        }
      ],
      "name": "modifyParameters",
      "outputs": [],
      "stateMutability": "nonpayable",
      "type": "function"
    },
    {
      "inputs": [
        {
          "internalType": "bytes32",
          "name": "parameter",
          "type": "bytes32"
        },
        {
          "internalType": "address",
          "name": "data",
          "type": "address"
        }
      ],
      "name": "modifyParameters",
      "outputs": [],
      "stateMutability": "nonpayable",
      "type": "function"
    },
    {
      "inputs": [
        {
          "internalType": "bytes32",
          "name": "collateralType",
          "type": "bytes32"
        },
        {
          "internalType": "bytes32",
          "name": "parameter",
          "type": "bytes32"
        },
        {
          "internalType": "uint256",
          "name": "data",
          "type": "uint256"
        }
      ],
      "name": "modifyParameters",
      "outputs": [],
      "stateMutability": "nonpayable",
      "type": "function"
    },
    {
      "inputs": [
        {
          "internalType": "bytes32",
          "name": "parameter",
          "type": "bytes32"
        },
        {
          "internalType": "uint256",
          "name": "data",
          "type": "uint256"
        }
      ],
      "name": "modifyParameters",
      "outputs": [],
      "stateMutability": "nonpayable",
      "type": "function"
    },
    {
      "inputs": [],
      "name": "disableContract",
      "outputs": [],
      "stateMutability": "nonpayable",
      "type": "function"
    },
    {
      "inputs": [
        {
          "internalType": "bytes32",
          "name": "collateralType",
          "type": "bytes32"
        },
        {
          "internalType": "address",
          "name": "safe",
          "type": "address"
        },
        {
          "internalType": "address",
          "name": "saviour",
          "type": "address"
        }
      ],
      "name": "protectSAFE",
      "outputs": [],
      "stateMutability": "nonpayable",
      "type": "function"
    },
    {
      "inputs": [
        {
          "internalType": "bytes32",
          "name": "collateralType",
          "type": "bytes32"
        },
        {
          "internalType": "address",
          "name": "safe",
          "type": "address"
        }
      ],
      "name": "liquidateSAFE",
      "outputs": [
        {
          "internalType": "uint256",
          "name": "auctionId",
          "type": "uint256"
        }
      ],
      "stateMutability": "nonpayable",
      "type": "function"
    },
    {
      "inputs": [
        {
          "internalType": "uint256",
          "name": "rad",
          "type": "uint256"
        }
      ],
      "name": "removeCoinsFromAuction",
      "outputs": [],
      "stateMutability": "nonpayable",
      "type": "function"
    },
    {
      "inputs": [
        {
          "internalType": "bytes32",
          "name": "collateralType",
          "type": "bytes32"
        },
        {
          "internalType": "address",
          "name": "safe",
          "type": "address"
        }
      ],
      "name": "getLimitAdjustedDebtToCover",
      "outputs": [
        {
          "internalType": "uint256",
          "name": "",
          "type": "uint256"
        }
      ],
      "stateMutability": "view",
      "type": "function",
      "constant": true
    }
  ],
  "bytecode": "0x608060405234801561001057600080fd5b50604051613ae0380380613ae08339818101604052602081101561003357600080fd5b810190808051906020019092919050505060016000803373ffffffffffffffffffffffffffffffffffffffff1673ffffffffffffffffffffffffffffffffffffffff1681526020019081526020016000208190555080600860006101000a81548173ffffffffffffffffffffffffffffffffffffffff021916908373ffffffffffffffffffffffffffffffffffffffff1602179055507fffffffffffffffffffffffffffffffffffffffffffffffffffffffffffffffff60058190555060016007819055507f599a298163e1678bb1c676052a8930bf0b8a1261ed6e01b8a2391e55f700010233604051808273ffffffffffffffffffffffffffffffffffffffff1673ffffffffffffffffffffffffffffffffffffffff16815260200191505060405180910390a17fac7c5c1afaef770ec56ac6268cd3f2fbb1035858ead2601d6553157c33036c3a7fffffffffffffffffffffffffffffffffffffffffffffffffffffffffffffffff60405180807f6f6e41756374696f6e53797374656d436f696e4c696d6974000000000000000081525060200182815260200191505060405180910390a1506138f6806101ea6000396000f3fe608060405234801561001057600080fd5b506004361061014d5760003560e01c80634faeff1d116100c357806394f3f81d1161007c57806394f3f81d1461063457806395ffa80214610678578063961d45c4146106bc578063d07900bb14610706578063d4b9311d14610782578063fe4f5890146107c45761014d565b80634faeff1d1461049e578063513a3dba146104e25780635626da241461053a5780636614f0101461059257806367aea313146105e0578063894ba8331461062a5761014d565b806335b281531161011557806335b28153146102e65780633896a3841461032a5780633c7999571461039857806341b3a0d9146103b6578063456b8181146103d45780634c28be571461043c5761014d565b8063049c92791461015257806324ba5884146101b45780632c20afc41461020c57806332d0eefd1461029a578063332bef11146102b8575b600080fd5b61019e6004803603604081101561016857600080fd5b8101908080359060200190929190803573ffffffffffffffffffffffffffffffffffffffff1690602001909291905050506107fc565b6040518082815260200191505060405180910390f35b6101f6600480360360208110156101ca57600080fd5b81019080803573ffffffffffffffffffffffffffffffffffffffff169060200190929190505050610ac1565b6040518082815260200191505060405180910390f35b6102586004803603604081101561022257600080fd5b8101908080359060200190929190803573ffffffffffffffffffffffffffffffffffffffff169060200190929190505050610ad9565b604051808273ffffffffffffffffffffffffffffffffffffffff1673ffffffffffffffffffffffffffffffffffffffff16815260200191505060405180910390f35b6102a2610b1b565b6040518082815260200191505060405180910390f35b6102e4600480360360208110156102ce57600080fd5b8101908080359060200190929190505050610b21565b005b610328600480360360208110156102fc57600080fd5b81019080803573ffffffffffffffffffffffffffffffffffffffff169060200190929190505050610c06565b005b6103966004803603606081101561034057600080fd5b8101908080359060200190929190803573ffffffffffffffffffffffffffffffffffffffff169060200190929190803573ffffffffffffffffffffffffffffffffffffffff169060200190929190505050610d47565b005b6103a0611087565b6040518082815260200191505060405180910390f35b6103be61108d565b6040518082815260200191505060405180910390f35b610420600480360360408110156103ea57600080fd5b8101908080359060200190929190803573ffffffffffffffffffffffffffffffffffffffff169060200190929190505050611093565b604051808260ff1660ff16815260200191505060405180910390f35b6104886004803603604081101561045257600080fd5b8101908080359060200190929190803573ffffffffffffffffffffffffffffffffffffffff1690602001909291905050506110c2565b6040518082815260200191505060405180910390f35b6104e0600480360360208110156104b457600080fd5b81019080803573ffffffffffffffffffffffffffffffffffffffff16906020019092919050505061246b565b005b610538600480360360608110156104f857600080fd5b810190808035906020019092919080359060200190929190803573ffffffffffffffffffffffffffffffffffffffff1690602001909291905050506125ad565b005b61057c6004803603602081101561055057600080fd5b81019080803573ffffffffffffffffffffffffffffffffffffffff169060200190929190505050612937565b6040518082815260200191505060405180910390f35b6105de600480360360408110156105a857600080fd5b8101908080359060200190929190803573ffffffffffffffffffffffffffffffffffffffff16906020019092919050505061294f565b005b6105e8612b14565b604051808273ffffffffffffffffffffffffffffffffffffffff1673ffffffffffffffffffffffffffffffffffffffff16815260200191505060405180910390f35b610632612b3a565b005b6106766004803603602081101561064a57600080fd5b81019080803573ffffffffffffffffffffffffffffffffffffffff169060200190929190505050612c07565b005b6106ba6004803603602081101561068e57600080fd5b81019080803573ffffffffffffffffffffffffffffffffffffffff169060200190929190505050612d48565b005b6106c46130b3565b604051808273ffffffffffffffffffffffffffffffffffffffff1673ffffffffffffffffffffffffffffffffffffffff16815260200191505060405180910390f35b6107326004803603602081101561071c57600080fd5b81019080803590602001909291905050506130d9565b604051808473ffffffffffffffffffffffffffffffffffffffff1673ffffffffffffffffffffffffffffffffffffffff168152602001838152602001828152602001935050505060405180910390f35b6107c26004803603606081101561079857600080fd5b81019080803590602001909291908035906020019092919080359060200190929190505050613123565b005b6107fa600480360360408110156107da57600080fd5b810190808035906020019092919080359060200190929190505050613376565b005b600080600860009054906101000a900473ffffffffffffffffffffffffffffffffffffffff1673ffffffffffffffffffffffffffffffffffffffff1663d07900bb856040518263ffffffff1660e01b81526004018082815260200191505060c06040518083038186803b15801561087257600080fd5b505afa158015610886573d6000803e3d6000fd5b505050506040513d60c081101561089c57600080fd5b8101908080519060200190929190805190602001909291908051906020019092919080519060200190929190805190602001909291908051906020019092919050505050505050915050600080600860009054906101000a900473ffffffffffffffffffffffffffffffffffffffff1673ffffffffffffffffffffffffffffffffffffffff16633d42250487876040518363ffffffff1660e01b8152600401808381526020018273ffffffffffffffffffffffffffffffffffffffff1673ffffffffffffffffffffffffffffffffffffffff16815260200192505050604080518083038186803b15801561098f57600080fd5b505afa1580156109a3573d6000803e3d6000fd5b505050506040513d60408110156109b957600080fd5b810190808051906020019092919080519060200190929190505050915091506109e06136a6565b600260008881526020019081526020016000206040518060600160405290816000820160009054906101000a900473ffffffffffffffffffffffffffffffffffffffff1673ffffffffffffffffffffffffffffffffffffffff1673ffffffffffffffffffffffffffffffffffffffff168152602001600182015481526020016002820154815250509050610ab582826020015186610aa0610a928660400151610a8d6005546006546134d5565b613558565b670de0b6b3a7640000613574565b81610aa757fe5b0481610aaf57fe5b04613558565b94505050505092915050565b60006020528060005260406000206000915090505481565b60036020528160005260406000206020528060005260406000206000915091509054906101000a900473ffffffffffffffffffffffffffffffffffffffff1681565b60055481565b60016000803373ffffffffffffffffffffffffffffffffffffffff1673ffffffffffffffffffffffffffffffffffffffff1681526020019081526020016000205414610bb8576040517f08c379a00000000000000000000000000000000000000000000000000000000081526004018080602001828103825260288152602001806137356028913960400191505060405180910390fd5b610bc4600654826134d5565b6006819055507fe1bbac4c69a9c7825ff4f220089a412e2349521ceba06c7f07c3764522ef04146006546040518082815260200191505060405180910390a150565b60016000803373ffffffffffffffffffffffffffffffffffffffff1673ffffffffffffffffffffffffffffffffffffffff1681526020019081526020016000205414610c9d576040517f08c379a00000000000000000000000000000000000000000000000000000000081526004018080602001828103825260288152602001806137356028913960400191505060405180910390fd5b60016000808373ffffffffffffffffffffffffffffffffffffffff1673ffffffffffffffffffffffffffffffffffffffff168152602001908152602001600020819055507f599a298163e1678bb1c676052a8930bf0b8a1261ed6e01b8a2391e55f700010281604051808273ffffffffffffffffffffffffffffffffffffffff1673ffffffffffffffffffffffffffffffffffffffff16815260200191505060405180910390a150565b600860009054906101000a900473ffffffffffffffffffffffffffffffffffffffff1673ffffffffffffffffffffffffffffffffffffffff166350de215d83336040518363ffffffff1660e01b8152600401808373ffffffffffffffffffffffffffffffffffffffff1673ffffffffffffffffffffffffffffffffffffffff1681526020018273ffffffffffffffffffffffffffffffffffffffff1673ffffffffffffffffffffffffffffffffffffffff1681526020019250505060206040518083038186803b158015610e1a57600080fd5b505afa158015610e2e573d6000803e3d6000fd5b505050506040513d6020811015610e4457600080fd5b8101908080519060200190929190505050610eaa576040517f08c379a00000000000000000000000000000000000000000000000000000000081526004018080602001828103825260248152602001806138726024913960400191505060405180910390fd5b600073ffffffffffffffffffffffffffffffffffffffff168173ffffffffffffffffffffffffffffffffffffffff161480610f23575060018060008373ffffffffffffffffffffffffffffffffffffffff1673ffffffffffffffffffffffffffffffffffffffff16815260200190815260200160002054145b610f78576040517f08c379a00000000000000000000000000000000000000000000000000000000081526004018080602001828103825260288152602001806138216028913960400191505060405180910390fd5b806003600085815260200190815260200160002060008473ffffffffffffffffffffffffffffffffffffffff1673ffffffffffffffffffffffffffffffffffffffff16815260200190815260200160002060006101000a81548173ffffffffffffffffffffffffffffffffffffffff021916908373ffffffffffffffffffffffffffffffffffffffff1602179055508173ffffffffffffffffffffffffffffffffffffffff16837f9c0c3b2f97315fb268638262f83f63de4f645ad9ae8ea84e2182f67e7d28d8f783604051808273ffffffffffffffffffffffffffffffffffffffff1673ffffffffffffffffffffffffffffffffffffffff16815260200191505060405180910390a3505050565b60065481565b60075481565b60046020528160005260406000206020528060005260406000206000915091509054906101000a900460ff1681565b6000806004600085815260200190815260200160002060008473ffffffffffffffffffffffffffffffffffffffff1673ffffffffffffffffffffffffffffffffffffffff16815260200190815260200160002060009054906101000a900460ff1660ff1614611199576040517f08c379a00000000000000000000000000000000000000000000000000000000081526004018080602001828103825260208152602001807f4c69717569646174696f6e456e67696e652f6e6f6e2d6e756c6c2d6d7574657881525060200191505060405180910390fd5b60016004600085815260200190815260200160002060008473ffffffffffffffffffffffffffffffffffffffff1673ffffffffffffffffffffffffffffffffffffffff16815260200190815260200160002060006101000a81548160ff021916908360ff1602179055506000806000600860009054906101000a900473ffffffffffffffffffffffffffffffffffffffff1673ffffffffffffffffffffffffffffffffffffffff1663d07900bb876040518263ffffffff1660e01b81526004018082815260200191505060c06040518083038186803b15801561127b57600080fd5b505afa15801561128f573d6000803e3d6000fd5b505050506040513d60c08110156112a557600080fd5b81019080805190602001909291908051906020019092919080519060200190929190805190602001909291908051906020019092919080519060200190929190505050955095505050935050600080600860009054906101000a900473ffffffffffffffffffffffffffffffffffffffff1673ffffffffffffffffffffffffffffffffffffffff16633d42250489896040518363ffffffff1660e01b8152600401808381526020018273ffffffffffffffffffffffffffffffffffffffff1673ffffffffffffffffffffffffffffffffffffffff16815260200192505050604080518083038186803b15801561139a57600080fd5b505afa1580156113ae573d6000803e3d6000fd5b505050506040513d60408110156113c457600080fd5b8101908080519060200190929190805190602001909291905050509150915060016007541461143e576040517f08c379a00000000000000000000000000000000000000000000000000000000081526004018080602001828103825260268152602001806137fb6026913960400191505060405180910390fd5b61145f6000841161144f8388613574565b6114598587613574565b10613609565b6114b4576040517f08c379a00000000000000000000000000000000000000000000000000000000081526004018080602001828103825260218152602001806137ad6021913960400191505060405180910390fd5b6114d460055460065410856114cd6005546006546134d5565b1015613609565b611529576040517f08c379a00000000000000000000000000000000000000000000000000000000081526004018080602001828103825260278152602001806136de6027913960400191505060405180910390fd5b600073ffffffffffffffffffffffffffffffffffffffff16600360008a815260200190815260200160002060008973ffffffffffffffffffffffffffffffffffffffff1673ffffffffffffffffffffffffffffffffffffffff16815260200190815260200160002060009054906101000a900473ffffffffffffffffffffffffffffffffffffffff1673ffffffffffffffffffffffffffffffffffffffff161415801561168457506001806000600360008c815260200190815260200160002060008b73ffffffffffffffffffffffffffffffffffffffff1673ffffffffffffffffffffffffffffffffffffffff16815260200190815260200160002060009054906101000a900473ffffffffffffffffffffffffffffffffffffffff1673ffffffffffffffffffffffffffffffffffffffff1673ffffffffffffffffffffffffffffffffffffffff16815260200190815260200160002054145b1561193b576003600089815260200190815260200160002060008873ffffffffffffffffffffffffffffffffffffffff1673ffffffffffffffffffffffffffffffffffffffff16815260200190815260200160002060009054906101000a900473ffffffffffffffffffffffffffffffffffffffff1673ffffffffffffffffffffffffffffffffffffffff1663b9b0bb39338a8a6040518463ffffffff1660e01b8152600401808473ffffffffffffffffffffffffffffffffffffffff1673ffffffffffffffffffffffffffffffffffffffff1681526020018381526020018273ffffffffffffffffffffffffffffffffffffffff1673ffffffffffffffffffffffffffffffffffffffff1681526020019350505050606060405180830381600087803b1580156117b457600080fd5b505af19250505080156117fc57506040513d60608110156117d457600080fd5b8101908080519060200190929190805190602001909291908051906020019092919050505060015b6118d4573d806000811461182c576040519150601f19603f3d011682016040523d82523d6000602084013e611831565b606091505b507fe7862113e21c9c96e382110b92dfc08242b5c58f90259305fe30adc0d77e2a43816040518080602001828103825283818151815260200191508051906020019080838360005b83811015611894578082015181840152602081019050611879565b50505050905090810190601f1680156118c15780820380516001836020036101000a031916815260200191505b509250505060405180910390a15061193a565b6118e18360008411613609565b15611936578973ffffffffffffffffffffffffffffffffffffffff168b7f7afee8680e1a5395600115d5fc996ecb20b450ca793815c08c9b19d2dc6663d7846040518082815260200191505060405180910390a35b5050505b5b600080600860009054906101000a900473ffffffffffffffffffffffffffffffffffffffff1673ffffffffffffffffffffffffffffffffffffffff16633d4225048b8b6040518363ffffffff1660e01b8152600401808381526020018273ffffffffffffffffffffffffffffffffffffffff1673ffffffffffffffffffffffffffffffffffffffff16815260200192505050604080518083038186803b1580156119e457600080fd5b505afa1580156119f8573d6000803e3d6000fd5b505050506040513d6040811015611a0e57600080fd5b81019080805190602001909291908051906020019092919050505091509150611a3d8483101584831115613609565b611a92576040517f08c379a00000000000000000000000000000000000000000000000000000000081526004018080602001828103825260308152602001806137056030913960400191505060405180910390fd5b5050600860009054906101000a900473ffffffffffffffffffffffffffffffffffffffff1673ffffffffffffffffffffffffffffffffffffffff1663d07900bb896040518263ffffffff1660e01b81526004018082815260200191505060c06040518083038186803b158015611b0757600080fd5b505afa158015611b1b573d6000803e3d6000fd5b505050506040513d60c0811015611b3157600080fd5b810190808051906020019092919080519060200190929190805190602001909291908051906020019092919080519060200190929190805190602001909291905050509091929394509091925090915090508094508196505050600860009054906101000a900473ffffffffffffffffffffffffffffffffffffffff1673ffffffffffffffffffffffffffffffffffffffff16633d42250489896040518363ffffffff1660e01b8152600401808381526020018273ffffffffffffffffffffffffffffffffffffffff1673ffffffffffffffffffffffffffffffffffffffff16815260200192505050604080518083038186803b158015611c3157600080fd5b505afa158015611c45573d6000803e3d6000fd5b505050506040513d6040811015611c5b57600080fd5b8101908080519060200190929190805190602001909291905050508092508193505050611c9f60008411611c8f8388613574565b611c998587613574565b10613609565b156123f657611cac6136a6565b600260008a81526020019081526020016000206040518060600160405290816000820160009054906101000a900473ffffffffffffffffffffffffffffffffffffffff1673ffffffffffffffffffffffffffffffffffffffff1673ffffffffffffffffffffffffffffffffffffffff1681526020016001820154815260200160028201548152505090506000611d8383836020015189611d6e611d608760400151611d5b6005546006546134d5565b613558565b670de0b6b3a7640000613574565b81611d7557fe5b0481611d7d57fe5b04613558565b905060008111611dfb576040517f08c379a000000000000000000000000000000000000000000000000000000000815260040180806020018281038252601e8152602001807f4c69717569646174696f6e456e67696e652f6e756c6c2d61756374696f6e000081525060200191505060405180910390fd5b611e1c83821487611e15611e0f87866134d5565b8b613574565b1015613616565b611e8e576040517f08c379a000000000000000000000000000000000000000000000000000000000815260040180806020018281038252601c8152602001807f4c69717569646174696f6e456e67696e652f64757374792d736166650000000081525060200191505060405180910390fd5b6000611eac8585611e9f8886613574565b81611ea657fe5b04613558565b905060008111611f07576040517f08c379a00000000000000000000000000000000000000000000000000000000081526004018080602001828103825260298152602001806138496029913960400191505060405180910390fd5b611f577f80000000000000000000000000000000000000000000000000000000000000008211157f8000000000000000000000000000000000000000000000000000000000000000841115613609565b611fac576040517f08c379a000000000000000000000000000000000000000000000000000000000815260040180806020018281038252602d8152602001806137ce602d913960400191505060405180910390fd5b600860009054906101000a900473ffffffffffffffffffffffffffffffffffffffff1673ffffffffffffffffffffffffffffffffffffffff16634e14a9678c8c30600960009054906101000a900473ffffffffffffffffffffffffffffffffffffffff1686600003886000036040518763ffffffff1660e01b8152600401808781526020018673ffffffffffffffffffffffffffffffffffffffff1673ffffffffffffffffffffffffffffffffffffffff1681526020018573ffffffffffffffffffffffffffffffffffffffff1673ffffffffffffffffffffffffffffffffffffffff1681526020018473ffffffffffffffffffffffffffffffffffffffff1673ffffffffffffffffffffffffffffffffffffffff1681526020018381526020018281526020019650505050505050600060405180830381600087803b1580156120f557600080fd5b505af1158015612109573d6000803e3d6000fd5b50505050600960009054906101000a900473ffffffffffffffffffffffffffffffffffffffff1673ffffffffffffffffffffffffffffffffffffffff1663a8b30a9f612155848b613574565b6040518263ffffffff1660e01b815260040180828152602001915050600060405180830381600087803b15801561218b57600080fd5b505af115801561219f573d6000803e3d6000fd5b505050506000670de0b6b3a76400006121c56121bb858c613574565b8660200151613574565b816121cc57fe5b0490506121db60065482613623565b600681905550836000015173ffffffffffffffffffffffffffffffffffffffff166325ebc2748c600960009054906101000a900473ffffffffffffffffffffffffffffffffffffffff16848660006040518663ffffffff1660e01b8152600401808673ffffffffffffffffffffffffffffffffffffffff1673ffffffffffffffffffffffffffffffffffffffff1681526020018573ffffffffffffffffffffffffffffffffffffffff1673ffffffffffffffffffffffffffffffffffffffff16815260200184815260200183815260200182815260200195505050505050602060405180830381600087803b1580156122d357600080fd5b505af11580156122e7573d6000803e3d6000fd5b505050506040513d60208110156122fd57600080fd5b810190808051906020019092919050505099507fe1bbac4c69a9c7825ff4f220089a412e2349521ceba06c7f07c3764522ef04146006546040518082815260200191505060405180910390a1508973ffffffffffffffffffffffffffffffffffffffff168b7f72d3864f233703680912d39433c137e816d579e8785e5245274ca9f95bea8967838561238f878e613574565b88600001518f604051808681526020018581526020018481526020018373ffffffffffffffffffffffffffffffffffffffff1673ffffffffffffffffffffffffffffffffffffffff1681526020018281526020019550505050505060405180910390a35050505b6000600460008a815260200190815260200160002060008973ffffffffffffffffffffffffffffffffffffffff1673ffffffffffffffffffffffffffffffffffffffff16815260200190815260200160002060006101000a81548160ff021916908360ff160217905550505050505092915050565b60016000803373ffffffffffffffffffffffffffffffffffffffff1673ffffffffffffffffffffffffffffffffffffffff1681526020019081526020016000205414612502576040517f08c379a00000000000000000000000000000000000000000000000000000000081526004018080602001828103825260288152602001806137356028913960400191505060405180910390fd5b6000600160008373ffffffffffffffffffffffffffffffffffffffff1673ffffffffffffffffffffffffffffffffffffffff168152602001908152602001600020819055507ffce504fd9d349038183fa936cbbfadf867e63406485f0f4f9f45f7f2856f813f81604051808273ffffffffffffffffffffffffffffffffffffffff1673ffffffffffffffffffffffffffffffffffffffff16815260200191505060405180910390a150565b60016000803373ffffffffffffffffffffffffffffffffffffffff1673ffffffffffffffffffffffffffffffffffffffff1681526020019081526020016000205414612644576040517f08c379a00000000000000000000000000000000000000000000000000000000081526004018080602001828103825260288152602001806137356028913960400191505060405180910390fd5b7f636f6c6c61746572616c41756374696f6e486f7573650000000000000000000082141561286e57600860009054906101000a900473ffffffffffffffffffffffffffffffffffffffff1673ffffffffffffffffffffffffffffffffffffffff1663d49d78676002600086815260200190815260200160002060000160009054906101000a900473ffffffffffffffffffffffffffffffffffffffff166040518263ffffffff1660e01b8152600401808273ffffffffffffffffffffffffffffffffffffffff1673ffffffffffffffffffffffffffffffffffffffff168152602001915050600060405180830381600087803b15801561274357600080fd5b505af1158015612757573d6000803e3d6000fd5b50505050806002600085815260200190815260200160002060000160006101000a81548173ffffffffffffffffffffffffffffffffffffffff021916908373ffffffffffffffffffffffffffffffffffffffff160217905550600860009054906101000a900473ffffffffffffffffffffffffffffffffffffffff1673ffffffffffffffffffffffffffffffffffffffff1663d94d4208826040518263ffffffff1660e01b8152600401808273ffffffffffffffffffffffffffffffffffffffff1673ffffffffffffffffffffffffffffffffffffffff168152602001915050600060405180830381600087803b15801561285157600080fd5b505af1158015612865573d6000803e3d6000fd5b505050506128bf565b6040517f08c379a000000000000000000000000000000000000000000000000000000000815260040180806020018281038252602b815260200180613896602b913960400191505060405180910390fd5b7f87c209b94b27bfe8cb3329ca996f854fc16f2ec485116b0932eccd15fac50a40838383604051808481526020018381526020018273ffffffffffffffffffffffffffffffffffffffff1673ffffffffffffffffffffffffffffffffffffffff168152602001935050505060405180910390a1505050565b60016020528060005260406000206000915090505481565b60016000803373ffffffffffffffffffffffffffffffffffffffff1673ffffffffffffffffffffffffffffffffffffffff16815260200190815260200160002054146129e6576040517f08c379a00000000000000000000000000000000000000000000000000000000081526004018080602001828103825260288152602001806137356028913960400191505060405180910390fd5b7f6163636f756e74696e67456e67696e6500000000000000000000000000000000821415612a545780600960006101000a81548173ffffffffffffffffffffffffffffffffffffffff021916908373ffffffffffffffffffffffffffffffffffffffff160217905550612aa5565b6040517f08c379a000000000000000000000000000000000000000000000000000000000815260040180806020018281038252602b815260200180613896602b913960400191505060405180910390fd5b7fd91f38cf03346b5dc15fb60f9076f866295231ad3c3841a1051f8443f25170d18282604051808381526020018273ffffffffffffffffffffffffffffffffffffffff1673ffffffffffffffffffffffffffffffffffffffff1681526020019250505060405180910390a15050565b600860009054906101000a900473ffffffffffffffffffffffffffffffffffffffff1681565b60016000803373ffffffffffffffffffffffffffffffffffffffff1673ffffffffffffffffffffffffffffffffffffffff1681526020019081526020016000205414612bd1576040517f08c379a00000000000000000000000000000000000000000000000000000000081526004018080602001828103825260288152602001806137356028913960400191505060405180910390fd5b60006007819055507f2d4b4ecff7bd7503135271925520a2f6c0d98c9473ffc1a1e72c92502f51b25e60405160405180910390a1565b60016000803373ffffffffffffffffffffffffffffffffffffffff1673ffffffffffffffffffffffffffffffffffffffff1681526020019081526020016000205414612c9e576040517f08c379a00000000000000000000000000000000000000000000000000000000081526004018080602001828103825260288152602001806137356028913960400191505060405180910390fd5b60008060008373ffffffffffffffffffffffffffffffffffffffff1673ffffffffffffffffffffffffffffffffffffffff168152602001908152602001600020819055507f8834a87e641e9716be4f34527af5d23e11624f1ddeefede6ad75a9acfc31b90381604051808273ffffffffffffffffffffffffffffffffffffffff1673ffffffffffffffffffffffffffffffffffffffff16815260200191505060405180910390a150565b60016000803373ffffffffffffffffffffffffffffffffffffffff1673ffffffffffffffffffffffffffffffffffffffff1681526020019081526020016000205414612ddf576040517f08c379a00000000000000000000000000000000000000000000000000000000081526004018080602001828103825260288152602001806137356028913960400191505060405180910390fd5b60008060008373ffffffffffffffffffffffffffffffffffffffff1663b9b0bb393060006040518363ffffffff1660e01b8152600401808373ffffffffffffffffffffffffffffffffffffffff1673ffffffffffffffffffffffffffffffffffffffff1681526020016020018273ffffffffffffffffffffffffffffffffffffffff1673ffffffffffffffffffffffffffffffffffffffff16815260200192505050606060405180830381600087803b158015612e9b57600080fd5b505af1158015612eaf573d6000803e3d6000fd5b505050506040513d6060811015612ec557600080fd5b8101908080519060200190929190805190602001909291908051906020019092919050505092509250925082612f63576040517f08c379a00000000000000000000000000000000000000000000000000000000081526004018080602001828103825260208152602001807f4c69717569646174696f6e456e67696e652f736176696f75722d6e6f742d6f6b81525060200191505060405180910390fd5b612fb17fffffffffffffffffffffffffffffffffffffffffffffffffffffffffffffffff83147fffffffffffffffffffffffffffffffffffffffffffffffffffffffffffffffff8314613609565b613006576040517f08c379a000000000000000000000000000000000000000000000000000000000815260040180806020018281038252602181526020018061378c6021913960400191505060405180910390fd5b60018060008673ffffffffffffffffffffffffffffffffffffffff1673ffffffffffffffffffffffffffffffffffffffff168152602001908152602001600020819055507fc2553257d1b78c297941723c1913912f9161a830e997b56133a669b3a3de6a1e84604051808273ffffffffffffffffffffffffffffffffffffffff1673ffffffffffffffffffffffffffffffffffffffff16815260200191505060405180910390a150505050565b600960009054906101000a900473ffffffffffffffffffffffffffffffffffffffff1681565b60026020528060005260406000206000915090508060000160009054906101000a900473ffffffffffffffffffffffffffffffffffffffff16908060010154908060020154905083565b60016000803373ffffffffffffffffffffffffffffffffffffffff1673ffffffffffffffffffffffffffffffffffffffff16815260200190815260200160002054146131ba576040517f08c379a00000000000000000000000000000000000000000000000000000000081526004018080602001828103825260288152602001806137356028913960400191505060405180910390fd5b7f6c69717569646174696f6e50656e616c747900000000000000000000000000008214156132025780600260008581526020019081526020016000206001018190555061332a565b7f6c69717569646174696f6e5175616e74697479000000000000000000000000008214156132d8576b033b2e3c9fd0803ce80000007fffffffffffffffffffffffffffffffffffffffffffffffffffffffffffffffff8161325f57fe5b048111156132b8576040517f08c379a000000000000000000000000000000000000000000000000000000000815260040180806020018281038252602f81526020018061375d602f913960400191505060405180910390fd5b806002600085815260200190815260200160002060020181905550613329565b6040517f08c379a000000000000000000000000000000000000000000000000000000000815260040180806020018281038252602b815260200180613896602b913960400191505060405180910390fd5b5b7fc59b1109b54f213212d2f5af5c1dae5e887f9daa63b595578fae847cb048e8f483838360405180848152602001838152602001828152602001935050505060405180910390a1505050565b60016000803373ffffffffffffffffffffffffffffffffffffffff1673ffffffffffffffffffffffffffffffffffffffff168152602001908152602001600020541461340d576040517f08c379a00000000000000000000000000000000000000000000000000000000081526004018080602001828103825260288152602001806137356028913960400191505060405180910390fd5b7f6f6e41756374696f6e53797374656d436f696e4c696d697400000000000000008214156134415780600581905550613492565b6040517f08c379a000000000000000000000000000000000000000000000000000000000815260040180806020018281038252602b815260200180613896602b913960400191505060405180910390fd5b7fac7c5c1afaef770ec56ac6268cd3f2fbb1035858ead2601d6553157c33036c3a8282604051808381526020018281526020019250505060405180910390a15050565b6000828284039150811115613552576040517f08c379a000000000000000000000000000000000000000000000000000000000815260040180806020018281038252601f8152602001807f4c69717569646174696f6e456e67696e652f7375622d756e646572666c6f770081525060200191505060405180910390fd5b92915050565b60008183111561356a5781905061356e565b8290505b92915050565b600080821480613591575082828385029250828161358e57fe5b04145b613603576040517f08c379a000000000000000000000000000000000000000000000000000000000815260040180806020018281038252601e8152602001807f4c69717569646174696f6e456e67696e652f6d756c2d6f766572666c6f77000081525060200191505060405180910390fd5b92915050565b6000818316905092915050565b6000818317905092915050565b60008282840191508110156136a0576040517f08c379a000000000000000000000000000000000000000000000000000000000815260040180806020018281038252601e8152602001807f4c69717569646174696f6e456e67696e652f6164642d6f766572666c6f77000081525060200191505060405180910390fd5b92915050565b6040518060600160405280600073ffffffffffffffffffffffffffffffffffffffff1681526020016000815260200160008152509056fe4c69717569646174696f6e456e67696e652f6c69717569646174696f6e2d6c696d69742d6869744c69717569646174696f6e456e67696e652f696e76616c69642d736166652d736176696f75722d6f7065726174696f6e4c69717569646174696f6e456e67696e652f6163636f756e742d6e6f742d617574686f72697a65644c69717569646174696f6e456e67696e652f6c69717569646174696f6e2d7175616e746974792d6f766572666c6f774c69717569646174696f6e456e67696e652f696e76616c69642d616d6f756e74734c69717569646174696f6e456e67696e652f736166652d6e6f742d756e736166654c69717569646174696f6e456e67696e652f636f6c6c61746572616c2d6f722d646562742d6f766572666c6f774c69717569646174696f6e456e67696e652f636f6e74726163742d6e6f742d656e61626c65644c69717569646174696f6e456e67696e652f736176696f75722d6e6f742d617574686f72697a65644c69717569646174696f6e456e67696e652f6e756c6c2d636f6c6c61746572616c2d746f2d73656c6c4c69717569646174696f6e456e67696e652f63616e6e6f742d6d6f646966792d736166654c69717569646174696f6e456e67696e652f6d6f646966792d756e7265636f676e697a65642d706172616da264697066735822122063bfdb7c70ee9b8069b716de1ceacdda4394e5847b03620bddbf2a190a30edd164736f6c63430006070033",
  "immutableReferences": {},
  "source": "/// LiquidationEngine.sol\n\n// Copyright (C) 2018 Rain <rainbreak@riseup.net>\n//\n// This program is free software: you can redistribute it and/or modify\n// it under the terms of the GNU Affero General Public License as published by\n// the Free Software Foundation, either version 3 of the License, or\n// (at your option) any later version.\n//\n// This program is distributed in the hope that it will be useful,\n// but WITHOUT ANY WARRANTY; without even the implied warranty of\n// MERCHANTABILITY or FITNESS FOR A PARTICULAR PURPOSE.  See the\n// GNU Affero General Public License for more details.\n//\n// You should have received a copy of the GNU Affero General Public License\n// along with this program.  If not, see <https://www.gnu.org/licenses/>.\n\npragma solidity 0.6.7;\n\nabstract contract CollateralAuctionHouseLike {\n    function startAuction(\n      address forgoneCollateralReceiver,\n      address initialBidder,\n      uint256 amountToRaise,\n      uint256 collateralToSell,\n      uint256 initialBid\n    ) virtual public returns (uint256);\n}\nabstract contract SAFESaviourLike {\n    function saveSAFE(address,bytes32,address) virtual external returns (bool,uint256,uint256);\n}\nabstract contract SAFEEngineLike {\n    function collateralTypes(bytes32) virtual public view returns (\n        uint256 debtAmount,        // [wad]\n        uint256 accumulatedRate,   // [ray]\n        uint256 safetyPrice,       // [ray]\n        uint256 debtCeiling,       // [rad]\n        uint256 debtFloor,         // [rad]\n        uint256 liquidationPrice   // [ray]\n    );\n    function safes(bytes32,address) virtual public view returns (\n        uint256 lockedCollateral,  // [wad]\n        uint256 generatedDebt      // [wad]\n    );\n    function confiscateSAFECollateralAndDebt(bytes32,address,address,address,int256,int256) virtual external;\n    function canModifySAFE(address, address) virtual public view returns (bool);\n    function approveSAFEModification(address) virtual external;\n    function denySAFEModification(address) virtual external;\n}\nabstract contract AccountingEngineLike {\n    function pushDebtToQueue(uint256) virtual external;\n}\n\ncontract LiquidationEngine {\n    // --- Auth ---\n    mapping (address => uint256) public authorizedAccounts;\n    /**\n     * @notice Add auth to an account\n     * @param account Account to add auth to\n     */\n    function addAuthorization(address account) external isAuthorized {\n        authorizedAccounts[account] = 1;\n        emit AddAuthorization(account);\n    }\n    /**\n     * @notice Remove auth from an account\n     * @param account Account to remove auth from\n     */\n    function removeAuthorization(address account) external isAuthorized {\n        authorizedAccounts[account] = 0;\n        emit RemoveAuthorization(account);\n    }\n    /**\n    * @notice Checks whether msg.sender can call an authed function\n    **/\n    modifier isAuthorized {\n        require(authorizedAccounts[msg.sender] == 1, \"LiquidationEngine/account-not-authorized\");\n        _;\n    }\n\n    // --- SAFE Saviours ---\n    // Contracts that can save SAFEs from liquidation\n    mapping (address => uint256) public safeSaviours;\n    /**\n    * @notice Authed function to add contracts that can save SAFEs from liquidation\n    * @param saviour SAFE saviour contract to be whitelisted\n    **/\n    function connectSAFESaviour(address saviour) external isAuthorized {\n        (bool ok, uint256 collateralAdded, uint256 liquidatorReward) =\n          SAFESaviourLike(saviour).saveSAFE(address(this), \"\", address(0));\n        require(ok, \"LiquidationEngine/saviour-not-ok\");\n        require(both(collateralAdded == uint256(-1), liquidatorReward == uint256(-1)), \"LiquidationEngine/invalid-amounts\");\n        safeSaviours[saviour] = 1;\n        emit ConnectSAFESaviour(saviour);\n    }\n    /**\n    * @notice Governance used function to remove contracts that can save SAFEs from liquidation\n    * @param saviour SAFE saviour contract to be removed\n    **/\n    function disconnectSAFESaviour(address saviour) external isAuthorized {\n        safeSaviours[saviour] = 0;\n        emit DisconnectSAFESaviour(saviour);\n    }\n\n    // --- Data ---\n    struct CollateralType {\n        // Address of the collateral auction house handling liquidations for this collateral type\n        address collateralAuctionHouse;\n        // Penalty applied to every liquidation involving this collateral type. Discourages SAFE users from bidding on their own SAFEs\n        uint256 liquidationPenalty;                                                                                                   // [wad]\n        // Max amount of system coins to request in one auction\n        uint256 liquidationQuantity;                                                                                                  // [rad]\n    }\n\n    // Collateral types included in the system\n    mapping (bytes32 => CollateralType)              public collateralTypes;\n    // Saviour contract chosen for each SAFE by its creator\n    mapping (bytes32 => mapping(address => address)) public chosenSAFESaviour;\n    // Mutex used to block against re-entrancy when 'liquidateSAFE' passes execution to a saviour\n    mapping (bytes32 => mapping(address => uint8))   public mutex;\n\n    // Max amount of system coins that can be on liquidation at any time\n    uint256 public onAuctionSystemCoinLimit;                                // [rad]\n    // Current amount of system coins out for liquidation\n    uint256 public currentOnAuctionSystemCoins;                             // [rad]\n    // Whether this contract is enabled\n    uint256 public contractEnabled;\n\n    SAFEEngineLike       public safeEngine;\n    AccountingEngineLike public accountingEngine;\n\n    // --- Events ---\n    event AddAuthorization(address account);\n    event RemoveAuthorization(address account);\n    event ConnectSAFESaviour(address saviour);\n    event DisconnectSAFESaviour(address saviour);\n    event UpdateCurrentOnAuctionSystemCoins(uint256 currentOnAuctionSystemCoins);\n    event ModifyParameters(bytes32 parameter, uint256 data);\n    event ModifyParameters(bytes32 parameter, address data);\n    event ModifyParameters(\n      bytes32 collateralType,\n      bytes32 parameter,\n      uint256 data\n    );\n    event ModifyParameters(\n      bytes32 collateralType,\n      bytes32 parameter,\n      address data\n    );\n    event DisableContract();\n    event Liquidate(\n      bytes32 indexed collateralType,\n      address indexed safe,\n      uint256 collateralAmount,\n      uint256 debtAmount,\n      uint256 amountToRaise,\n      address collateralAuctioneer,\n      uint256 auctionId\n    );\n    event SaveSAFE(\n      bytes32 indexed collateralType,\n      address indexed safe,\n      uint256 collateralAddedOrDebtRepaid\n    );\n    event FailedSAFESave(bytes failReason);\n    event ProtectSAFE(\n      bytes32 indexed collateralType,\n      address indexed safe,\n      address saviour\n    );\n\n    // --- Init ---\n    constructor(address safeEngine_) public {\n        authorizedAccounts[msg.sender] = 1;\n\n        safeEngine               = SAFEEngineLike(safeEngine_);\n        onAuctionSystemCoinLimit = uint256(-1);\n        contractEnabled          = 1;\n\n        emit AddAuthorization(msg.sender);\n        emit ModifyParameters(\"onAuctionSystemCoinLimit\", uint256(-1));\n    }\n\n    // --- Math ---\n    uint256 constant WAD = 10 ** 18;\n    uint256 constant RAY = 10 ** 27;\n    uint256 constant MAX_LIQUIDATION_QUANTITY = uint256(-1) / RAY;\n\n    function addition(uint256 x, uint256 y) internal pure returns (uint256 z) {\n        require((z = x + y) >= x, \"LiquidationEngine/add-overflow\");\n    }\n    function subtract(uint256 x, uint256 y) internal pure returns (uint256 z) {\n        require((z = x - y) <= x, \"LiquidationEngine/sub-underflow\");\n    }\n    function multiply(uint256 x, uint256 y) internal pure returns (uint256 z) {\n        require(y == 0 || (z = x * y) / y == x, \"LiquidationEngine/mul-overflow\");\n    }\n    function minimum(uint256 x, uint256 y) internal pure returns (uint256 z) {\n        if (x > y) { z = y; } else { z = x; }\n    }\n\n    // --- Utils ---\n    function both(bool x, bool y) internal pure returns (bool z) {\n        assembly{ z := and(x, y)}\n    }\n    function either(bool x, bool y) internal pure returns (bool z) {\n        assembly{ z := or(x, y)}\n    }\n\n    // --- Administration ---\n    /*\n    * @notice Modify uint256 parameters\n    * @param paramter The name of the parameter modified\n    * @param data Value for the new parameter\n    */\n    function modifyParameters(bytes32 parameter, uint256 data) external isAuthorized {\n        if (parameter == \"onAuctionSystemCoinLimit\") onAuctionSystemCoinLimit = data;\n        else revert(\"LiquidationEngine/modify-unrecognized-param\");\n        emit ModifyParameters(parameter, data);\n    }\n    /**\n     * @notice Modify contract integrations\n     * @param parameter The name of the parameter modified\n     * @param data New address for the parameter\n     */\n    function modifyParameters(bytes32 parameter, address data) external isAuthorized {\n        if (parameter == \"accountingEngine\") accountingEngine = AccountingEngineLike(data);\n        else revert(\"LiquidationEngine/modify-unrecognized-param\");\n        emit ModifyParameters(parameter, data);\n    }\n    /**\n     * @notice Modify liquidation params\n     * @param collateralType The collateral type we change parameters for\n     * @param parameter The name of the parameter modified\n     * @param data New value for the parameter\n     */\n    function modifyParameters(\n        bytes32 collateralType,\n        bytes32 parameter,\n        uint256 data\n    ) external isAuthorized {\n        if (parameter == \"liquidationPenalty\") collateralTypes[collateralType].liquidationPenalty = data;\n        else if (parameter == \"liquidationQuantity\") {\n          require(data <= MAX_LIQUIDATION_QUANTITY, \"LiquidationEngine/liquidation-quantity-overflow\");\n          collateralTypes[collateralType].liquidationQuantity = data;\n        }\n        else revert(\"LiquidationEngine/modify-unrecognized-param\");\n        emit ModifyParameters(\n          collateralType,\n          parameter,\n          data\n        );\n    }\n    /**\n     * @notice Modify collateral auction address\n     * @param collateralType The collateral type we change parameters for\n     * @param parameter The name of the integration modified\n     * @param data New address for the integration contract\n     */\n    function modifyParameters(\n        bytes32 collateralType,\n        bytes32 parameter,\n        address data\n    ) external isAuthorized {\n        if (parameter == \"collateralAuctionHouse\") {\n            safeEngine.denySAFEModification(collateralTypes[collateralType].collateralAuctionHouse);\n            collateralTypes[collateralType].collateralAuctionHouse = data;\n            safeEngine.approveSAFEModification(data);\n        }\n        else revert(\"LiquidationEngine/modify-unrecognized-param\");\n        emit ModifyParameters(\n            collateralType,\n            parameter,\n            data\n        );\n    }\n    /**\n     * @notice Disable this contract (normally called by GlobalSettlement)\n     */\n    function disableContract() external isAuthorized {\n        contractEnabled = 0;\n        emit DisableContract();\n    }\n\n    // --- SAFE Liquidation ---\n    /**\n     * @notice Choose a saviour contract for your SAFE\n     * @param collateralType The SAFE's collateral type\n     * @param safe The SAFE's address\n     * @param saviour The chosen saviour\n     */\n    function protectSAFE(\n        bytes32 collateralType,\n        address safe,\n        address saviour\n    ) external {\n        require(safeEngine.canModifySAFE(safe, msg.sender), \"LiquidationEngine/cannot-modify-safe\");\n        require(saviour == address(0) || safeSaviours[saviour] == 1, \"LiquidationEngine/saviour-not-authorized\");\n        chosenSAFESaviour[collateralType][safe] = saviour;\n        emit ProtectSAFE(\n            collateralType,\n            safe,\n            saviour\n        );\n    }\n    /**\n     * @notice Liquidate a SAFE\n     * @param collateralType The SAFE's collateral type\n     * @param safe The SAFE's address\n     */\n    function liquidateSAFE(bytes32 collateralType, address safe) external returns (uint256 auctionId) {\n        require(mutex[collateralType][safe] == 0, \"LiquidationEngine/non-null-mutex\");\n        mutex[collateralType][safe] = 1;\n\n        (, uint256 accumulatedRate, , , uint256 debtFloor, uint256 liquidationPrice) = safeEngine.collateralTypes(collateralType);\n        (uint256 safeCollateral, uint256 safeDebt) = safeEngine.safes(collateralType, safe);\n\n        require(contractEnabled == 1, \"LiquidationEngine/contract-not-enabled\");\n        require(both(\n          liquidationPrice > 0,\n          multiply(safeCollateral, liquidationPrice) < multiply(safeDebt, accumulatedRate)\n        ), \"LiquidationEngine/safe-not-unsafe\");\n        require(\n          both(currentOnAuctionSystemCoins < onAuctionSystemCoinLimit,\n          subtract(onAuctionSystemCoinLimit, currentOnAuctionSystemCoins) >= debtFloor),\n          \"LiquidationEngine/liquidation-limit-hit\"\n        );\n\n        if (chosenSAFESaviour[collateralType][safe] != address(0) &&\n            safeSaviours[chosenSAFESaviour[collateralType][safe]] == 1) {\n          try SAFESaviourLike(chosenSAFESaviour[collateralType][safe]).saveSAFE(msg.sender, collateralType, safe)\n            returns (bool ok, uint256 collateralAddedOrDebtRepaid, uint256) {\n            if (both(ok, collateralAddedOrDebtRepaid > 0)) {\n              emit SaveSAFE(collateralType, safe, collateralAddedOrDebtRepaid);\n            }\n          } catch (bytes memory revertReason) {\n            emit FailedSAFESave(revertReason);\n          }\n        }\n\n        // Checks that the saviour didn't take collateral or add more debt to the SAFE\n        {\n          (uint256 newSafeCollateral, uint256 newSafeDebt) = safeEngine.safes(collateralType, safe);\n          require(both(newSafeCollateral >= safeCollateral, newSafeDebt <= safeDebt), \"LiquidationEngine/invalid-safe-saviour-operation\");\n        }\n\n        (, accumulatedRate, , , , liquidationPrice) = safeEngine.collateralTypes(collateralType);\n        (safeCollateral, safeDebt) = safeEngine.safes(collateralType, safe);\n\n        if (both(liquidationPrice > 0, multiply(safeCollateral, liquidationPrice) < multiply(safeDebt, accumulatedRate))) {\n          CollateralType memory collateralData = collateralTypes[collateralType];\n\n          uint256 limitAdjustedDebt = minimum(\n            safeDebt,\n            multiply(minimum(collateralData.liquidationQuantity, subtract(onAuctionSystemCoinLimit, currentOnAuctionSystemCoins)), WAD) / accumulatedRate / collateralData.liquidationPenalty\n          );\n          require(limitAdjustedDebt > 0, \"LiquidationEngine/null-auction\");\n          require(either(limitAdjustedDebt == safeDebt, multiply(subtract(safeDebt, limitAdjustedDebt), accumulatedRate) >= debtFloor), \"LiquidationEngine/dusty-safe\");\n\n          uint256 collateralToSell = minimum(safeCollateral, multiply(safeCollateral, limitAdjustedDebt) / safeDebt);\n\n          require(collateralToSell > 0, \"LiquidationEngine/null-collateral-to-sell\");\n          require(both(collateralToSell <= 2**255, limitAdjustedDebt <= 2**255), \"LiquidationEngine/collateral-or-debt-overflow\");\n\n          safeEngine.confiscateSAFECollateralAndDebt(\n            collateralType, safe, address(this), address(accountingEngine), -int256(collateralToSell), -int256(limitAdjustedDebt)\n          );\n          accountingEngine.pushDebtToQueue(multiply(limitAdjustedDebt, accumulatedRate));\n\n          {\n            // This calcuation will overflow if multiply(limitAdjustedDebt, accumulatedRate) exceeds ~10^14,\n            // i.e. the maximum amountToRaise is roughly 100 trillion system coins.\n            uint256 amountToRaise_      = multiply(multiply(limitAdjustedDebt, accumulatedRate), collateralData.liquidationPenalty) / WAD;\n            currentOnAuctionSystemCoins = addition(currentOnAuctionSystemCoins, amountToRaise_);\n\n            auctionId = CollateralAuctionHouseLike(collateralData.collateralAuctionHouse).startAuction(\n              { forgoneCollateralReceiver: safe\n              , initialBidder: address(accountingEngine)\n              , amountToRaise: amountToRaise_\n              , collateralToSell: collateralToSell\n              , initialBid: 0\n             });\n\n             emit UpdateCurrentOnAuctionSystemCoins(currentOnAuctionSystemCoins);\n          }\n\n          emit Liquidate(collateralType, safe, collateralToSell, limitAdjustedDebt, multiply(limitAdjustedDebt, accumulatedRate), collateralData.collateralAuctionHouse, auctionId);\n        }\n\n        mutex[collateralType][safe] = 0;\n    }\n    /**\n     * @notice Remove debt that was being auctioned\n     * @param rad The amount of debt to withdraw from currentOnAuctionSystemCoins\n     */\n    function removeCoinsFromAuction(uint256 rad) public isAuthorized {\n        currentOnAuctionSystemCoins = subtract(currentOnAuctionSystemCoins, rad);\n        emit UpdateCurrentOnAuctionSystemCoins(currentOnAuctionSystemCoins);\n    }\n\n    // --- Getters ---\n    /*\n    * @notice Get the amount of debt that can currently be covered by a collateral auction for a specific safe\n    * @param collateralType The collateral type stored in the SAFE\n    * @param safe The SAFE's address/handler\n    */\n    function getLimitAdjustedDebtToCover(bytes32 collateralType, address safe) external view returns (uint256) {\n        (, uint256 accumulatedRate,,,,)            = safeEngine.collateralTypes(collateralType);\n        (uint256 safeCollateral, uint256 safeDebt) = safeEngine.safes(collateralType, safe);\n        CollateralType memory collateralData       = collateralTypes[collateralType];\n\n        return minimum(\n          safeDebt,\n          multiply(minimum(collateralData.liquidationQuantity, subtract(onAuctionSystemCoinLimit, currentOnAuctionSystemCoins)), WAD) / accumulatedRate / collateralData.liquidationPenalty\n        );\n    }\n}\n",
  "sourcePath": "/Users/dhruv/Documents/tao/geb/B-RAI_contracts/contracts/LiquidationEngine.sol",
  "compiler": {
    "name": "solc",
    "version": "0.6.7+commit.b8d736ae.Emscripten.clang"
  },
  "schemaVersion": "3.4.1",
  "updatedAt": "2021-07-20T23:47:47.872Z",
  "networkType": "ethereum",
  "devdoc": {
    "methods": {
      "addAuthorization(address)": {
        "params": {
          "account": "Account to add auth to"
        }
      },
      "connectSAFESaviour(address)": {
        "params": {
          "saviour": "SAFE saviour contract to be whitelisted*"
        }
      },
      "disconnectSAFESaviour(address)": {
        "params": {
          "saviour": "SAFE saviour contract to be removed*"
        }
      },
      "liquidateSAFE(bytes32,address)": {
        "params": {
          "collateralType": "The SAFE's collateral type",
          "safe": "The SAFE's address"
        }
      },
      "modifyParameters(bytes32,address)": {
        "params": {
          "data": "New address for the parameter",
          "parameter": "The name of the parameter modified"
        }
      },
      "modifyParameters(bytes32,bytes32,address)": {
        "params": {
          "collateralType": "The collateral type we change parameters for",
          "data": "New address for the integration contract",
          "parameter": "The name of the integration modified"
        }
      },
      "modifyParameters(bytes32,bytes32,uint256)": {
        "params": {
          "collateralType": "The collateral type we change parameters for",
          "data": "New value for the parameter",
          "parameter": "The name of the parameter modified"
        }
      },
      "protectSAFE(bytes32,address,address)": {
        "params": {
          "collateralType": "The SAFE's collateral type",
          "safe": "The SAFE's address",
          "saviour": "The chosen saviour"
        }
      },
      "removeAuthorization(address)": {
        "params": {
          "account": "Account to remove auth from"
        }
      },
      "removeCoinsFromAuction(uint256)": {
        "params": {
          "rad": "The amount of debt to withdraw from currentOnAuctionSystemCoins"
        }
      }
    }
  },
  "userdoc": {
    "methods": {
      "addAuthorization(address)": {
        "notice": "Add auth to an account"
      },
      "connectSAFESaviour(address)": {
        "notice": "Authed function to add contracts that can save SAFEs from liquidation"
      },
      "disableContract()": {
        "notice": "Disable this contract (normally called by GlobalSettlement)"
      },
      "disconnectSAFESaviour(address)": {
        "notice": "Governance used function to remove contracts that can save SAFEs from liquidation"
      },
      "liquidateSAFE(bytes32,address)": {
        "notice": "Liquidate a SAFE"
      },
      "modifyParameters(bytes32,address)": {
        "notice": "Modify contract integrations"
      },
      "modifyParameters(bytes32,bytes32,address)": {
        "notice": "Modify collateral auction address"
      },
      "modifyParameters(bytes32,bytes32,uint256)": {
        "notice": "Modify liquidation params"
      },
      "protectSAFE(bytes32,address,address)": {
        "notice": "Choose a saviour contract for your SAFE"
      },
      "removeAuthorization(address)": {
        "notice": "Remove auth from an account"
      },
      "removeCoinsFromAuction(uint256)": {
        "notice": "Remove debt that was being auctioned"
      }
    }
  }
}