{
  "contractName": "RecyclingSurplusAuctionHouse",
  "abi": [
    {
      "inputs": [
        {
          "internalType": "address",
          "name": "safeEngine_",
          "type": "address"
        },
        {
          "internalType": "address",
          "name": "protocolToken_",
          "type": "address"
        }
      ],
      "stateMutability": "nonpayable",
      "type": "constructor"
    },
    {
      "anonymous": false,
      "inputs": [
        {
          "indexed": false,
          "internalType": "address",
          "name": "account",
          "type": "address"
        }
      ],
      "name": "AddAuthorization",
      "type": "event"
    },
    {
      "anonymous": false,
      "inputs": [],
      "name": "DisableContract",
      "type": "event"
    },
    {
      "anonymous": false,
      "inputs": [
        {
          "indexed": false,
          "internalType": "uint256",
          "name": "id",
          "type": "uint256"
        },
        {
          "indexed": false,
          "internalType": "address",
          "name": "highBidder",
          "type": "address"
        },
        {
          "indexed": false,
          "internalType": "uint256",
          "name": "amountToBuy",
          "type": "uint256"
        },
        {
          "indexed": false,
          "internalType": "uint256",
          "name": "bid",
          "type": "uint256"
        },
        {
          "indexed": false,
          "internalType": "uint256",
          "name": "bidExpiry",
          "type": "uint256"
        }
      ],
      "name": "IncreaseBidSize",
      "type": "event"
    },
    {
      "anonymous": false,
      "inputs": [
        {
          "indexed": false,
          "internalType": "bytes32",
          "name": "parameter",
          "type": "bytes32"
        },
        {
          "indexed": false,
          "internalType": "uint256",
          "name": "data",
          "type": "uint256"
        }
      ],
      "name": "ModifyParameters",
      "type": "event"
    },
    {
      "anonymous": false,
      "inputs": [
        {
          "indexed": false,
          "internalType": "bytes32",
          "name": "parameter",
          "type": "bytes32"
        },
        {
          "indexed": false,
          "internalType": "address",
          "name": "addr",
          "type": "address"
        }
      ],
      "name": "ModifyParameters",
      "type": "event"
    },
    {
      "anonymous": false,
      "inputs": [
        {
          "indexed": false,
          "internalType": "address",
          "name": "account",
          "type": "address"
        }
      ],
      "name": "RemoveAuthorization",
      "type": "event"
    },
    {
      "anonymous": false,
      "inputs": [
        {
          "indexed": false,
          "internalType": "uint256",
          "name": "id",
          "type": "uint256"
        },
        {
          "indexed": false,
          "internalType": "uint256",
          "name": "auctionDeadline",
          "type": "uint256"
        }
      ],
      "name": "RestartAuction",
      "type": "event"
    },
    {
      "anonymous": false,
      "inputs": [
        {
          "indexed": true,
          "internalType": "uint256",
          "name": "id",
          "type": "uint256"
        }
      ],
      "name": "SettleAuction",
      "type": "event"
    },
    {
      "anonymous": false,
      "inputs": [
        {
          "indexed": true,
          "internalType": "uint256",
          "name": "id",
          "type": "uint256"
        },
        {
          "indexed": false,
          "internalType": "uint256",
          "name": "auctionsStarted",
          "type": "uint256"
        },
        {
          "indexed": false,
          "internalType": "uint256",
          "name": "amountToSell",
          "type": "uint256"
        },
        {
          "indexed": false,
          "internalType": "uint256",
          "name": "initialBid",
          "type": "uint256"
        },
        {
          "indexed": false,
          "internalType": "uint256",
          "name": "auctionDeadline",
          "type": "uint256"
        }
      ],
      "name": "StartAuction",
      "type": "event"
    },
    {
      "anonymous": false,
      "inputs": [
        {
          "indexed": true,
          "internalType": "uint256",
          "name": "id",
          "type": "uint256"
        },
        {
          "indexed": false,
          "internalType": "address",
          "name": "sender",
          "type": "address"
        },
        {
          "indexed": false,
          "internalType": "address",
          "name": "highBidder",
          "type": "address"
        },
        {
          "indexed": false,
          "internalType": "uint256",
          "name": "bidAmount",
          "type": "uint256"
        }
      ],
      "name": "TerminateAuctionPrematurely",
      "type": "event"
    },
    {
      "inputs": [],
      "name": "AUCTION_HOUSE_TYPE",
      "outputs": [
        {
          "internalType": "bytes32",
          "name": "",
          "type": "bytes32"
        }
      ],
      "stateMutability": "view",
      "type": "function"
    },
    {
      "inputs": [],
      "name": "SURPLUS_AUCTION_TYPE",
      "outputs": [
        {
          "internalType": "bytes32",
          "name": "",
          "type": "bytes32"
        }
      ],
      "stateMutability": "view",
      "type": "function"
    },
    {
      "inputs": [],
      "name": "auctionsStarted",
      "outputs": [
        {
          "internalType": "uint256",
          "name": "",
          "type": "uint256"
        }
      ],
      "stateMutability": "view",
      "type": "function"
    },
    {
      "inputs": [
        {
          "internalType": "address",
          "name": "",
          "type": "address"
        }
      ],
      "name": "authorizedAccounts",
      "outputs": [
        {
          "internalType": "uint256",
          "name": "",
          "type": "uint256"
        }
      ],
      "stateMutability": "view",
      "type": "function"
    },
    {
      "inputs": [],
      "name": "bidDuration",
      "outputs": [
        {
          "internalType": "uint48",
          "name": "",
          "type": "uint48"
        }
      ],
      "stateMutability": "view",
      "type": "function"
    },
    {
      "inputs": [],
      "name": "bidIncrease",
      "outputs": [
        {
          "internalType": "uint256",
          "name": "",
          "type": "uint256"
        }
      ],
      "stateMutability": "view",
      "type": "function"
    },
    {
      "inputs": [
        {
          "internalType": "uint256",
          "name": "",
          "type": "uint256"
        }
      ],
      "name": "bids",
      "outputs": [
        {
          "internalType": "uint256",
          "name": "bidAmount",
          "type": "uint256"
        },
        {
          "internalType": "uint256",
          "name": "amountToSell",
          "type": "uint256"
        },
        {
          "internalType": "address",
          "name": "highBidder",
          "type": "address"
        },
        {
          "internalType": "uint48",
          "name": "bidExpiry",
          "type": "uint48"
        },
        {
          "internalType": "uint48",
          "name": "auctionDeadline",
          "type": "uint48"
        }
      ],
      "stateMutability": "view",
      "type": "function"
    },
    {
      "inputs": [],
      "name": "contractEnabled",
      "outputs": [
        {
          "internalType": "uint256",
          "name": "",
          "type": "uint256"
        }
      ],
      "stateMutability": "view",
      "type": "function"
    },
    {
      "inputs": [],
      "name": "protocolToken",
      "outputs": [
        {
          "internalType": "contract TokenLike",
          "name": "",
          "type": "address"
        }
      ],
      "stateMutability": "view",
      "type": "function"
    },
    {
      "inputs": [],
      "name": "protocolTokenBidReceiver",
      "outputs": [
        {
          "internalType": "address",
          "name": "",
          "type": "address"
        }
      ],
      "stateMutability": "view",
      "type": "function"
    },
    {
      "inputs": [],
      "name": "safeEngine",
      "outputs": [
        {
          "internalType": "contract SAFEEngineLike",
          "name": "",
          "type": "address"
        }
      ],
      "stateMutability": "view",
      "type": "function"
    },
    {
      "inputs": [],
      "name": "totalAuctionLength",
      "outputs": [
        {
          "internalType": "uint48",
          "name": "",
          "type": "uint48"
        }
      ],
      "stateMutability": "view",
      "type": "function"
    },
    {
      "inputs": [
        {
          "internalType": "address",
          "name": "account",
          "type": "address"
        }
      ],
      "name": "addAuthorization",
      "outputs": [],
      "stateMutability": "nonpayable",
      "type": "function"
    },
    {
      "inputs": [
        {
          "internalType": "address",
          "name": "account",
          "type": "address"
        }
      ],
      "name": "removeAuthorization",
      "outputs": [],
      "stateMutability": "nonpayable",
      "type": "function"
    },
    {
      "inputs": [
        {
          "internalType": "bytes32",
          "name": "parameter",
          "type": "bytes32"
        },
        {
          "internalType": "address",
          "name": "addr",
          "type": "address"
        }
      ],
      "name": "modifyParameters",
      "outputs": [],
      "stateMutability": "nonpayable",
      "type": "function"
    },
    {
      "inputs": [
        {
          "internalType": "bytes32",
          "name": "parameter",
          "type": "bytes32"
        },
        {
          "internalType": "uint256",
          "name": "data",
          "type": "uint256"
        }
      ],
      "name": "modifyParameters",
      "outputs": [],
      "stateMutability": "nonpayable",
      "type": "function"
    },
    {
      "inputs": [
        {
          "internalType": "uint256",
          "name": "amountToSell",
          "type": "uint256"
        },
        {
          "internalType": "uint256",
          "name": "initialBid",
          "type": "uint256"
        }
      ],
      "name": "startAuction",
      "outputs": [
        {
          "internalType": "uint256",
          "name": "id",
          "type": "uint256"
        }
      ],
      "stateMutability": "nonpayable",
      "type": "function"
    },
    {
      "inputs": [
        {
          "internalType": "uint256",
          "name": "id",
          "type": "uint256"
        }
      ],
      "name": "restartAuction",
      "outputs": [],
      "stateMutability": "nonpayable",
      "type": "function"
    },
    {
      "inputs": [
        {
          "internalType": "uint256",
          "name": "id",
          "type": "uint256"
        },
        {
          "internalType": "uint256",
          "name": "amountToBuy",
          "type": "uint256"
        },
        {
          "internalType": "uint256",
          "name": "bid",
          "type": "uint256"
        }
      ],
      "name": "increaseBidSize",
      "outputs": [],
      "stateMutability": "nonpayable",
      "type": "function"
    },
    {
      "inputs": [
        {
          "internalType": "uint256",
          "name": "id",
          "type": "uint256"
        }
      ],
      "name": "settleAuction",
      "outputs": [],
      "stateMutability": "nonpayable",
      "type": "function"
    },
    {
      "inputs": [],
      "name": "disableContract",
      "outputs": [],
      "stateMutability": "nonpayable",
      "type": "function"
    },
    {
      "inputs": [
        {
          "internalType": "uint256",
          "name": "id",
          "type": "uint256"
        }
      ],
      "name": "terminateAuctionPrematurely",
      "outputs": [],
      "stateMutability": "nonpayable",
      "type": "function"
    }
  ],
  "bytecode": "0x6080604052670e92596fd6290000600555612a30600660006101000a81548165ffffffffffff021916908365ffffffffffff1602179055506202a3006006806101000a81548165ffffffffffff021916908365ffffffffffff160217905550600060075534801561006f57600080fd5b50604051612e13380380612e138339818101604052604081101561009257600080fd5b81019080805190602001909291908051906020019092919050505060016000803373ffffffffffffffffffffffffffffffffffffffff1673ffffffffffffffffffffffffffffffffffffffff1681526020019081526020016000208190555081600260006101000a81548173ffffffffffffffffffffffffffffffffffffffff021916908373ffffffffffffffffffffffffffffffffffffffff16021790555080600360006101000a81548173ffffffffffffffffffffffffffffffffffffffff021916908373ffffffffffffffffffffffffffffffffffffffff16021790555060016008819055507f599a298163e1678bb1c676052a8930bf0b8a1261ed6e01b8a2391e55f700010233604051808273ffffffffffffffffffffffffffffffffffffffff1673ffffffffffffffffffffffffffffffffffffffff16815260200191505060405180910390a15050612c24806101ef6000396000f3fe608060405234801561001057600080fd5b50600436106101425760003560e01c8063619ed1f8116100b8578063933f76081161007c578063933f7608146104f957806394f3f81d14610527578063d25ccf531461056b578063f0ed4db014610599578063f6b45eb7146105e3578063fe4f58901461061157610142565b8063619ed1f81461040b5780636614f0101461042957806367aea3131461047757806373c0a367146104c1578063894ba833146104ef57610142565b806335b281531161010a57806335b281531461025357806341b3a0d9146102975780634423c5f1146102b55780634fee13fc1461035f578063551cb3b1146103ab5780635a93f031146103c957610142565b80630ac239e5146101475780631266fb94146101655780631a465fe11461018357806324ba5884146101cd5780632e99361114610225575b600080fd5b61014f610649565b6040518082815260200191505060405180910390f35b61016d61064f565b6040518082815260200191505060405180910390f35b61018b610673565b604051808273ffffffffffffffffffffffffffffffffffffffff1673ffffffffffffffffffffffffffffffffffffffff16815260200191505060405180910390f35b61020f600480360360208110156101e357600080fd5b81019080803573ffffffffffffffffffffffffffffffffffffffff169060200190929190505050610699565b6040518082815260200191505060405180910390f35b6102516004803603602081101561023b57600080fd5b81019080803590602001909291905050506106b1565b005b6102956004803603602081101561026957600080fd5b81019080803573ffffffffffffffffffffffffffffffffffffffff169060200190929190505050610b28565b005b61029f610c69565b6040518082815260200191505060405180910390f35b6102e1600480360360208110156102cb57600080fd5b8101908080359060200190929190505050610c6f565b604051808681526020018581526020018473ffffffffffffffffffffffffffffffffffffffff1673ffffffffffffffffffffffffffffffffffffffff1681526020018365ffffffffffff1665ffffffffffff1681526020018265ffffffffffff1665ffffffffffff1681526020019550505050505060405180910390f35b6103956004803603604081101561037557600080fd5b810190808035906020019092919080359060200190929190505050610ce9565b6040518082815260200191505060405180910390f35b6103b361116d565b6040518082815260200191505060405180910390f35b610409600480360360608110156103df57600080fd5b81019080803590602001909291908035906020019092919080359060200190929190505050611173565b005b610413611972565b6040518082815260200191505060405180910390f35b6104756004803603604081101561043f57600080fd5b8101908080359060200190929190803573ffffffffffffffffffffffffffffffffffffffff169060200190929190505050611996565b005b61047f611be1565b604051808273ffffffffffffffffffffffffffffffffffffffff1673ffffffffffffffffffffffffffffffffffffffff16815260200191505060405180910390f35b6104c9611c07565b604051808265ffffffffffff1665ffffffffffff16815260200191505060405180910390f35b6104f7611c1e565b005b6105256004803603602081101561050f57600080fd5b8101908080359060200190929190505050611eb9565b005b6105696004803603602081101561053d57600080fd5b81019080803573ffffffffffffffffffffffffffffffffffffffff16906020019092919050505061227f565b005b6105976004803603602081101561058157600080fd5b81019080803590602001909291905050506123c0565b005b6105a1612598565b604051808273ffffffffffffffffffffffffffffffffffffffff1673ffffffffffffffffffffffffffffffffffffffff16815260200191505060405180910390f35b6105eb6125be565b604051808265ffffffffffff1665ffffffffffff16815260200191505060405180910390f35b6106476004803603604081101561062757600080fd5b8101908080359060200190929190803590602001909291905050506125d6565b005b60055481565b7f535552504c55530000000000000000000000000000000000000000000000000081565b600360009054906101000a900473ffffffffffffffffffffffffffffffffffffffff1681565b60006020528060005260406000206000915090505481565b60016008541461070c576040517f08c379a00000000000000000000000000000000000000000000000000000000081526004018080602001828103825260318152602001806129596031913960400191505060405180910390fd5b60006001600083815260200190815260200160002060020160149054906101000a900465ffffffffffff1665ffffffffffff16141580156107b65750426001600083815260200190815260200160002060020160149054906101000a900465ffffffffffff1665ffffffffffff1610806107b557504260016000838152602001908152602001600020600201601a9054906101000a900465ffffffffffff1665ffffffffffff16105b5b61080b576040517f08c379a00000000000000000000000000000000000000000000000000000000081526004018080602001828103825260298152602001806128c96029913960400191505060405180910390fd5b600260009054906101000a900473ffffffffffffffffffffffffffffffffffffffff1673ffffffffffffffffffffffffffffffffffffffff1663efabcadc306001600085815260200190815260200160002060020160009054906101000a900473ffffffffffffffffffffffffffffffffffffffff1660016000868152602001908152602001600020600101546040518463ffffffff1660e01b8152600401808473ffffffffffffffffffffffffffffffffffffffff1673ffffffffffffffffffffffffffffffffffffffff1681526020018373ffffffffffffffffffffffffffffffffffffffff1673ffffffffffffffffffffffffffffffffffffffff1681526020018281526020019350505050600060405180830381600087803b15801561093457600080fd5b505af1158015610948573d6000803e3d6000fd5b50505050600360009054906101000a900473ffffffffffffffffffffffffffffffffffffffff1673ffffffffffffffffffffffffffffffffffffffff1663bb35783b30600460009054906101000a900473ffffffffffffffffffffffffffffffffffffffff1660016000868152602001908152602001600020600001546040518463ffffffff1660e01b8152600401808473ffffffffffffffffffffffffffffffffffffffff1673ffffffffffffffffffffffffffffffffffffffff1681526020018373ffffffffffffffffffffffffffffffffffffffff1673ffffffffffffffffffffffffffffffffffffffff1681526020018281526020019350505050600060405180830381600087803b158015610a6157600080fd5b505af1158015610a75573d6000803e3d6000fd5b505050506001600082815260200190815260200160002060008082016000905560018201600090556002820160006101000a81549073ffffffffffffffffffffffffffffffffffffffff02191690556002820160146101000a81549065ffffffffffff021916905560028201601a6101000a81549065ffffffffffff02191690555050807f03af424b0e12d91ea31fe7f2c199fc02c9ede38f9aa1bdc019a8087b41445f7a60405160405180910390a250565b60016000803373ffffffffffffffffffffffffffffffffffffffff1673ffffffffffffffffffffffffffffffffffffffff1681526020019081526020016000205414610bbf576040517f08c379a00000000000000000000000000000000000000000000000000000000081526004018080602001828103825260338152602001806128f26033913960400191505060405180910390fd5b60016000808373ffffffffffffffffffffffffffffffffffffffff1673ffffffffffffffffffffffffffffffffffffffff168152602001908152602001600020819055507f599a298163e1678bb1c676052a8930bf0b8a1261ed6e01b8a2391e55f700010281604051808273ffffffffffffffffffffffffffffffffffffffff1673ffffffffffffffffffffffffffffffffffffffff16815260200191505060405180910390a150565b60085481565b60016020528060005260406000206000915090508060000154908060010154908060020160009054906101000a900473ffffffffffffffffffffffffffffffffffffffff16908060020160149054906101000a900465ffffffffffff169080600201601a9054906101000a900465ffffffffffff16905085565b600060016000803373ffffffffffffffffffffffffffffffffffffffff1673ffffffffffffffffffffffffffffffffffffffff1681526020019081526020016000205414610d82576040517f08c379a00000000000000000000000000000000000000000000000000000000081526004018080602001828103825260338152602001806128f26033913960400191505060405180910390fd5b600160085414610ddd576040517f08c379a00000000000000000000000000000000000000000000000000000000081526004018080602001828103825260318152602001806129596031913960400191505060405180910390fd5b7fffffffffffffffffffffffffffffffffffffffffffffffffffffffffffffffff60075410610e57576040517f08c379a000000000000000000000000000000000000000000000000000000000815260040180806020018281038252602581526020018061298a6025913960400191505060405180910390fd5b600073ffffffffffffffffffffffffffffffffffffffff16600460009054906101000a900473ffffffffffffffffffffffffffffffffffffffff1673ffffffffffffffffffffffffffffffffffffffff161415610eff576040517f08c379a0000000000000000000000000000000000000000000000000000000008152600401808060200182810382526035815260200180612b8a6035913960400191505060405180910390fd5b6007600081546001019190508190559050816001600083815260200190815260200160002060000181905550826001600083815260200190815260200160002060010181905550336001600083815260200190815260200160002060020160006101000a81548173ffffffffffffffffffffffffffffffffffffffff021916908373ffffffffffffffffffffffffffffffffffffffff160217905550610fb8426006809054906101000a900465ffffffffffff166127da565b60016000838152602001908152602001600020600201601a6101000a81548165ffffffffffff021916908365ffffffffffff160217905550600260009054906101000a900473ffffffffffffffffffffffffffffffffffffffff1673ffffffffffffffffffffffffffffffffffffffff1663efabcadc3330866040518463ffffffff1660e01b8152600401808473ffffffffffffffffffffffffffffffffffffffff1673ffffffffffffffffffffffffffffffffffffffff1681526020018373ffffffffffffffffffffffffffffffffffffffff1673ffffffffffffffffffffffffffffffffffffffff1681526020018281526020019350505050600060405180830381600087803b1580156110cd57600080fd5b505af11580156110e1573d6000803e3d6000fd5b50505050807fa4863af70e77aecfe2769e0569806782ba7c6f86fc9a307290a3816fb8a563e5600754858560016000878152602001908152602001600020600201601a9054906101000a900465ffffffffffff16604051808581526020018481526020018381526020018265ffffffffffff16815260200194505050505060405180910390a292915050565b60075481565b6001600854146111ce576040517f08c379a00000000000000000000000000000000000000000000000000000000081526004018080602001828103825260318152602001806129596031913960400191505060405180910390fd5b600073ffffffffffffffffffffffffffffffffffffffff166001600085815260200190815260200160002060020160009054906101000a900473ffffffffffffffffffffffffffffffffffffffff1673ffffffffffffffffffffffffffffffffffffffff16141561128a576040517f08c379a0000000000000000000000000000000000000000000000000000000008152600401808060200182810382526030815260200180612b2a6030913960400191505060405180910390fd5b426001600085815260200190815260200160002060020160149054906101000a900465ffffffffffff1665ffffffffffff1611806112f8575060006001600085815260200190815260200160002060020160149054906101000a900465ffffffffffff1665ffffffffffff16145b61134d576040517f08c379a0000000000000000000000000000000000000000000000000000000008152600401808060200182810382526030815260200180612b5a6030913960400191505060405180910390fd5b4260016000858152602001908152602001600020600201601a9054906101000a900465ffffffffffff1665ffffffffffff16116113d5576040517f08c379a00000000000000000000000000000000000000000000000000000000081526004018080602001828103825260348152602001806129256034913960400191505060405180910390fd5b60016000848152602001908152602001600020600101548214611443576040517f08c379a0000000000000000000000000000000000000000000000000000000008152600401808060200182810382526031815260200180612ace6031913960400191505060405180910390fd5b600160008481526020019081526020016000206000015481116114b1576040517f08c379a000000000000000000000000000000000000000000000000000000000815260040180806020018281038252602b815260200180612aff602b913960400191505060405180910390fd5b6114d36005546001600086815260200190815260200160002060000154612850565b6114e582670de0b6b3a7640000612850565b101561153c576040517f08c379a00000000000000000000000000000000000000000000000000000000081526004018080602001828103825260328152602001806129de6032913960400191505060405180910390fd5b6001600084815260200190815260200160002060020160009054906101000a900473ffffffffffffffffffffffffffffffffffffffff1673ffffffffffffffffffffffffffffffffffffffff163373ffffffffffffffffffffffffffffffffffffffff161461173c57600360009054906101000a900473ffffffffffffffffffffffffffffffffffffffff1673ffffffffffffffffffffffffffffffffffffffff1663bb35783b336001600087815260200190815260200160002060020160009054906101000a900473ffffffffffffffffffffffffffffffffffffffff1660016000888152602001908152602001600020600001546040518463ffffffff1660e01b8152600401808473ffffffffffffffffffffffffffffffffffffffff1673ffffffffffffffffffffffffffffffffffffffff1681526020018373ffffffffffffffffffffffffffffffffffffffff1673ffffffffffffffffffffffffffffffffffffffff1681526020018281526020019350505050600060405180830381600087803b1580156116ce57600080fd5b505af11580156116e2573d6000803e3d6000fd5b50505050336001600085815260200190815260200160002060020160006101000a81548173ffffffffffffffffffffffffffffffffffffffff021916908373ffffffffffffffffffffffffffffffffffffffff1602179055505b600360009054906101000a900473ffffffffffffffffffffffffffffffffffffffff1673ffffffffffffffffffffffffffffffffffffffff1663bb35783b3330600160008881526020019081526020016000206000015485036040518463ffffffff1660e01b8152600401808473ffffffffffffffffffffffffffffffffffffffff1673ffffffffffffffffffffffffffffffffffffffff1681526020018373ffffffffffffffffffffffffffffffffffffffff1673ffffffffffffffffffffffffffffffffffffffff1681526020018281526020019350505050600060405180830381600087803b15801561183157600080fd5b505af1158015611845573d6000803e3d6000fd5b5050505080600160008581526020019081526020016000206000018190555061188242600660009054906101000a900465ffffffffffff166127da565b6001600085815260200190815260200160002060020160146101000a81548165ffffffffffff021916908365ffffffffffff1602179055507fd87c815d5a67c2e130ad04b714d87a6fb69d5a6df0dbb0f1639cd9fe292201f9833384846001600089815260200190815260200160002060020160149054906101000a900465ffffffffffff16604051808681526020018573ffffffffffffffffffffffffffffffffffffffff1673ffffffffffffffffffffffffffffffffffffffff1681526020018481526020018381526020018265ffffffffffff1681526020019550505050505060405180910390a1505050565b7f52454359434c494e47000000000000000000000000000000000000000000000081565b60016000803373ffffffffffffffffffffffffffffffffffffffff1673ffffffffffffffffffffffffffffffffffffffff1681526020019081526020016000205414611a2d576040517f08c379a00000000000000000000000000000000000000000000000000000000081526004018080602001828103825260338152602001806128f26033913960400191505060405180910390fd5b600073ffffffffffffffffffffffffffffffffffffffff168173ffffffffffffffffffffffffffffffffffffffff161415611ab3576040517f08c379a000000000000000000000000000000000000000000000000000000000815260040180806020018281038252602c815260200180612a79602c913960400191505060405180910390fd5b7f70726f746f636f6c546f6b656e42696452656365697665720000000000000000821415611b215780600460006101000a81548173ffffffffffffffffffffffffffffffffffffffff021916908373ffffffffffffffffffffffffffffffffffffffff160217905550611b72565b6040517f08c379a0000000000000000000000000000000000000000000000000000000008152600401808060200182810382526036815260200180612a106036913960400191505060405180910390fd5b7fd91f38cf03346b5dc15fb60f9076f866295231ad3c3841a1051f8443f25170d18282604051808381526020018273ffffffffffffffffffffffffffffffffffffffff1673ffffffffffffffffffffffffffffffffffffffff1681526020019250505060405180910390a15050565b600260009054906101000a900473ffffffffffffffffffffffffffffffffffffffff1681565b6006809054906101000a900465ffffffffffff1681565b60016000803373ffffffffffffffffffffffffffffffffffffffff1673ffffffffffffffffffffffffffffffffffffffff1681526020019081526020016000205414611cb5576040517f08c379a00000000000000000000000000000000000000000000000000000000081526004018080602001828103825260338152602001806128f26033913960400191505060405180910390fd5b6000600881905550600260009054906101000a900473ffffffffffffffffffffffffffffffffffffffff1673ffffffffffffffffffffffffffffffffffffffff1663efabcadc3033600260009054906101000a900473ffffffffffffffffffffffffffffffffffffffff1673ffffffffffffffffffffffffffffffffffffffff1663fabde80c306040518263ffffffff1660e01b8152600401808273ffffffffffffffffffffffffffffffffffffffff1673ffffffffffffffffffffffffffffffffffffffff16815260200191505060206040518083038186803b158015611d9c57600080fd5b505afa158015611db0573d6000803e3d6000fd5b505050506040513d6020811015611dc657600080fd5b81019080805190602001909291905050506040518463ffffffff1660e01b8152600401808473ffffffffffffffffffffffffffffffffffffffff1673ffffffffffffffffffffffffffffffffffffffff1681526020018373ffffffffffffffffffffffffffffffffffffffff1673ffffffffffffffffffffffffffffffffffffffff1681526020018281526020019350505050600060405180830381600087803b158015611e7357600080fd5b505af1158015611e87573d6000803e3d6000fd5b505050507f2d4b4ecff7bd7503135271925520a2f6c0d98c9473ffc1a1e72c92502f51b25e60405160405180910390a1565b600060085414611f14576040517f08c379a0000000000000000000000000000000000000000000000000000000008152600401808060200182810382526033815260200180612a466033913960400191505060405180910390fd5b600073ffffffffffffffffffffffffffffffffffffffff166001600083815260200190815260200160002060020160009054906101000a900473ffffffffffffffffffffffffffffffffffffffff1673ffffffffffffffffffffffffffffffffffffffff161415611fd0576040517f08c379a0000000000000000000000000000000000000000000000000000000008152600401808060200182810382526030815260200180612b2a6030913960400191505060405180910390fd5b600360009054906101000a900473ffffffffffffffffffffffffffffffffffffffff1673ffffffffffffffffffffffffffffffffffffffff1663bb35783b306001600085815260200190815260200160002060020160009054906101000a900473ffffffffffffffffffffffffffffffffffffffff1660016000868152602001908152602001600020600001546040518463ffffffff1660e01b8152600401808473ffffffffffffffffffffffffffffffffffffffff1673ffffffffffffffffffffffffffffffffffffffff1681526020018373ffffffffffffffffffffffffffffffffffffffff1673ffffffffffffffffffffffffffffffffffffffff1681526020018281526020019350505050600060405180830381600087803b1580156120f957600080fd5b505af115801561210d573d6000803e3d6000fd5b50505050807f723f56b5ac5fb3399765203804e790344f427477918842dbef525d795af4bcca336001600085815260200190815260200160002060020160009054906101000a900473ffffffffffffffffffffffffffffffffffffffff166001600086815260200190815260200160002060000154604051808473ffffffffffffffffffffffffffffffffffffffff1673ffffffffffffffffffffffffffffffffffffffff1681526020018373ffffffffffffffffffffffffffffffffffffffff1673ffffffffffffffffffffffffffffffffffffffff168152602001828152602001935050505060405180910390a26001600082815260200190815260200160002060008082016000905560018201600090556002820160006101000a81549073ffffffffffffffffffffffffffffffffffffffff02191690556002820160146101000a81549065ffffffffffff021916905560028201601a6101000a81549065ffffffffffff0219169055505050565b60016000803373ffffffffffffffffffffffffffffffffffffffff1673ffffffffffffffffffffffffffffffffffffffff1681526020019081526020016000205414612316576040517f08c379a00000000000000000000000000000000000000000000000000000000081526004018080602001828103825260338152602001806128f26033913960400191505060405180910390fd5b60008060008373ffffffffffffffffffffffffffffffffffffffff1673ffffffffffffffffffffffffffffffffffffffff168152602001908152602001600020819055507f8834a87e641e9716be4f34527af5d23e11624f1ddeefede6ad75a9acfc31b90381604051808273ffffffffffffffffffffffffffffffffffffffff1673ffffffffffffffffffffffffffffffffffffffff16815260200191505060405180910390a150565b4260016000838152602001908152602001600020600201601a9054906101000a900465ffffffffffff1665ffffffffffff1610612448576040517f08c379a00000000000000000000000000000000000000000000000000000000081526004018080602001828103825260298152602001806128c96029913960400191505060405180910390fd5b60006001600083815260200190815260200160002060020160149054906101000a900465ffffffffffff1665ffffffffffff16146124d1576040517f08c379a000000000000000000000000000000000000000000000000000000000815260040180806020018281038252602f8152602001806129af602f913960400191505060405180910390fd5b6124ee426006809054906101000a900465ffffffffffff166127da565b60016000838152602001908152602001600020600201601a6101000a81548165ffffffffffff021916908365ffffffffffff1602179055507f10a109258779eb298071adf16637b95f8d7cf00e49595711da10eeb90e6e8e948160016000848152602001908152602001600020600201601a9054906101000a900465ffffffffffff16604051808381526020018265ffffffffffff1681526020019250505060405180910390a150565b600460009054906101000a900473ffffffffffffffffffffffffffffffffffffffff1681565b600660009054906101000a900465ffffffffffff1681565b60016000803373ffffffffffffffffffffffffffffffffffffffff1673ffffffffffffffffffffffffffffffffffffffff168152602001908152602001600020541461266d576040517f08c379a00000000000000000000000000000000000000000000000000000000081526004018080602001828103825260338152602001806128f26033913960400191505060405180910390fd5b7f626964496e6372656173650000000000000000000000000000000000000000008214156126a15780600581905550612797565b7f6269644475726174696f6e0000000000000000000000000000000000000000008214156126f35780600660006101000a81548165ffffffffffff021916908365ffffffffffff160217905550612796565b7f746f74616c41756374696f6e4c656e677468000000000000000000000000000082141561274457806006806101000a81548165ffffffffffff021916908365ffffffffffff160217905550612795565b6040517f08c379a0000000000000000000000000000000000000000000000000000000008152600401808060200182810382526036815260200180612a106036913960400191505060405180910390fd5b5b5b7fac7c5c1afaef770ec56ac6268cd3f2fbb1035858ead2601d6553157c33036c3a8282604051808381526020018281526020019250505060405180910390a15050565b60008265ffffffffffff1682840191508165ffffffffffff16101561284a576040517f08c379a0000000000000000000000000000000000000000000000000000000008152600401808060200182810382526030815260200180612bbf6030913960400191505060405180910390fd5b92915050565b60008082148061286d575082828385029250828161286a57fe5b04145b6128c2576040517f08c379a0000000000000000000000000000000000000000000000000000000008152600401808060200182810382526029815260200180612aa56029913960400191505060405180910390fd5b9291505056fe52656379636c696e67537572706c757341756374696f6e486f7573652f6e6f742d66696e697368656452656379636c696e67537572706c757341756374696f6e486f7573652f6163636f756e742d6e6f742d617574686f72697a656452656379636c696e67537572706c757341756374696f6e486f7573652f61756374696f6e2d616c72656164792d6578706972656452656379636c696e67537572706c757341756374696f6e486f7573652f636f6e74726163742d6e6f742d656e61626c656452656379636c696e67537572706c757341756374696f6e486f7573652f6f766572666c6f7752656379636c696e67537572706c757341756374696f6e486f7573652f6269642d616c72656164792d706c6163656452656379636c696e67537572706c757341756374696f6e486f7573652f696e73756666696369656e742d696e63726561736552656379636c696e67537572706c757341756374696f6e486f7573652f6d6f646966792d756e7265636f676e697a65642d706172616d52656379636c696e67537572706c757341756374696f6e486f7573652f636f6e74726163742d7374696c6c2d656e61626c656452656379636c696e67537572706c757341756374696f6e486f7573652f696e76616c69642d6164647265737352656379636c696e67537572706c757341756374696f6e486f7573652f6d756c2d6f766572666c6f7752656379636c696e67537572706c757341756374696f6e486f7573652f616d6f756e74732d6e6f742d6d61746368696e6752656379636c696e67537572706c757341756374696f6e486f7573652f6269642d6e6f742d68696768657252656379636c696e67537572706c757341756374696f6e486f7573652f686967682d6269646465722d6e6f742d73657452656379636c696e67537572706c757341756374696f6e486f7573652f6269642d616c72656164792d6578706972656452656379636c696e67537572706c757341756374696f6e486f7573652f6e756c6c2d70726f742d746f6b656e2d726563656976657252656379636c696e67537572706c757341756374696f6e486f7573652f6164642d75696e7434382d6f766572666c6f77a264697066735822122035129a0b1fae31ffb79ebd2a2fe0633d4c1708c0e234631c8aba50540bec7e0864736f6c63430006070033",
  "immutableReferences": {},
  "source": "/// SurplusAuctionHouse.sol\n\n// Copyright (C) 2018 Rain <rainbreak@riseup.net>\n//\n// This program is free software: you can redistribute it and/or modify\n// it under the terms of the GNU Affero General Public License as published by\n// the Free Software Foundation, either version 3 of the License, or\n// (at your option) any later version.\n//\n// This program is distributed in the hope that it will be useful,\n// but WITHOUT ANY WARRANTY; without even the implied warranty of\n// MERCHANTABILITY or FITNESS FOR A PARTICULAR PURPOSE.  See the\n// GNU Affero General Public License for more details.\n//\n// You should have received a copy of the GNU Affero General Public License\n// along with this program.  If not, see <https://www.gnu.org/licenses/>.\n\npragma solidity 0.6.7;\n\nabstract contract SAFEEngineLike {\n    function transferInternalCoins(address,address,uint256) virtual external;\n    function coinBalance(address) virtual external view returns (uint256);\n    function approveSAFEModification(address) virtual external;\n    function denySAFEModification(address) virtual external;\n}\nabstract contract TokenLike {\n    function approve(address, uint256) virtual public returns (bool);\n    function balanceOf(address) virtual public view returns (uint256);\n    function move(address,address,uint256) virtual external;\n    function burn(address,uint256) virtual external;\n}\n\n/*\n   This thing lets you auction some system coins in return for protocol tokens that are then burnt\n*/\n\ncontract BurningSurplusAuctionHouse {\n    // --- Auth ---\n    mapping (address => uint256) public authorizedAccounts;\n    /**\n     * @notice Add auth to an account\n     * @param account Account to add auth to\n     */\n    function addAuthorization(address account) external isAuthorized {\n        authorizedAccounts[account] = 1;\n        emit AddAuthorization(account);\n    }\n    /**\n     * @notice Remove auth from an account\n     * @param account Account to remove auth from\n     */\n    function removeAuthorization(address account) external isAuthorized {\n        authorizedAccounts[account] = 0;\n        emit RemoveAuthorization(account);\n    }\n    /**\n    * @notice Checks whether msg.sender can call an authed function\n    **/\n    modifier isAuthorized {\n        require(authorizedAccounts[msg.sender] == 1, \"BurningSurplusAuctionHouse/account-not-authorized\");\n        _;\n    }\n\n    // --- Data ---\n    struct Bid {\n        // Bid size (how many protocol tokens are offered per system coins sold)\n        uint256 bidAmount;                                                            // [wad]\n        // How many system coins are sold in an auction\n        uint256 amountToSell;                                                         // [rad]\n        // Who the high bidder is\n        address highBidder;\n        // When the latest bid expires and the auction can be settled\n        uint48  bidExpiry;                                                            // [unix epoch time]\n        // Hard deadline for the auction after which no more bids can be placed\n        uint48  auctionDeadline;                                                      // [unix epoch time]\n    }\n\n    // Bid data for each separate auction\n    mapping (uint256 => Bid) public bids;\n\n    // SAFE database\n    SAFEEngineLike public safeEngine;\n    // Protocol token address\n    TokenLike      public protocolToken;\n\n    uint256  constant ONE = 1.00E18;                                                  // [wad]\n    // Minimum bid increase compared to the last bid in order to take the new one in consideration\n    uint256  public   bidIncrease = 1.05E18;                                          // [wad]\n    // How long the auction lasts after a new bid is submitted\n    uint48   public   bidDuration = 3 hours;                                          // [seconds]\n    // Total length of the auction\n    uint48   public   totalAuctionLength = 2 days;                                    // [seconds]\n    // Number of auctions started up until now\n    uint256  public   auctionsStarted = 0;\n    // Whether the contract is settled or not\n    uint256  public   contractEnabled;\n\n    bytes32 public constant AUCTION_HOUSE_TYPE   = bytes32(\"SURPLUS\");\n    bytes32 public constant SURPLUS_AUCTION_TYPE = bytes32(\"BURNING\");\n\n    // --- Events ---\n    event AddAuthorization(address account);\n    event RemoveAuthorization(address account);\n    event ModifyParameters(bytes32 parameter, uint256 data);\n    event RestartAuction(uint256 id, uint256 auctionDeadline);\n    event IncreaseBidSize(uint256 id, address highBidder, uint256 amountToBuy, uint256 bid, uint256 bidExpiry);\n    event StartAuction(\n        uint256 indexed id,\n        uint256 auctionsStarted,\n        uint256 amountToSell,\n        uint256 initialBid,\n        uint256 auctionDeadline\n    );\n    event SettleAuction(uint256 indexed id);\n    event DisableContract();\n    event TerminateAuctionPrematurely(uint256 indexed id, address sender, address highBidder, uint256 bidAmount);\n\n    // --- Init ---\n    constructor(address safeEngine_, address protocolToken_) public {\n        authorizedAccounts[msg.sender] = 1;\n        safeEngine = SAFEEngineLike(safeEngine_);\n        protocolToken = TokenLike(protocolToken_);\n        contractEnabled = 1;\n        emit AddAuthorization(msg.sender);\n    }\n\n    // --- Math ---\n    function addUint48(uint48 x, uint48 y) internal pure returns (uint48 z) {\n        require((z = x + y) >= x, \"BurningSurplusAuctionHouse/add-uint48-overflow\");\n    }\n    function multiply(uint256 x, uint256 y) internal pure returns (uint256 z) {\n        require(y == 0 || (z = x * y) / y == x, \"BurningSurplusAuctionHouse/mul-overflow\");\n    }\n\n    // --- Admin ---\n    /**\n     * @notice Modify auction parameters\n     * @param parameter The name of the parameter modified\n     * @param data New value for the parameter\n     */\n    function modifyParameters(bytes32 parameter, uint256 data) external isAuthorized {\n        if (parameter == \"bidIncrease\") bidIncrease = data;\n        else if (parameter == \"bidDuration\") bidDuration = uint48(data);\n        else if (parameter == \"totalAuctionLength\") totalAuctionLength = uint48(data);\n        else revert(\"BurningSurplusAuctionHouse/modify-unrecognized-param\");\n        emit ModifyParameters(parameter, data);\n    }\n\n    // --- Auction ---\n    /**\n     * @notice Start a new surplus auction\n     * @param amountToSell Total amount of system coins to sell (rad)\n     * @param initialBid Initial protocol token bid (wad)\n     */\n    function startAuction(uint256 amountToSell, uint256 initialBid) external isAuthorized returns (uint256 id) {\n        require(contractEnabled == 1, \"BurningSurplusAuctionHouse/contract-not-enabled\");\n        require(auctionsStarted < uint256(-1), \"BurningSurplusAuctionHouse/overflow\");\n        id = ++auctionsStarted;\n\n        bids[id].bidAmount = initialBid;\n        bids[id].amountToSell = amountToSell;\n        bids[id].highBidder = msg.sender;\n        bids[id].auctionDeadline = addUint48(uint48(now), totalAuctionLength);\n\n        safeEngine.transferInternalCoins(msg.sender, address(this), amountToSell);\n\n        emit StartAuction(id, auctionsStarted, amountToSell, initialBid, bids[id].auctionDeadline);\n    }\n    /**\n     * @notice Restart an auction if no bids were submitted for it\n     * @param id ID of the auction to restart\n     */\n    function restartAuction(uint256 id) external {\n        require(bids[id].auctionDeadline < now, \"BurningSurplusAuctionHouse/not-finished\");\n        require(bids[id].bidExpiry == 0, \"BurningSurplusAuctionHouse/bid-already-placed\");\n        bids[id].auctionDeadline = addUint48(uint48(now), totalAuctionLength);\n        emit RestartAuction(id, bids[id].auctionDeadline);\n    }\n    /**\n     * @notice Submit a higher protocol token bid for the same amount of system coins\n     * @param id ID of the auction you want to submit the bid for\n     * @param amountToBuy Amount of system coins to buy (rad)\n     * @param bid New bid submitted (wad)\n     */\n    function increaseBidSize(uint256 id, uint256 amountToBuy, uint256 bid) external {\n        require(contractEnabled == 1, \"BurningSurplusAuctionHouse/contract-not-enabled\");\n        require(bids[id].highBidder != address(0), \"BurningSurplusAuctionHouse/high-bidder-not-set\");\n        require(bids[id].bidExpiry > now || bids[id].bidExpiry == 0, \"BurningSurplusAuctionHouse/bid-already-expired\");\n        require(bids[id].auctionDeadline > now, \"BurningSurplusAuctionHouse/auction-already-expired\");\n\n        require(amountToBuy == bids[id].amountToSell, \"BurningSurplusAuctionHouse/amounts-not-matching\");\n        require(bid > bids[id].bidAmount, \"BurningSurplusAuctionHouse/bid-not-higher\");\n        require(multiply(bid, ONE) >= multiply(bidIncrease, bids[id].bidAmount), \"BurningSurplusAuctionHouse/insufficient-increase\");\n\n        if (msg.sender != bids[id].highBidder) {\n            protocolToken.move(msg.sender, bids[id].highBidder, bids[id].bidAmount);\n            bids[id].highBidder = msg.sender;\n        }\n        protocolToken.move(msg.sender, address(this), bid - bids[id].bidAmount);\n\n        bids[id].bidAmount = bid;\n        bids[id].bidExpiry = addUint48(uint48(now), bidDuration);\n\n        emit IncreaseBidSize(id, msg.sender, amountToBuy, bid, bids[id].bidExpiry);\n    }\n    /**\n     * @notice Settle/finish an auction\n     * @param id ID of the auction to settle\n     */\n    function settleAuction(uint256 id) external {\n        require(contractEnabled == 1, \"BurningSurplusAuctionHouse/contract-not-enabled\");\n        require(bids[id].bidExpiry != 0 && (bids[id].bidExpiry < now || bids[id].auctionDeadline < now), \"BurningSurplusAuctionHouse/not-finished\");\n        safeEngine.transferInternalCoins(address(this), bids[id].highBidder, bids[id].amountToSell);\n        protocolToken.burn(address(this), bids[id].bidAmount);\n        delete bids[id];\n        emit SettleAuction(id);\n    }\n    /**\n    * @notice Disable the auction house (usually called by AccountingEngine)\n    **/\n    function disableContract() external isAuthorized {\n        contractEnabled = 0;\n        safeEngine.transferInternalCoins(address(this), msg.sender, safeEngine.coinBalance(address(this)));\n        emit DisableContract();\n    }\n    /**\n     * @notice Terminate an auction prematurely.\n     * @param id ID of the auction to settle/terminate\n     */\n    function terminateAuctionPrematurely(uint256 id) external {\n        require(contractEnabled == 0, \"BurningSurplusAuctionHouse/contract-still-enabled\");\n        require(bids[id].highBidder != address(0), \"BurningSurplusAuctionHouse/high-bidder-not-set\");\n        protocolToken.move(address(this), bids[id].highBidder, bids[id].bidAmount);\n        emit TerminateAuctionPrematurely(id, msg.sender, bids[id].highBidder, bids[id].bidAmount);\n        delete bids[id];\n    }\n}\n\n// This thing lets you auction surplus for protocol tokens that are then sent to another address\n\ncontract RecyclingSurplusAuctionHouse {\n    // --- Auth ---\n    mapping (address => uint256) public authorizedAccounts;\n    /**\n     * @notice Add auth to an account\n     * @param account Account to add auth to\n     */\n    function addAuthorization(address account) external isAuthorized {\n        authorizedAccounts[account] = 1;\n        emit AddAuthorization(account);\n    }\n    /**\n     * @notice Remove auth from an account\n     * @param account Account to remove auth from\n     */\n    function removeAuthorization(address account) external isAuthorized {\n        authorizedAccounts[account] = 0;\n        emit RemoveAuthorization(account);\n    }\n    /**\n    * @notice Checks whether msg.sender can call an authed function\n    **/\n    modifier isAuthorized {\n        require(authorizedAccounts[msg.sender] == 1, \"RecyclingSurplusAuctionHouse/account-not-authorized\");\n        _;\n    }\n\n    // --- Data ---\n    struct Bid {\n        // Bid size (how many protocol tokens are offered per system coins sold)\n        uint256 bidAmount;                                                            // [wad]\n        // How many system coins are sold in an auction\n        uint256 amountToSell;                                                         // [rad]\n        // Who the high bidder is\n        address highBidder;\n        // When the latest bid expires and the auction can be settled\n        uint48  bidExpiry;                                                            // [unix epoch time]\n        // Hard deadline for the auction after which no more bids can be placed\n        uint48  auctionDeadline;                                                      // [unix epoch time]\n    }\n\n    // Bid data for each separate auction\n    mapping (uint256 => Bid) public bids;\n\n    // SAFE database\n    SAFEEngineLike public safeEngine;\n    // Protocol token address\n    TokenLike      public protocolToken;\n    // Receiver of protocol tokens\n    address        public protocolTokenBidReceiver;\n\n    uint256  constant ONE = 1.00E18;                                                  // [wad]\n    // Minimum bid increase compared to the last bid in order to take the new one in consideration\n    uint256  public   bidIncrease = 1.05E18;                                          // [wad]\n    // How long the auction lasts after a new bid is submitted\n    uint48   public   bidDuration = 3 hours;                                          // [seconds]\n    // Total length of the auction\n    uint48   public   totalAuctionLength = 2 days;                                    // [seconds]\n    // Number of auctions started up until now\n    uint256  public   auctionsStarted = 0;\n    // Whether the contract is settled or not\n    uint256  public   contractEnabled;\n\n    bytes32 public constant AUCTION_HOUSE_TYPE = bytes32(\"SURPLUS\");\n    bytes32 public constant SURPLUS_AUCTION_TYPE = bytes32(\"RECYCLING\");\n\n    // --- Events ---\n    event AddAuthorization(address account);\n    event RemoveAuthorization(address account);\n    event ModifyParameters(bytes32 parameter, uint256 data);\n    event ModifyParameters(bytes32 parameter, address addr);\n    event RestartAuction(uint256 id, uint256 auctionDeadline);\n    event IncreaseBidSize(uint256 id, address highBidder, uint256 amountToBuy, uint256 bid, uint256 bidExpiry);\n    event StartAuction(\n        uint256 indexed id,\n        uint256 auctionsStarted,\n        uint256 amountToSell,\n        uint256 initialBid,\n        uint256 auctionDeadline\n    );\n    event SettleAuction(uint256 indexed id);\n    event DisableContract();\n    event TerminateAuctionPrematurely(uint256 indexed id, address sender, address highBidder, uint256 bidAmount);\n\n    // --- Init ---\n    constructor(address safeEngine_, address protocolToken_) public {\n        authorizedAccounts[msg.sender] = 1;\n        safeEngine = SAFEEngineLike(safeEngine_);\n        protocolToken = TokenLike(protocolToken_);\n        contractEnabled = 1;\n        emit AddAuthorization(msg.sender);\n    }\n\n    // --- Math ---\n    function addUint48(uint48 x, uint48 y) internal pure returns (uint48 z) {\n        require((z = x + y) >= x, \"RecyclingSurplusAuctionHouse/add-uint48-overflow\");\n    }\n    function multiply(uint256 x, uint256 y) internal pure returns (uint256 z) {\n        require(y == 0 || (z = x * y) / y == x, \"RecyclingSurplusAuctionHouse/mul-overflow\");\n    }\n\n    // --- Admin ---\n    /**\n     * @notice Modify uint256 parameters\n     * @param parameter The name of the parameter modified\n     * @param data New value for the parameter\n     */\n    function modifyParameters(bytes32 parameter, uint256 data) external isAuthorized {\n        if (parameter == \"bidIncrease\") bidIncrease = data;\n        else if (parameter == \"bidDuration\") bidDuration = uint48(data);\n        else if (parameter == \"totalAuctionLength\") totalAuctionLength = uint48(data);\n        else revert(\"RecyclingSurplusAuctionHouse/modify-unrecognized-param\");\n        emit ModifyParameters(parameter, data);\n    }\n    /**\n     * @notice Modify address parameters\n     * @param parameter The name of the parameter modified\n     * @param addr New address value\n     */\n    function modifyParameters(bytes32 parameter, address addr) external isAuthorized {\n        require(addr != address(0), \"RecyclingSurplusAuctionHouse/invalid-address\");\n        if (parameter == \"protocolTokenBidReceiver\") protocolTokenBidReceiver = addr;\n        else revert(\"RecyclingSurplusAuctionHouse/modify-unrecognized-param\");\n        emit ModifyParameters(parameter, addr);\n    }\n\n    // --- Auction ---\n    /**\n     * @notice Start a new surplus auction\n     * @param amountToSell Total amount of system coins to sell (rad)\n     * @param initialBid Initial protocol token bid (wad)\n     */\n    function startAuction(uint256 amountToSell, uint256 initialBid) external isAuthorized returns (uint256 id) {\n        require(contractEnabled == 1, \"RecyclingSurplusAuctionHouse/contract-not-enabled\");\n        require(auctionsStarted < uint256(-1), \"RecyclingSurplusAuctionHouse/overflow\");\n        require(protocolTokenBidReceiver != address(0), \"RecyclingSurplusAuctionHouse/null-prot-token-receiver\");\n        id = ++auctionsStarted;\n\n        bids[id].bidAmount = initialBid;\n        bids[id].amountToSell = amountToSell;\n        bids[id].highBidder = msg.sender;\n        bids[id].auctionDeadline = addUint48(uint48(now), totalAuctionLength);\n\n        safeEngine.transferInternalCoins(msg.sender, address(this), amountToSell);\n\n        emit StartAuction(id, auctionsStarted, amountToSell, initialBid, bids[id].auctionDeadline);\n    }\n    /**\n     * @notice Restart an auction if no bids were submitted for it\n     * @param id ID of the auction to restart\n     */\n    function restartAuction(uint256 id) external {\n        require(bids[id].auctionDeadline < now, \"RecyclingSurplusAuctionHouse/not-finished\");\n        require(bids[id].bidExpiry == 0, \"RecyclingSurplusAuctionHouse/bid-already-placed\");\n        bids[id].auctionDeadline = addUint48(uint48(now), totalAuctionLength);\n        emit RestartAuction(id, bids[id].auctionDeadline);\n    }\n    /**\n     * @notice Submit a higher protocol token bid for the same amount of system coins\n     * @param id ID of the auction you want to submit the bid for\n     * @param amountToBuy Amount of system coins to buy (rad)\n     * @param bid New bid submitted (wad)\n     */\n    function increaseBidSize(uint256 id, uint256 amountToBuy, uint256 bid) external {\n        require(contractEnabled == 1, \"RecyclingSurplusAuctionHouse/contract-not-enabled\");\n        require(bids[id].highBidder != address(0), \"RecyclingSurplusAuctionHouse/high-bidder-not-set\");\n        require(bids[id].bidExpiry > now || bids[id].bidExpiry == 0, \"RecyclingSurplusAuctionHouse/bid-already-expired\");\n        require(bids[id].auctionDeadline > now, \"RecyclingSurplusAuctionHouse/auction-already-expired\");\n\n        require(amountToBuy == bids[id].amountToSell, \"RecyclingSurplusAuctionHouse/amounts-not-matching\");\n        require(bid > bids[id].bidAmount, \"RecyclingSurplusAuctionHouse/bid-not-higher\");\n        require(multiply(bid, ONE) >= multiply(bidIncrease, bids[id].bidAmount), \"RecyclingSurplusAuctionHouse/insufficient-increase\");\n\n        if (msg.sender != bids[id].highBidder) {\n            protocolToken.move(msg.sender, bids[id].highBidder, bids[id].bidAmount);\n            bids[id].highBidder = msg.sender;\n        }\n        protocolToken.move(msg.sender, address(this), bid - bids[id].bidAmount);\n\n        bids[id].bidAmount = bid;\n        bids[id].bidExpiry = addUint48(uint48(now), bidDuration);\n\n        emit IncreaseBidSize(id, msg.sender, amountToBuy, bid, bids[id].bidExpiry);\n    }\n    /**\n     * @notice Settle/finish an auction\n     * @param id ID of the auction to settle\n     */\n    function settleAuction(uint256 id) external {\n        require(contractEnabled == 1, \"RecyclingSurplusAuctionHouse/contract-not-enabled\");\n        require(bids[id].bidExpiry != 0 && (bids[id].bidExpiry < now || bids[id].auctionDeadline < now), \"RecyclingSurplusAuctionHouse/not-finished\");\n        safeEngine.transferInternalCoins(address(this), bids[id].highBidder, bids[id].amountToSell);\n        protocolToken.move(address(this), protocolTokenBidReceiver, bids[id].bidAmount);\n        delete bids[id];\n        emit SettleAuction(id);\n    }\n    /**\n    * @notice Disable the auction house (usually called by AccountingEngine)\n    **/\n    function disableContract() external isAuthorized {\n        contractEnabled = 0;\n        safeEngine.transferInternalCoins(address(this), msg.sender, safeEngine.coinBalance(address(this)));\n        emit DisableContract();\n    }\n    /**\n     * @notice Terminate an auction prematurely.\n     * @param id ID of the auction to settle/terminate\n     */\n    function terminateAuctionPrematurely(uint256 id) external {\n        require(contractEnabled == 0, \"RecyclingSurplusAuctionHouse/contract-still-enabled\");\n        require(bids[id].highBidder != address(0), \"RecyclingSurplusAuctionHouse/high-bidder-not-set\");\n        protocolToken.move(address(this), bids[id].highBidder, bids[id].bidAmount);\n        emit TerminateAuctionPrematurely(id, msg.sender, bids[id].highBidder, bids[id].bidAmount);\n        delete bids[id];\n    }\n}\n\ncontract PostSettlementSurplusAuctionHouse {\n    // --- Auth ---\n    mapping (address => uint256) public authorizedAccounts;\n    /**\n     * @notice Add auth to an account\n     * @param account Account to add auth to\n     */\n    function addAuthorization(address account) external isAuthorized {\n        authorizedAccounts[account] = 1;\n        emit AddAuthorization(account);\n    }\n    /**\n     * @notice Remove auth from an account\n     * @param account Account to remove auth from\n     */\n    function removeAuthorization(address account) external isAuthorized {\n        authorizedAccounts[account] = 0;\n        emit RemoveAuthorization(account);\n    }\n    /**\n    * @notice Checks whether msg.sender can call an authed function\n    **/\n    modifier isAuthorized {\n        require(authorizedAccounts[msg.sender] == 1, \"PostSettlementSurplusAuctionHouse/account-not-authorized\");\n        _;\n    }\n\n    // --- Data ---\n    struct Bid {\n        // Bid size (how many protocol tokens are offered per system coins sold)\n        uint256 bidAmount;                                                        // [rad]\n        // How many system coins are sold in an auction\n        uint256 amountToSell;                                                     // [wad]\n        // Who the high bidder is\n        address highBidder;\n        // When the latest bid expires and the auction can be settled\n        uint48  bidExpiry;                                                        // [unix epoch time]\n        // Hard deadline for the auction after which no more bids can be placed\n        uint48  auctionDeadline;                                                  // [unix epoch time]\n    }\n\n    // Bid data for each separate auction\n    mapping (uint256 => Bid) public bids;\n\n    // SAFE database\n    SAFEEngineLike        public safeEngine;\n    // Protocol token address\n    TokenLike            public protocolToken;\n\n    uint256  constant ONE = 1.00E18;                                              // [wad]\n    // Minimum bid increase compared to the last bid in order to take the new one in consideration\n    uint256  public   bidIncrease = 1.05E18;                                      // [wad]\n    // How long the auction lasts after a new bid is submitted\n    uint48   public   bidDuration = 3 hours;                                      // [seconds]\n    // Total length of the auction\n    uint48   public   totalAuctionLength = 2 days;                                // [seconds]\n    // Number of auctions started up until now\n    uint256  public   auctionsStarted = 0;\n\n    bytes32 public constant AUCTION_HOUSE_TYPE = bytes32(\"SURPLUS\");\n\n    // --- Events ---\n    event AddAuthorization(address account);\n    event RemoveAuthorization(address account);\n    event ModifyParameters(bytes32 parameter, uint256 data);\n    event RestartAuction(uint256 indexed id, uint256 auctionDeadline);\n    event IncreaseBidSize(uint256 indexed id, address highBidder, uint256 amountToBuy, uint256 bid, uint256 bidExpiry);\n    event StartAuction(\n        uint256 indexed id,\n        uint256 auctionsStarted,\n        uint256 amountToSell,\n        uint256 initialBid,\n        uint256 auctionDeadline\n    );\n    event SettleAuction(uint256 indexed id);\n\n    // --- Init ---\n    constructor(address safeEngine_, address protocolToken_) public {\n        authorizedAccounts[msg.sender] = 1;\n        safeEngine = SAFEEngineLike(safeEngine_);\n        protocolToken = TokenLike(protocolToken_);\n        emit AddAuthorization(msg.sender);\n    }\n\n    // --- Math ---\n    function addUint48(uint48 x, uint48 y) internal pure returns (uint48 z) {\n        require((z = x + y) >= x);\n    }\n    function multiply(uint256 x, uint256 y) internal pure returns (uint256 z) {\n        require(y == 0 || (z = x * y) / y == x);\n    }\n\n    // --- Admin ---\n    /**\n     * @notice Modify uint256 parameters\n     * @param parameter The name of the parameter modified\n     * @param data New value for the parameter\n     */\n    function modifyParameters(bytes32 parameter, uint256 data) external isAuthorized {\n        if (parameter == \"bidIncrease\") bidIncrease = data;\n        else if (parameter == \"bidDuration\") bidDuration = uint48(data);\n        else if (parameter == \"totalAuctionLength\") totalAuctionLength = uint48(data);\n        else revert(\"PostSettlementSurplusAuctionHouse/modify-unrecognized-param\");\n        emit ModifyParameters(parameter, data);\n    }\n\n    // --- Auction ---\n    /**\n     * @notice Start a new surplus auction\n     * @param amountToSell Total amount of system coins to sell (wad)\n     * @param initialBid Initial protocol token bid (rad)\n     */\n    function startAuction(uint256 amountToSell, uint256 initialBid) external isAuthorized returns (uint256 id) {\n        require(auctionsStarted < uint256(-1), \"PostSettlementSurplusAuctionHouse/overflow\");\n        id = ++auctionsStarted;\n\n        bids[id].bidAmount = initialBid;\n        bids[id].amountToSell = amountToSell;\n        bids[id].highBidder = msg.sender;\n        bids[id].auctionDeadline = addUint48(uint48(now), totalAuctionLength);\n\n        safeEngine.transferInternalCoins(msg.sender, address(this), amountToSell);\n\n        emit StartAuction(id, auctionsStarted, amountToSell, initialBid, bids[id].auctionDeadline);\n    }\n    /**\n     * @notice Restart an auction if no bids were submitted for it\n     * @param id ID of the auction to restart\n     */\n    function restartAuction(uint256 id) external {\n        require(bids[id].auctionDeadline < now, \"PostSettlementSurplusAuctionHouse/not-finished\");\n        require(bids[id].bidExpiry == 0, \"PostSettlementSurplusAuctionHouse/bid-already-placed\");\n        bids[id].auctionDeadline = addUint48(uint48(now), totalAuctionLength);\n        emit RestartAuction(id, bids[id].auctionDeadline);\n    }\n    /**\n     * @notice Submit a higher protocol token bid for the same amount of system coins\n     * @param id ID of the auction you want to submit the bid for\n     * @param amountToBuy Amount of system coins to buy (wad)\n     * @param bid New bid submitted (rad)\n     */\n    function increaseBidSize(uint256 id, uint256 amountToBuy, uint256 bid) external {\n        require(bids[id].highBidder != address(0), \"PostSettlementSurplusAuctionHouse/high-bidder-not-set\");\n        require(bids[id].bidExpiry > now || bids[id].bidExpiry == 0, \"PostSettlementSurplusAuctionHouse/bid-already-expired\");\n        require(bids[id].auctionDeadline > now, \"PostSettlementSurplusAuctionHouse/auction-already-expired\");\n\n        require(amountToBuy == bids[id].amountToSell, \"PostSettlementSurplusAuctionHouse/amounts-not-matching\");\n        require(bid > bids[id].bidAmount, \"PostSettlementSurplusAuctionHouse/bid-not-higher\");\n        require(multiply(bid, ONE) >= multiply(bidIncrease, bids[id].bidAmount), \"PostSettlementSurplusAuctionHouse/insufficient-increase\");\n\n        if (msg.sender != bids[id].highBidder) {\n            protocolToken.move(msg.sender, bids[id].highBidder, bids[id].bidAmount);\n            bids[id].highBidder = msg.sender;\n        }\n        protocolToken.move(msg.sender, address(this), bid - bids[id].bidAmount);\n\n        bids[id].bidAmount = bid;\n        bids[id].bidExpiry = addUint48(uint48(now), bidDuration);\n\n        emit IncreaseBidSize(id, msg.sender, amountToBuy, bid, bids[id].bidExpiry);\n    }\n    /**\n     * @notice Settle/finish an auction\n     * @param id ID of the auction to settle\n     */\n    function settleAuction(uint256 id) external {\n        require(bids[id].bidExpiry != 0 && (bids[id].bidExpiry < now || bids[id].auctionDeadline < now), \"PostSettlementSurplusAuctionHouse/not-finished\");\n        safeEngine.transferInternalCoins(address(this), bids[id].highBidder, bids[id].amountToSell);\n        protocolToken.burn(address(this), bids[id].bidAmount);\n        delete bids[id];\n        emit SettleAuction(id);\n    }\n}\n",
  "sourcePath": "/Users/dhruv/Documents/tao/geb/B-RAI_contracts/contracts/SurplusAuctionHouse.sol",
  "compiler": {
    "name": "solc",
    "version": "0.6.7+commit.b8d736ae.Emscripten.clang"
  },
  "schemaVersion": "3.4.1",
  "updatedAt": "2021-07-20T23:33:35.485Z",
  "devdoc": {
    "methods": {
      "addAuthorization(address)": {
        "params": {
          "account": "Account to add auth to"
        }
      },
      "increaseBidSize(uint256,uint256,uint256)": {
        "params": {
          "amountToBuy": "Amount of system coins to buy (rad)",
          "bid": "New bid submitted (wad)",
          "id": "ID of the auction you want to submit the bid for"
        }
      },
      "modifyParameters(bytes32,address)": {
        "params": {
          "addr": "New address value",
          "parameter": "The name of the parameter modified"
        }
      },
      "modifyParameters(bytes32,uint256)": {
        "params": {
          "data": "New value for the parameter",
          "parameter": "The name of the parameter modified"
        }
      },
      "removeAuthorization(address)": {
        "params": {
          "account": "Account to remove auth from"
        }
      },
      "restartAuction(uint256)": {
        "params": {
          "id": "ID of the auction to restart"
        }
      },
      "settleAuction(uint256)": {
        "params": {
          "id": "ID of the auction to settle"
        }
      },
      "startAuction(uint256,uint256)": {
        "params": {
          "amountToSell": "Total amount of system coins to sell (rad)",
          "initialBid": "Initial protocol token bid (wad)"
        }
      },
      "terminateAuctionPrematurely(uint256)": {
        "params": {
          "id": "ID of the auction to settle/terminate"
        }
      }
    }
  },
  "userdoc": {
    "methods": {
      "addAuthorization(address)": {
        "notice": "Add auth to an account"
      },
      "disableContract()": {
        "notice": "Disable the auction house (usually called by AccountingEngine)*"
      },
      "increaseBidSize(uint256,uint256,uint256)": {
        "notice": "Submit a higher protocol token bid for the same amount of system coins"
      },
      "modifyParameters(bytes32,address)": {
        "notice": "Modify address parameters"
      },
      "modifyParameters(bytes32,uint256)": {
        "notice": "Modify uint256 parameters"
      },
      "removeAuthorization(address)": {
        "notice": "Remove auth from an account"
      },
      "restartAuction(uint256)": {
        "notice": "Restart an auction if no bids were submitted for it"
      },
      "settleAuction(uint256)": {
        "notice": "Settle/finish an auction"
      },
      "startAuction(uint256,uint256)": {
        "notice": "Start a new surplus auction"
      },
      "terminateAuctionPrematurely(uint256)": {
        "notice": "Terminate an auction prematurely."
      }
    }
  }
}