{
  "contractName": "SAFEEngine",
  "abi": [
    {
      "inputs": [],
      "stateMutability": "nonpayable",
      "type": "constructor"
    },
    {
      "anonymous": false,
      "inputs": [
        {
          "indexed": false,
          "internalType": "address",
          "name": "account",
          "type": "address"
        }
      ],
      "name": "AddAuthorization",
      "type": "event"
    },
    {
      "anonymous": false,
      "inputs": [
        {
          "indexed": false,
          "internalType": "address",
          "name": "sender",
          "type": "address"
        },
        {
          "indexed": false,
          "internalType": "address",
          "name": "account",
          "type": "address"
        }
      ],
      "name": "ApproveSAFEModification",
      "type": "event"
    },
    {
      "anonymous": false,
      "inputs": [
        {
          "indexed": true,
          "internalType": "bytes32",
          "name": "collateralType",
          "type": "bytes32"
        },
        {
          "indexed": true,
          "internalType": "address",
          "name": "safe",
          "type": "address"
        },
        {
          "indexed": false,
          "internalType": "address",
          "name": "collateralCounterparty",
          "type": "address"
        },
        {
          "indexed": false,
          "internalType": "address",
          "name": "debtCounterparty",
          "type": "address"
        },
        {
          "indexed": false,
          "internalType": "int256",
          "name": "deltaCollateral",
          "type": "int256"
        },
        {
          "indexed": false,
          "internalType": "int256",
          "name": "deltaDebt",
          "type": "int256"
        },
        {
          "indexed": false,
          "internalType": "uint256",
          "name": "globalUnbackedDebt",
          "type": "uint256"
        }
      ],
      "name": "ConfiscateSAFECollateralAndDebt",
      "type": "event"
    },
    {
      "anonymous": false,
      "inputs": [
        {
          "indexed": true,
          "internalType": "address",
          "name": "debtDestination",
          "type": "address"
        },
        {
          "indexed": true,
          "internalType": "address",
          "name": "coinDestination",
          "type": "address"
        },
        {
          "indexed": false,
          "internalType": "uint256",
          "name": "rad",
          "type": "uint256"
        },
        {
          "indexed": false,
          "internalType": "uint256",
          "name": "debtDstBalance",
          "type": "uint256"
        },
        {
          "indexed": false,
          "internalType": "uint256",
          "name": "coinDstBalance",
          "type": "uint256"
        },
        {
          "indexed": false,
          "internalType": "uint256",
          "name": "globalUnbackedDebt",
          "type": "uint256"
        },
        {
          "indexed": false,
          "internalType": "uint256",
          "name": "globalDebt",
          "type": "uint256"
        }
      ],
      "name": "CreateUnbackedDebt",
      "type": "event"
    },
    {
      "anonymous": false,
      "inputs": [
        {
          "indexed": false,
          "internalType": "address",
          "name": "sender",
          "type": "address"
        },
        {
          "indexed": false,
          "internalType": "address",
          "name": "account",
          "type": "address"
        }
      ],
      "name": "DenySAFEModification",
      "type": "event"
    },
    {
      "anonymous": false,
      "inputs": [],
      "name": "DisableContract",
      "type": "event"
    },
    {
      "anonymous": false,
      "inputs": [
        {
          "indexed": false,
          "internalType": "bytes32",
          "name": "collateralType",
          "type": "bytes32"
        }
      ],
      "name": "InitializeCollateralType",
      "type": "event"
    },
    {
      "anonymous": false,
      "inputs": [
        {
          "indexed": true,
          "internalType": "bytes32",
          "name": "collateralType",
          "type": "bytes32"
        },
        {
          "indexed": true,
          "internalType": "address",
          "name": "account",
          "type": "address"
        },
        {
          "indexed": false,
          "internalType": "int256",
          "name": "wad",
          "type": "int256"
        }
      ],
      "name": "ModifyCollateralBalance",
      "type": "event"
    },
    {
      "anonymous": false,
      "inputs": [
        {
          "indexed": false,
          "internalType": "bytes32",
          "name": "parameter",
          "type": "bytes32"
        },
        {
          "indexed": false,
          "internalType": "uint256",
          "name": "data",
          "type": "uint256"
        }
      ],
      "name": "ModifyParameters",
      "type": "event"
    },
    {
      "anonymous": false,
      "inputs": [
        {
          "indexed": false,
          "internalType": "bytes32",
          "name": "collateralType",
          "type": "bytes32"
        },
        {
          "indexed": false,
          "internalType": "bytes32",
          "name": "parameter",
          "type": "bytes32"
        },
        {
          "indexed": false,
          "internalType": "uint256",
          "name": "data",
          "type": "uint256"
        }
      ],
      "name": "ModifyParameters",
      "type": "event"
    },
    {
      "anonymous": false,
      "inputs": [
        {
          "indexed": true,
          "internalType": "bytes32",
          "name": "collateralType",
          "type": "bytes32"
        },
        {
          "indexed": true,
          "internalType": "address",
          "name": "safe",
          "type": "address"
        },
        {
          "indexed": false,
          "internalType": "address",
          "name": "collateralSource",
          "type": "address"
        },
        {
          "indexed": false,
          "internalType": "address",
          "name": "debtDestination",
          "type": "address"
        },
        {
          "indexed": false,
          "internalType": "int256",
          "name": "deltaCollateral",
          "type": "int256"
        },
        {
          "indexed": false,
          "internalType": "int256",
          "name": "deltaDebt",
          "type": "int256"
        },
        {
          "indexed": false,
          "internalType": "uint256",
          "name": "lockedCollateral",
          "type": "uint256"
        },
        {
          "indexed": false,
          "internalType": "uint256",
          "name": "generatedDebt",
          "type": "uint256"
        },
        {
          "indexed": false,
          "internalType": "uint256",
          "name": "globalDebt",
          "type": "uint256"
        }
      ],
      "name": "ModifySAFECollateralization",
      "type": "event"
    },
    {
      "anonymous": false,
      "inputs": [
        {
          "indexed": false,
          "internalType": "address",
          "name": "account",
          "type": "address"
        }
      ],
      "name": "RemoveAuthorization",
      "type": "event"
    },
    {
      "anonymous": false,
      "inputs": [
        {
          "indexed": true,
          "internalType": "address",
          "name": "account",
          "type": "address"
        },
        {
          "indexed": false,
          "internalType": "uint256",
          "name": "rad",
          "type": "uint256"
        },
        {
          "indexed": false,
          "internalType": "uint256",
          "name": "debtBalance",
          "type": "uint256"
        },
        {
          "indexed": false,
          "internalType": "uint256",
          "name": "coinBalance",
          "type": "uint256"
        },
        {
          "indexed": false,
          "internalType": "uint256",
          "name": "globalUnbackedDebt",
          "type": "uint256"
        },
        {
          "indexed": false,
          "internalType": "uint256",
          "name": "globalDebt",
          "type": "uint256"
        }
      ],
      "name": "SettleDebt",
      "type": "event"
    },
    {
      "anonymous": false,
      "inputs": [
        {
          "indexed": true,
          "internalType": "bytes32",
          "name": "collateralType",
          "type": "bytes32"
        },
        {
          "indexed": true,
          "internalType": "address",
          "name": "src",
          "type": "address"
        },
        {
          "indexed": true,
          "internalType": "address",
          "name": "dst",
          "type": "address"
        },
        {
          "indexed": false,
          "internalType": "uint256",
          "name": "wad",
          "type": "uint256"
        }
      ],
      "name": "TransferCollateral",
      "type": "event"
    },
    {
      "anonymous": false,
      "inputs": [
        {
          "indexed": true,
          "internalType": "address",
          "name": "src",
          "type": "address"
        },
        {
          "indexed": true,
          "internalType": "address",
          "name": "dst",
          "type": "address"
        },
        {
          "indexed": false,
          "internalType": "uint256",
          "name": "rad",
          "type": "uint256"
        }
      ],
      "name": "TransferInternalCoins",
      "type": "event"
    },
    {
      "anonymous": false,
      "inputs": [
        {
          "indexed": true,
          "internalType": "bytes32",
          "name": "collateralType",
          "type": "bytes32"
        },
        {
          "indexed": true,
          "internalType": "address",
          "name": "src",
          "type": "address"
        },
        {
          "indexed": true,
          "internalType": "address",
          "name": "dst",
          "type": "address"
        },
        {
          "indexed": false,
          "internalType": "int256",
          "name": "deltaCollateral",
          "type": "int256"
        },
        {
          "indexed": false,
          "internalType": "int256",
          "name": "deltaDebt",
          "type": "int256"
        },
        {
          "indexed": false,
          "internalType": "uint256",
          "name": "srcLockedCollateral",
          "type": "uint256"
        },
        {
          "indexed": false,
          "internalType": "uint256",
          "name": "srcGeneratedDebt",
          "type": "uint256"
        },
        {
          "indexed": false,
          "internalType": "uint256",
          "name": "dstLockedCollateral",
          "type": "uint256"
        },
        {
          "indexed": false,
          "internalType": "uint256",
          "name": "dstGeneratedDebt",
          "type": "uint256"
        }
      ],
      "name": "TransferSAFECollateralAndDebt",
      "type": "event"
    },
    {
      "anonymous": false,
      "inputs": [
        {
          "indexed": true,
          "internalType": "bytes32",
          "name": "collateralType",
          "type": "bytes32"
        },
        {
          "indexed": false,
          "internalType": "address",
          "name": "surplusDst",
          "type": "address"
        },
        {
          "indexed": false,
          "internalType": "int256",
          "name": "rateMultiplier",
          "type": "int256"
        },
        {
          "indexed": false,
          "internalType": "uint256",
          "name": "dstCoinBalance",
          "type": "uint256"
        },
        {
          "indexed": false,
          "internalType": "uint256",
          "name": "globalDebt",
          "type": "uint256"
        }
      ],
      "name": "UpdateAccumulatedRate",
      "type": "event"
    },
    {
      "inputs": [
        {
          "internalType": "address",
          "name": "",
          "type": "address"
        }
      ],
      "name": "authorizedAccounts",
      "outputs": [
        {
          "internalType": "uint256",
          "name": "",
          "type": "uint256"
        }
      ],
      "stateMutability": "view",
      "type": "function"
    },
    {
      "inputs": [
        {
          "internalType": "address",
          "name": "",
          "type": "address"
        }
      ],
      "name": "coinBalance",
      "outputs": [
        {
          "internalType": "uint256",
          "name": "",
          "type": "uint256"
        }
      ],
      "stateMutability": "view",
      "type": "function"
    },
    {
      "inputs": [
        {
          "internalType": "bytes32",
          "name": "",
          "type": "bytes32"
        }
      ],
      "name": "collateralTypes",
      "outputs": [
        {
          "internalType": "uint256",
          "name": "debtAmount",
          "type": "uint256"
        },
        {
          "internalType": "uint256",
          "name": "accumulatedRate",
          "type": "uint256"
        },
        {
          "internalType": "uint256",
          "name": "safetyPrice",
          "type": "uint256"
        },
        {
          "internalType": "uint256",
          "name": "debtCeiling",
          "type": "uint256"
        },
        {
          "internalType": "uint256",
          "name": "debtFloor",
          "type": "uint256"
        },
        {
          "internalType": "uint256",
          "name": "liquidationPrice",
          "type": "uint256"
        }
      ],
      "stateMutability": "view",
      "type": "function"
    },
    {
      "inputs": [],
      "name": "contractEnabled",
      "outputs": [
        {
          "internalType": "uint256",
          "name": "",
          "type": "uint256"
        }
      ],
      "stateMutability": "view",
      "type": "function"
    },
    {
      "inputs": [
        {
          "internalType": "address",
          "name": "",
          "type": "address"
        }
      ],
      "name": "debtBalance",
      "outputs": [
        {
          "internalType": "uint256",
          "name": "",
          "type": "uint256"
        }
      ],
      "stateMutability": "view",
      "type": "function"
    },
    {
      "inputs": [],
      "name": "globalDebt",
      "outputs": [
        {
          "internalType": "uint256",
          "name": "",
          "type": "uint256"
        }
      ],
      "stateMutability": "view",
      "type": "function"
    },
    {
      "inputs": [],
      "name": "globalDebtCeiling",
      "outputs": [
        {
          "internalType": "uint256",
          "name": "",
          "type": "uint256"
        }
      ],
      "stateMutability": "view",
      "type": "function"
    },
    {
      "inputs": [],
      "name": "globalUnbackedDebt",
      "outputs": [
        {
          "internalType": "uint256",
          "name": "",
          "type": "uint256"
        }
      ],
      "stateMutability": "view",
      "type": "function"
    },
    {
      "inputs": [],
      "name": "safeDebtCeiling",
      "outputs": [
        {
          "internalType": "uint256",
          "name": "",
          "type": "uint256"
        }
      ],
      "stateMutability": "view",
      "type": "function"
    },
    {
      "inputs": [
        {
          "internalType": "address",
          "name": "",
          "type": "address"
        },
        {
          "internalType": "address",
          "name": "",
          "type": "address"
        }
      ],
      "name": "safeRights",
      "outputs": [
        {
          "internalType": "uint256",
          "name": "",
          "type": "uint256"
        }
      ],
      "stateMutability": "view",
      "type": "function"
    },
    {
      "inputs": [
        {
          "internalType": "bytes32",
          "name": "",
          "type": "bytes32"
        },
        {
          "internalType": "address",
          "name": "",
          "type": "address"
        }
      ],
      "name": "safes",
      "outputs": [
        {
          "internalType": "uint256",
          "name": "lockedCollateral",
          "type": "uint256"
        },
        {
          "internalType": "uint256",
          "name": "generatedDebt",
          "type": "uint256"
        }
      ],
      "stateMutability": "view",
      "type": "function"
    },
    {
      "inputs": [
        {
          "internalType": "bytes32",
          "name": "",
          "type": "bytes32"
        },
        {
          "internalType": "address",
          "name": "",
          "type": "address"
        }
      ],
      "name": "tokenCollateral",
      "outputs": [
        {
          "internalType": "uint256",
          "name": "",
          "type": "uint256"
        }
      ],
      "stateMutability": "view",
      "type": "function"
    },
    {
      "inputs": [
        {
          "internalType": "address",
          "name": "account",
          "type": "address"
        }
      ],
      "name": "addAuthorization",
      "outputs": [],
      "stateMutability": "nonpayable",
      "type": "function"
    },
    {
      "inputs": [
        {
          "internalType": "address",
          "name": "account",
          "type": "address"
        }
      ],
      "name": "removeAuthorization",
      "outputs": [],
      "stateMutability": "nonpayable",
      "type": "function"
    },
    {
      "inputs": [
        {
          "internalType": "address",
          "name": "account",
          "type": "address"
        }
      ],
      "name": "approveSAFEModification",
      "outputs": [],
      "stateMutability": "nonpayable",
      "type": "function"
    },
    {
      "inputs": [
        {
          "internalType": "address",
          "name": "account",
          "type": "address"
        }
      ],
      "name": "denySAFEModification",
      "outputs": [],
      "stateMutability": "nonpayable",
      "type": "function"
    },
    {
      "inputs": [
        {
          "internalType": "address",
          "name": "safe",
          "type": "address"
        },
        {
          "internalType": "address",
          "name": "account",
          "type": "address"
        }
      ],
      "name": "canModifySAFE",
      "outputs": [
        {
          "internalType": "bool",
          "name": "",
          "type": "bool"
        }
      ],
      "stateMutability": "view",
      "type": "function"
    },
    {
      "inputs": [
        {
          "internalType": "bytes32",
          "name": "collateralType",
          "type": "bytes32"
        }
      ],
      "name": "initializeCollateralType",
      "outputs": [],
      "stateMutability": "nonpayable",
      "type": "function"
    },
    {
      "inputs": [
        {
          "internalType": "bytes32",
          "name": "collateralType",
          "type": "bytes32"
        },
        {
          "internalType": "bytes32",
          "name": "parameter",
          "type": "bytes32"
        },
        {
          "internalType": "uint256",
          "name": "data",
          "type": "uint256"
        }
      ],
      "name": "modifyParameters",
      "outputs": [],
      "stateMutability": "nonpayable",
      "type": "function"
    },
    {
      "inputs": [
        {
          "internalType": "bytes32",
          "name": "parameter",
          "type": "bytes32"
        },
        {
          "internalType": "uint256",
          "name": "data",
          "type": "uint256"
        }
      ],
      "name": "modifyParameters",
      "outputs": [],
      "stateMutability": "nonpayable",
      "type": "function"
    },
    {
      "inputs": [],
      "name": "disableContract",
      "outputs": [],
      "stateMutability": "nonpayable",
      "type": "function"
    },
    {
      "inputs": [
        {
          "internalType": "bytes32",
          "name": "collateralType",
          "type": "bytes32"
        },
        {
          "internalType": "address",
          "name": "account",
          "type": "address"
        },
        {
          "internalType": "int256",
          "name": "wad",
          "type": "int256"
        }
      ],
      "name": "modifyCollateralBalance",
      "outputs": [],
      "stateMutability": "nonpayable",
      "type": "function"
    },
    {
      "inputs": [
        {
          "internalType": "bytes32",
          "name": "collateralType",
          "type": "bytes32"
        },
        {
          "internalType": "address",
          "name": "src",
          "type": "address"
        },
        {
          "internalType": "address",
          "name": "dst",
          "type": "address"
        },
        {
          "internalType": "uint256",
          "name": "wad",
          "type": "uint256"
        }
      ],
      "name": "transferCollateral",
      "outputs": [],
      "stateMutability": "nonpayable",
      "type": "function"
    },
    {
      "inputs": [
        {
          "internalType": "address",
          "name": "src",
          "type": "address"
        },
        {
          "internalType": "address",
          "name": "dst",
          "type": "address"
        },
        {
          "internalType": "uint256",
          "name": "rad",
          "type": "uint256"
        }
      ],
      "name": "transferInternalCoins",
      "outputs": [],
      "stateMutability": "nonpayable",
      "type": "function"
    },
    {
      "inputs": [
        {
          "internalType": "bytes32",
          "name": "collateralType",
          "type": "bytes32"
        },
        {
          "internalType": "address",
          "name": "safe",
          "type": "address"
        },
        {
          "internalType": "address",
          "name": "collateralSource",
          "type": "address"
        },
        {
          "internalType": "address",
          "name": "debtDestination",
          "type": "address"
        },
        {
          "internalType": "int256",
          "name": "deltaCollateral",
          "type": "int256"
        },
        {
          "internalType": "int256",
          "name": "deltaDebt",
          "type": "int256"
        }
      ],
      "name": "modifySAFECollateralization",
      "outputs": [],
      "stateMutability": "nonpayable",
      "type": "function"
    },
    {
      "inputs": [
        {
          "internalType": "bytes32",
          "name": "collateralType",
          "type": "bytes32"
        },
        {
          "internalType": "address",
          "name": "src",
          "type": "address"
        },
        {
          "internalType": "address",
          "name": "dst",
          "type": "address"
        },
        {
          "internalType": "int256",
          "name": "deltaCollateral",
          "type": "int256"
        },
        {
          "internalType": "int256",
          "name": "deltaDebt",
          "type": "int256"
        }
      ],
      "name": "transferSAFECollateralAndDebt",
      "outputs": [],
      "stateMutability": "nonpayable",
      "type": "function"
    },
    {
      "inputs": [
        {
          "internalType": "bytes32",
          "name": "collateralType",
          "type": "bytes32"
        },
        {
          "internalType": "address",
          "name": "safe",
          "type": "address"
        },
        {
          "internalType": "address",
          "name": "collateralCounterparty",
          "type": "address"
        },
        {
          "internalType": "address",
          "name": "debtCounterparty",
          "type": "address"
        },
        {
          "internalType": "int256",
          "name": "deltaCollateral",
          "type": "int256"
        },
        {
          "internalType": "int256",
          "name": "deltaDebt",
          "type": "int256"
        }
      ],
      "name": "confiscateSAFECollateralAndDebt",
      "outputs": [],
      "stateMutability": "nonpayable",
      "type": "function"
    },
    {
      "inputs": [
        {
          "internalType": "uint256",
          "name": "rad",
          "type": "uint256"
        }
      ],
      "name": "settleDebt",
      "outputs": [],
      "stateMutability": "nonpayable",
      "type": "function"
    },
    {
      "inputs": [
        {
          "internalType": "address",
          "name": "debtDestination",
          "type": "address"
        },
        {
          "internalType": "address",
          "name": "coinDestination",
          "type": "address"
        },
        {
          "internalType": "uint256",
          "name": "rad",
          "type": "uint256"
        }
      ],
      "name": "createUnbackedDebt",
      "outputs": [],
      "stateMutability": "nonpayable",
      "type": "function"
    },
    {
      "inputs": [
        {
          "internalType": "bytes32",
          "name": "collateralType",
          "type": "bytes32"
        },
        {
          "internalType": "address",
          "name": "surplusDst",
          "type": "address"
        },
        {
          "internalType": "int256",
          "name": "rateMultiplier",
          "type": "int256"
        }
      ],
      "name": "updateAccumulatedRate",
      "outputs": [],
      "stateMutability": "nonpayable",
      "type": "function"
    }
  ],
  "bytecode": "0x608060405234801561001057600080fd5b5060016000803373ffffffffffffffffffffffffffffffffffffffff1673ffffffffffffffffffffffffffffffffffffffff168152602001908152602001600020819055507fffffffffffffffffffffffffffffffffffffffffffffffffffffffffffffffff6007819055506001600b819055507f599a298163e1678bb1c676052a8930bf0b8a1261ed6e01b8a2391e55f700010233604051808273ffffffffffffffffffffffffffffffffffffffff1673ffffffffffffffffffffffffffffffffffffffff16815260200191505060405180910390a17fac7c5c1afaef770ec56ac6268cd3f2fbb1035858ead2601d6553157c33036c3a7fffffffffffffffffffffffffffffffffffffffffffffffffffffffffffffffff60405180807f73616665446562744365696c696e67000000000000000000000000000000000081525060200182815260200191505060405180910390a1613ee3806101756000396000f3fe608060405234801561001057600080fd5b50600436106101da5760003560e01c806350de215d11610104578063d07900bb116100a2578063efabcadc11610071578063efabcadc14610a3f578063fabde80c14610aad578063fd450fb714610b05578063fe4f589014610b23576101da565b8063d07900bb14610910578063d49d786714610975578063d4b9311d146109b9578063d94d4208146109fb576101da565b80638543d5e0116100de5780638543d5e014610802578063894ba8331461082057806394f3f81d1461082a57806399bec3151461086e576101da565b806350de215d146106f65780635e4128581461077257806376e0b4ca146107a0576101da565b80632efcc8661161017c578063476bb6ef1161014b578063476bb6ef146105025780634a11825e146105845780634e14a967146105dc5780634e5111a61461067e576101da565b80632efcc8661461041957806335b28153146104375780633d4225041461047b57806341b3a0d9146104e4576101da565b80631b142820116101b85780631b142820146103075780631d2a783d1461037557806324ba58841461039357806327a0bb33146103eb576101da565b806306eb54df146101df5780630e9e11d31461025757806311005b07146102af575b600080fd5b610241600480360360408110156101f557600080fd5b81019080803573ffffffffffffffffffffffffffffffffffffffff169060200190929190803573ffffffffffffffffffffffffffffffffffffffff169060200190929190505050610b5b565b6040518082815260200191505060405180910390f35b6102ad6004803603606081101561026d57600080fd5b8101908080359060200190929190803573ffffffffffffffffffffffffffffffffffffffff16906020019092919080359060200190929190505050610b80565b005b6102f1600480360360208110156102c557600080fd5b81019080803573ffffffffffffffffffffffffffffffffffffffff169060200190929190505050610e30565b6040518082815260200191505060405180910390f35b6103736004803603606081101561031d57600080fd5b81019080803573ffffffffffffffffffffffffffffffffffffffff169060200190929190803573ffffffffffffffffffffffffffffffffffffffff16906020019092919080359060200190929190505050610e48565b005b61037d611127565b6040518082815260200191505060405180910390f35b6103d5600480360360208110156103a957600080fd5b81019080803573ffffffffffffffffffffffffffffffffffffffff16906020019092919050505061112d565b6040518082815260200191505060405180910390f35b6104176004803603602081101561040157600080fd5b8101908080359060200190929190505050611145565b005b61042161137a565b6040518082815260200191505060405180910390f35b6104796004803603602081101561044d57600080fd5b81019080803573ffffffffffffffffffffffffffffffffffffffff169060200190929190505050611380565b005b6104c76004803603604081101561049157600080fd5b8101908080359060200190929190803573ffffffffffffffffffffffffffffffffffffffff169060200190929190505050611539565b604051808381526020018281526020019250505060405180910390f35b6104ec61156a565b6040518082815260200191505060405180910390f35b610582600480360360a081101561051857600080fd5b8101908080359060200190929190803573ffffffffffffffffffffffffffffffffffffffff169060200190929190803573ffffffffffffffffffffffffffffffffffffffff1690602001909291908035906020019092919080359060200190929190505050611570565b005b6105da6004803603606081101561059a57600080fd5b8101908080359060200190929190803573ffffffffffffffffffffffffffffffffffffffff16906020019092919080359060200190929190505050611a0d565b005b61067c600480360360c08110156105f257600080fd5b8101908080359060200190929190803573ffffffffffffffffffffffffffffffffffffffff169060200190929190803573ffffffffffffffffffffffffffffffffffffffff169060200190929190803573ffffffffffffffffffffffffffffffffffffffff1690602001909291908035906020019092919080359060200190929190505050611ba6565b005b6106f46004803603608081101561069457600080fd5b8101908080359060200190929190803573ffffffffffffffffffffffffffffffffffffffff169060200190929190803573ffffffffffffffffffffffffffffffffffffffff16906020019092919080359060200190929190505050611f1c565b005b6107586004803603604081101561070c57600080fd5b81019080803573ffffffffffffffffffffffffffffffffffffffff169060200190929190803573ffffffffffffffffffffffffffffffffffffffff169060200190929190505050612160565b604051808215151515815260200191505060405180910390f35b61079e6004803603602081101561078857600080fd5b8101908080359060200190929190505050612220565b005b6107ec600480360360408110156107b657600080fd5b8101908080359060200190929190803573ffffffffffffffffffffffffffffffffffffffff169060200190929190505050612387565b6040518082815260200191505060405180910390f35b61080a6123ac565b6040518082815260200191505060405180910390f35b6108286123b2565b005b61086c6004803603602081101561084057600080fd5b81019080803573ffffffffffffffffffffffffffffffffffffffff16906020019092919050505061247f565b005b61090e600480360360c081101561088457600080fd5b8101908080359060200190929190803573ffffffffffffffffffffffffffffffffffffffff169060200190929190803573ffffffffffffffffffffffffffffffffffffffff169060200190929190803573ffffffffffffffffffffffffffffffffffffffff1690602001909291908035906020019092919080359060200190929190505050612638565b005b61093c6004803603602081101561092657600080fd5b8101908080359060200190929190505050612f13565b60405180878152602001868152602001858152602001848152602001838152602001828152602001965050505050505060405180910390f35b6109b76004803603602081101561098b57600080fd5b81019080803573ffffffffffffffffffffffffffffffffffffffff169060200190929190505050612f4f565b005b6109f9600480360360608110156109cf57600080fd5b8101908080359060200190929190803590602001909291908035906020019092919050505061306b565b005b610a3d60048036036020811015610a1157600080fd5b81019080803573ffffffffffffffffffffffffffffffffffffffff16906020019092919050505061333a565b005b610aab60048036036060811015610a5557600080fd5b81019080803573ffffffffffffffffffffffffffffffffffffffff169060200190929190803573ffffffffffffffffffffffffffffffffffffffff16906020019092919080359060200190929190505050613455565b005b610aef60048036036020811015610ac357600080fd5b81019080803573ffffffffffffffffffffffffffffffffffffffff169060200190929190505050613653565b6040518082815260200191505060405180910390f35b610b0d61366b565b6040518082815260200191505060405180910390f35b610b5960048036036040811015610b3957600080fd5b810190808035906020019092919080359060200190929190505050613671565b005b6001602052816000526040600020602052806000526040600020600091509150505481565b60016000803373ffffffffffffffffffffffffffffffffffffffff1673ffffffffffffffffffffffffffffffffffffffff1681526020019081526020016000205414610c17576040517f08c379a0000000000000000000000000000000000000000000000000000000008152600401808060200182810382526021815260200180613e466021913960400191505060405180910390fd5b6001600b5414610c8f576040517f08c379a000000000000000000000000000000000000000000000000000000000815260040180806020018281038252601f8152602001807f53414645456e67696e652f636f6e74726163742d6e6f742d656e61626c65640081525060200191505060405180910390fd5b6000600260008581526020019081526020016000209050610cb481600101548361387d565b81600101819055506000610ccc826000015484613971565b9050610d17600560008673ffffffffffffffffffffffffffffffffffffffff1673ffffffffffffffffffffffffffffffffffffffff168152602001908152602001600020548261387d565b600560008673ffffffffffffffffffffffffffffffffffffffff1673ffffffffffffffffffffffffffffffffffffffff16815260200190815260200160002081905550610d666008548261387d565b600881905550847f5b9f54db46fa62a65324e3e9cad8e6fa0deb965ce36134b30377d7edd3a8136f8585600560008973ffffffffffffffffffffffffffffffffffffffff1673ffffffffffffffffffffffffffffffffffffffff16815260200190815260200160002054600854604051808573ffffffffffffffffffffffffffffffffffffffff1673ffffffffffffffffffffffffffffffffffffffff16815260200184815260200183815260200182815260200194505050505060405180910390a25050505050565b60066020528060005260406000206000915090505481565b60016000803373ffffffffffffffffffffffffffffffffffffffff1673ffffffffffffffffffffffffffffffffffffffff1681526020019081526020016000205414610edf576040517f08c379a0000000000000000000000000000000000000000000000000000000008152600401808060200182810382526021815260200180613e466021913960400191505060405180910390fd5b610f28600660008573ffffffffffffffffffffffffffffffffffffffff1673ffffffffffffffffffffffffffffffffffffffff1681526020019081526020016000205482613a7e565b600660008573ffffffffffffffffffffffffffffffffffffffff1673ffffffffffffffffffffffffffffffffffffffff16815260200190815260200160002081905550610fb4600560008473ffffffffffffffffffffffffffffffffffffffff1673ffffffffffffffffffffffffffffffffffffffff1681526020019081526020016000205482613a7e565b600560008473ffffffffffffffffffffffffffffffffffffffff1673ffffffffffffffffffffffffffffffffffffffff1681526020019081526020016000208190555061100360095482613a7e565b60098190555061101560085482613a7e565b6008819055508173ffffffffffffffffffffffffffffffffffffffff168373ffffffffffffffffffffffffffffffffffffffff167fede723541c3aae745504c3732f6a7161031353ddf05caba15d48b1edd35646b983600660008873ffffffffffffffffffffffffffffffffffffffff1673ffffffffffffffffffffffffffffffffffffffff16815260200190815260200160002054600560008873ffffffffffffffffffffffffffffffffffffffff1673ffffffffffffffffffffffffffffffffffffffff16815260200190815260200160002054600954600854604051808681526020018581526020018481526020018381526020018281526020019550505050505060405180910390a3505050565b60095481565b60006020528060005260406000206000915090505481565b6000339050611193600660008373ffffffffffffffffffffffffffffffffffffffff1673ffffffffffffffffffffffffffffffffffffffff1681526020019081526020016000205483613ae4565b600660008373ffffffffffffffffffffffffffffffffffffffff1673ffffffffffffffffffffffffffffffffffffffff1681526020019081526020016000208190555061121f600560008373ffffffffffffffffffffffffffffffffffffffff1673ffffffffffffffffffffffffffffffffffffffff1681526020019081526020016000205483613ae4565b600560008373ffffffffffffffffffffffffffffffffffffffff1673ffffffffffffffffffffffffffffffffffffffff1681526020019081526020016000208190555061126e60095483613ae4565b60098190555061128060085483613ae4565b6008819055508073ffffffffffffffffffffffffffffffffffffffff167f11000f3497809a546a9de313df16f9ce615e1c65098ba758180e1cac823ed41583600660008573ffffffffffffffffffffffffffffffffffffffff1673ffffffffffffffffffffffffffffffffffffffff16815260200190815260200160002054600560008673ffffffffffffffffffffffffffffffffffffffff1673ffffffffffffffffffffffffffffffffffffffff16815260200190815260200160002054600954600854604051808681526020018581526020018481526020018381526020018281526020019550505050505060405180910390a25050565b600a5481565b60016000803373ffffffffffffffffffffffffffffffffffffffff1673ffffffffffffffffffffffffffffffffffffffff1681526020019081526020016000205414611417576040517f08c379a0000000000000000000000000000000000000000000000000000000008152600401808060200182810382526021815260200180613e466021913960400191505060405180910390fd5b6001600b541461148f576040517f08c379a000000000000000000000000000000000000000000000000000000000815260040180806020018281038252601f8152602001807f53414645456e67696e652f636f6e74726163742d6e6f742d656e61626c65640081525060200191505060405180910390fd5b60016000808373ffffffffffffffffffffffffffffffffffffffff1673ffffffffffffffffffffffffffffffffffffffff168152602001908152602001600020819055507f599a298163e1678bb1c676052a8930bf0b8a1261ed6e01b8a2391e55f700010281604051808273ffffffffffffffffffffffffffffffffffffffff1673ffffffffffffffffffffffffffffffffffffffff16815260200191505060405180910390a150565b6003602052816000526040600020602052806000526040600020600091509150508060000154908060010154905082565b600b5481565b60006003600087815260200190815260200160002060008673ffffffffffffffffffffffffffffffffffffffff1673ffffffffffffffffffffffffffffffffffffffff168152602001908152602001600020905060006003600088815260200190815260200160002060008673ffffffffffffffffffffffffffffffffffffffff1673ffffffffffffffffffffffffffffffffffffffff1681526020019081526020016000209050600060026000898152602001908152602001600020905061163d836000015486613b4a565b8360000181905550611653836001015485613b4a565b836001018190555061166982600001548661387d565b826000018190555061167f82600101548561387d565b8260010181905550600061169b84600101548360010154613c3e565b905060006116b184600101548460010154613c3e565b90506116cf6116c08a33612160565b6116ca8a33612160565b613cb6565b611741576040517f08c379a00000000000000000000000000000000000000000000000000000000081526004018080602001828103825260168152602001807f53414645456e67696e652f6e6f742d616c6c6f7765640000000000000000000081525060200191505060405180910390fd5b61175385600001548460020154613c3e565b8211156117c8576040517f08c379a00000000000000000000000000000000000000000000000000000000081526004018080602001828103825260178152602001807f53414645456e67696e652f6e6f742d736166652d73726300000000000000000081525060200191505060405180910390fd5b6117da84600001548460020154613c3e565b81111561184f576040517f08c379a00000000000000000000000000000000000000000000000000000000081526004018080602001828103825260178152602001807f53414645456e67696e652f6e6f742d736166652d64737400000000000000000081525060200191505060405180910390fd5b61186783600401548310156000876001015414613cc3565b6118d9576040517f08c379a00000000000000000000000000000000000000000000000000000000081526004018080602001828103825260138152602001807f53414645456e67696e652f647573742d7372630000000000000000000000000081525060200191505060405180910390fd5b6118f183600401548210156000866001015414613cc3565b611963576040517f08c379a00000000000000000000000000000000000000000000000000000000081526004018080602001828103825260138152602001807f53414645456e67696e652f647573742d6473740000000000000000000000000081525060200191505060405180910390fd5b8773ffffffffffffffffffffffffffffffffffffffff168973ffffffffffffffffffffffffffffffffffffffff168b7f4b49cc19514005253f36d0517c21b92404f50cc0d9e0c070af00b96e296b08358a8a8a600001548b600101548b600001548c6001015460405180878152602001868152602001858152602001848152602001838152602001828152602001965050505050505060405180910390a450505050505050505050565b60016000803373ffffffffffffffffffffffffffffffffffffffff1673ffffffffffffffffffffffffffffffffffffffff1681526020019081526020016000205414611aa4576040517f08c379a0000000000000000000000000000000000000000000000000000000008152600401808060200182810382526021815260200180613e466021913960400191505060405180910390fd5b611afe6004600085815260200190815260200160002060008473ffffffffffffffffffffffffffffffffffffffff1673ffffffffffffffffffffffffffffffffffffffff168152602001908152602001600020548261387d565b6004600085815260200190815260200160002060008473ffffffffffffffffffffffffffffffffffffffff1673ffffffffffffffffffffffffffffffffffffffff168152602001908152602001600020819055508173ffffffffffffffffffffffffffffffffffffffff16837f488ac1e40bb6e5ee1f88b998568d1de4cb595e9ce0e0d4e4d4cc4c202053f107836040518082815260200191505060405180910390a3505050565b60016000803373ffffffffffffffffffffffffffffffffffffffff1673ffffffffffffffffffffffffffffffffffffffff1681526020019081526020016000205414611c3d576040517f08c379a0000000000000000000000000000000000000000000000000000000008152600401808060200182810382526021815260200180613e466021913960400191505060405180910390fd5b60006003600088815260200190815260200160002060008773ffffffffffffffffffffffffffffffffffffffff1673ffffffffffffffffffffffffffffffffffffffff16815260200190815260200160002090506000600260008981526020019081526020016000209050611cb682600001548561387d565b8260000181905550611ccc82600101548461387d565b8260010181905550611ce281600001548461387d565b81600001819055506000611cfa826001015485613971565b9050611d56600460008b815260200190815260200160002060008973ffffffffffffffffffffffffffffffffffffffff1673ffffffffffffffffffffffffffffffffffffffff1681526020019081526020016000205486613b4a565b600460008b815260200190815260200160002060008973ffffffffffffffffffffffffffffffffffffffff1673ffffffffffffffffffffffffffffffffffffffff16815260200190815260200160002081905550611df3600660008873ffffffffffffffffffffffffffffffffffffffff1673ffffffffffffffffffffffffffffffffffffffff1681526020019081526020016000205482613b4a565b600660008873ffffffffffffffffffffffffffffffffffffffff1673ffffffffffffffffffffffffffffffffffffffff16815260200190815260200160002081905550611e4260095482613b4a565b6009819055508773ffffffffffffffffffffffffffffffffffffffff16897f9bef7b734be54aaed05e906c2ccf923767f44a93d136b674e212ce858a6d031c89898989600954604051808673ffffffffffffffffffffffffffffffffffffffff1673ffffffffffffffffffffffffffffffffffffffff1681526020018573ffffffffffffffffffffffffffffffffffffffff1673ffffffffffffffffffffffffffffffffffffffff1681526020018481526020018381526020018281526020019550505050505060405180910390a3505050505050505050565b611f268333612160565b611f98576040517f08c379a00000000000000000000000000000000000000000000000000000000081526004018080602001828103825260168152602001807f53414645456e67696e652f6e6f742d616c6c6f7765640000000000000000000081525060200191505060405180910390fd5b611ff26004600086815260200190815260200160002060008573ffffffffffffffffffffffffffffffffffffffff1673ffffffffffffffffffffffffffffffffffffffff1681526020019081526020016000205482613ae4565b6004600086815260200190815260200160002060008573ffffffffffffffffffffffffffffffffffffffff1673ffffffffffffffffffffffffffffffffffffffff168152602001908152602001600020819055506120a06004600086815260200190815260200160002060008473ffffffffffffffffffffffffffffffffffffffff1673ffffffffffffffffffffffffffffffffffffffff1681526020019081526020016000205482613a7e565b6004600086815260200190815260200160002060008473ffffffffffffffffffffffffffffffffffffffff1673ffffffffffffffffffffffffffffffffffffffff168152602001908152602001600020819055508173ffffffffffffffffffffffffffffffffffffffff168373ffffffffffffffffffffffffffffffffffffffff16857fb08760a077e71005cf3651212fdbd4028d6ebc8e1844c0475f36000f2756c0d7846040518082815260200191505060405180910390a450505050565b60006122188273ffffffffffffffffffffffffffffffffffffffff168473ffffffffffffffffffffffffffffffffffffffff161460018060008773ffffffffffffffffffffffffffffffffffffffff1673ffffffffffffffffffffffffffffffffffffffff16815260200190815260200160002060008673ffffffffffffffffffffffffffffffffffffffff1673ffffffffffffffffffffffffffffffffffffffff1681526020019081526020016000205414613cc3565b905092915050565b60016000803373ffffffffffffffffffffffffffffffffffffffff1673ffffffffffffffffffffffffffffffffffffffff16815260200190815260200160002054146122b7576040517f08c379a0000000000000000000000000000000000000000000000000000000008152600401808060200182810382526021815260200180613e466021913960400191505060405180910390fd5b6000600260008381526020019081526020016000206001015414612326576040517f08c379a0000000000000000000000000000000000000000000000000000000008152600401808060200182810382526029815260200180613db06029913960400191505060405180910390fd5b6b033b2e3c9fd0803ce800000060026000838152602001908152602001600020600101819055507f715b265758bcd4ecd311bede8dcca05c4b5819e0a2a5c4103abd702862ae2c35816040518082815260200191505060405180910390a150565b6004602052816000526040600020602052806000526040600020600091509150505481565b60085481565b60016000803373ffffffffffffffffffffffffffffffffffffffff1673ffffffffffffffffffffffffffffffffffffffff1681526020019081526020016000205414612449576040517f08c379a0000000000000000000000000000000000000000000000000000000008152600401808060200182810382526021815260200180613e466021913960400191505060405180910390fd5b6000600b819055507f2d4b4ecff7bd7503135271925520a2f6c0d98c9473ffc1a1e72c92502f51b25e60405160405180910390a1565b60016000803373ffffffffffffffffffffffffffffffffffffffff1673ffffffffffffffffffffffffffffffffffffffff1681526020019081526020016000205414612516576040517f08c379a0000000000000000000000000000000000000000000000000000000008152600401808060200182810382526021815260200180613e466021913960400191505060405180910390fd5b6001600b541461258e576040517f08c379a000000000000000000000000000000000000000000000000000000000815260040180806020018281038252601f8152602001807f53414645456e67696e652f636f6e74726163742d6e6f742d656e61626c65640081525060200191505060405180910390fd5b60008060008373ffffffffffffffffffffffffffffffffffffffff1673ffffffffffffffffffffffffffffffffffffffff168152602001908152602001600020819055507f8834a87e641e9716be4f34527af5d23e11624f1ddeefede6ad75a9acfc31b90381604051808273ffffffffffffffffffffffffffffffffffffffff1673ffffffffffffffffffffffffffffffffffffffff16815260200191505060405180910390a150565b6001600b54146126b0576040517f08c379a000000000000000000000000000000000000000000000000000000000815260040180806020018281038252601f8152602001807f53414645456e67696e652f636f6e74726163742d6e6f742d656e61626c65640081525060200191505060405180910390fd5b6126b8613cd0565b6003600088815260200190815260200160002060008773ffffffffffffffffffffffffffffffffffffffff1673ffffffffffffffffffffffffffffffffffffffff168152602001908152602001600020604051806040016040529081600082015481526020016001820154815250509050612731613cea565b600260008981526020019081526020016000206040518060c0016040529081600082015481526020016001820154815260200160028201548152602001600382015481526020016004820154815260200160058201548152505090506000816020015114156127eb576040517f08c379a000000000000000000000000000000000000000000000000000000000815260040180806020018281038252602a815260200180613dd9602a913960400191505060405180910390fd5b6127f982600001518561387d565b82600001818152505061281082602001518461387d565b82602001818152505061282781600001518461387d565b8160000181815250506000612840826020015185613971565b9050600061285683602001518560200151613c3e565b90506128646008548361387d565b6008819055506128a0600086131561289b856060015161288c87600001518860200151613c3e565b1115600a546008541115613cb6565b613cc3565b612912576040517f08c379a000000000000000000000000000000000000000000000000000000000815260040180806020018281038252601b8152602001807f53414645456e67696e652f6365696c696e672d6578636565646564000000000081525060200191505060405180910390fd5b61294161292760008713156000891215613cb6565b61293986600001518660400151613c3e565b831115613cc3565b6129b3576040517f08c379a00000000000000000000000000000000000000000000000000000000081526004018080602001828103825260138152602001807f53414645456e67696e652f6e6f742d736166650000000000000000000000000081525060200191505060405180910390fd5b6129d76129c860008713156000891215613cb6565b6129d28b33612160565b613cc3565b612a2c576040517f08c379a0000000000000000000000000000000000000000000000000000000008152600401808060200182810382526025815260200180613d216025913960400191505060405180910390fd5b612a436000871315612a3e8a33612160565b613cc3565b612a98576040517f08c379a0000000000000000000000000000000000000000000000000000000008152600401808060200182810382526025815260200180613d8b6025913960400191505060405180910390fd5b612aaf6000861215612aaa8933612160565b613cc3565b612b21576040517f08c379a000000000000000000000000000000000000000000000000000000000815260040180806020018281038252601f8152602001807f53414645456e67696e652f6e6f742d616c6c6f7765642d646562742d6473740081525060200191505060405180910390fd5b612b3960008560200151148460800151831015613cc3565b612bab576040517f08c379a000000000000000000000000000000000000000000000000000000000815260040180806020018281038252600f8152602001807f53414645456e67696e652f64757374000000000000000000000000000000000081525060200191505060405180910390fd5b6000851315612c315760075484602001511115612c30576040517f08c379a000000000000000000000000000000000000000000000000000000000815260040180806020018281038252601b8152602001807f53414645456e67696e652f61626f76652d646562742d6c696d6974000000000081525060200191505060405180910390fd5b5b612c8b600460008c815260200190815260200160002060008a73ffffffffffffffffffffffffffffffffffffffff1673ffffffffffffffffffffffffffffffffffffffff1681526020019081526020016000205487613b4a565b600460008c815260200190815260200160002060008a73ffffffffffffffffffffffffffffffffffffffff1673ffffffffffffffffffffffffffffffffffffffff16815260200190815260200160002081905550612d28600560008973ffffffffffffffffffffffffffffffffffffffff1673ffffffffffffffffffffffffffffffffffffffff168152602001908152602001600020548361387d565b600560008973ffffffffffffffffffffffffffffffffffffffff1673ffffffffffffffffffffffffffffffffffffffff1681526020019081526020016000208190555083600360008c815260200190815260200160002060008b73ffffffffffffffffffffffffffffffffffffffff1673ffffffffffffffffffffffffffffffffffffffff168152602001908152602001600020600082015181600001556020820151816001015590505082600260008c8152602001908152602001600020600082015181600001556020820151816001015560408201518160020155606082015181600301556080820151816004015560a082015181600501559050508873ffffffffffffffffffffffffffffffffffffffff168a7f182725621f9c0d485fb256f86699c82616bd6e4670325087fd08f643cab7d9178a8a8a8a8a600001518b60200151600854604051808873ffffffffffffffffffffffffffffffffffffffff1673ffffffffffffffffffffffffffffffffffffffff1681526020018773ffffffffffffffffffffffffffffffffffffffff1673ffffffffffffffffffffffffffffffffffffffff16815260200186815260200185815260200184815260200183815260200182815260200197505050505050505060405180910390a350505050505050505050565b60026020528060005260406000206000915090508060000154908060010154908060020154908060030154908060040154908060050154905086565b6000600160003373ffffffffffffffffffffffffffffffffffffffff1673ffffffffffffffffffffffffffffffffffffffff16815260200190815260200160002060008373ffffffffffffffffffffffffffffffffffffffff1673ffffffffffffffffffffffffffffffffffffffff168152602001908152602001600020819055507fb1b0368dbc2a1d366ba32be3f455812a3db862c3f52fd3434020a262442b1bb03382604051808373ffffffffffffffffffffffffffffffffffffffff1673ffffffffffffffffffffffffffffffffffffffff1681526020018273ffffffffffffffffffffffffffffffffffffffff1673ffffffffffffffffffffffffffffffffffffffff1681526020019250505060405180910390a150565b60016000803373ffffffffffffffffffffffffffffffffffffffff1673ffffffffffffffffffffffffffffffffffffffff1681526020019081526020016000205414613102576040517f08c379a0000000000000000000000000000000000000000000000000000000008152600401808060200182810382526021815260200180613e466021913960400191505060405180910390fd5b6001600b541461317a576040517f08c379a000000000000000000000000000000000000000000000000000000000815260040180806020018281038252601f8152602001807f53414645456e67696e652f636f6e74726163742d6e6f742d656e61626c65640081525060200191505060405180910390fd5b7f73616665747950726963650000000000000000000000000000000000000000008214156131c2578060026000858152602001908152602001600020600201819055506132ee565b7f6c69717569646174696f6e50726963650000000000000000000000000000000082141561320a578060026000858152602001908152602001600020600501819055506132ed565b7f646562744365696c696e67000000000000000000000000000000000000000000821415613252578060026000858152602001908152602001600020600301819055506132ec565b7f64656274466c6f6f72000000000000000000000000000000000000000000000082141561329a578060026000858152602001908152602001600020600401819055506132eb565b6040517f08c379a0000000000000000000000000000000000000000000000000000000008152600401808060200182810382526024815260200180613d466024913960400191505060405180910390fd5b5b5b5b7fc59b1109b54f213212d2f5af5c1dae5e887f9daa63b595578fae847cb048e8f483838360405180848152602001838152602001828152602001935050505060405180910390a1505050565b60018060003373ffffffffffffffffffffffffffffffffffffffff1673ffffffffffffffffffffffffffffffffffffffff16815260200190815260200160002060008373ffffffffffffffffffffffffffffffffffffffff1673ffffffffffffffffffffffffffffffffffffffff168152602001908152602001600020819055507ff7db8b086d1ab5e5802059364bff5428c7622c6d4623f9780947306d492770533382604051808373ffffffffffffffffffffffffffffffffffffffff1673ffffffffffffffffffffffffffffffffffffffff1681526020018273ffffffffffffffffffffffffffffffffffffffff1673ffffffffffffffffffffffffffffffffffffffff1681526020019250505060405180910390a150565b61345f8333612160565b6134d1576040517f08c379a00000000000000000000000000000000000000000000000000000000081526004018080602001828103825260168152602001807f53414645456e67696e652f6e6f742d616c6c6f7765640000000000000000000081525060200191505060405180910390fd5b61351a600560008573ffffffffffffffffffffffffffffffffffffffff1673ffffffffffffffffffffffffffffffffffffffff1681526020019081526020016000205482613ae4565b600560008573ffffffffffffffffffffffffffffffffffffffff1673ffffffffffffffffffffffffffffffffffffffff168152602001908152602001600020819055506135a6600560008473ffffffffffffffffffffffffffffffffffffffff1673ffffffffffffffffffffffffffffffffffffffff1681526020019081526020016000205482613a7e565b600560008473ffffffffffffffffffffffffffffffffffffffff1673ffffffffffffffffffffffffffffffffffffffff168152602001908152602001600020819055508173ffffffffffffffffffffffffffffffffffffffff168373ffffffffffffffffffffffffffffffffffffffff167f4cd53b0b754082a31f5a6f3dc965c36d1d901c309830e0b4c17949aff97f0b14836040518082815260200191505060405180910390a3505050565b60056020528060005260406000206000915090505481565b60075481565b60016000803373ffffffffffffffffffffffffffffffffffffffff1673ffffffffffffffffffffffffffffffffffffffff1681526020019081526020016000205414613708576040517f08c379a0000000000000000000000000000000000000000000000000000000008152600401808060200182810382526021815260200180613e466021913960400191505060405180910390fd5b6001600b5414613780576040517f08c379a000000000000000000000000000000000000000000000000000000000815260040180806020018281038252601f8152602001807f53414645456e67696e652f636f6e74726163742d6e6f742d656e61626c65640081525060200191505060405180910390fd5b7f676c6f62616c446562744365696c696e670000000000000000000000000000008214156137b45780600a8190555061383a565b7f73616665446562744365696c696e6700000000000000000000000000000000008214156137e85780600781905550613839565b6040517f08c379a0000000000000000000000000000000000000000000000000000000008152600401808060200182810382526024815260200180613d466024913960400191505060405180910390fd5b5b7fac7c5c1afaef770ec56ac6268cd3f2fbb1035858ead2601d6553157c33036c3a8282604051808381526020018281526020019250505060405180910390a15050565b600081830190506000821215806138945750828111155b613906576040517f08c379a00000000000000000000000000000000000000000000000000000000081526004018080602001828103825260208152602001807f53414645456e67696e652f6164642d75696e742d696e742d6f766572666c6f7781525060200191505060405180910390fd5b6000821315806139165750828110155b61396b576040517f08c379a0000000000000000000000000000000000000000000000000000000008152600401808060200182810382526021815260200180613e256021913960400191505060405180910390fd5b92915050565b6000818302905060008312156139ef576040517f08c379a000000000000000000000000000000000000000000000000000000000815260040180806020018281038252601e8152602001807f53414645456e67696e652f6d756c2d75696e742d696e742d6e756c6c2d78000081525060200191505060405180910390fd5b6000821480613a06575082828281613a0357fe5b05145b613a78576040517f08c379a00000000000000000000000000000000000000000000000000000000081526004018080602001828103825260208152602001807f53414645456e67696e652f6d756c2d75696e742d696e742d6f766572666c6f7781525060200191505060405180910390fd5b92915050565b6000828284019150811015613ade576040517f08c379a0000000000000000000000000000000000000000000000000000000008152600401808060200182810382526021815260200180613e676021913960400191505060405180910390fd5b92915050565b6000828284039150811115613b44576040517f08c379a0000000000000000000000000000000000000000000000000000000008152600401808060200182810382526022815260200180613e036022913960400191505060405180910390fd5b92915050565b60008183039050600082131580613b615750828111155b613bd3576040517f08c379a00000000000000000000000000000000000000000000000000000000081526004018080602001828103825260208152602001807f53414645456e67696e652f7375622d75696e742d696e742d6f766572666c6f7781525060200191505060405180910390fd5b600082121580613be35750828110155b613c38576040517f08c379a0000000000000000000000000000000000000000000000000000000008152600401808060200182810382526021815260200180613d6a6021913960400191505060405180910390fd5b92915050565b600080821480613c5b5750828283850292508281613c5857fe5b04145b613cb0576040517f08c379a0000000000000000000000000000000000000000000000000000000008152600401808060200182810382526026815260200180613e886026913960400191505060405180910390fd5b92915050565b6000818316905092915050565b6000818317905092915050565b604051806040016040528060008152602001600081525090565b6040518060c00160405280600081526020016000815260200160008152602001600081526020016000815260200160008152509056fe53414645456e67696e652f6e6f742d616c6c6f7765642d746f2d6d6f646966792d7361666553414645456e67696e652f6d6f646966792d756e7265636f676e697a65642d706172616d53414645456e67696e652f7375622d75696e742d696e742d756e646572666c6f7753414645456e67696e652f6e6f742d616c6c6f7765642d636f6c6c61746572616c2d73726353414645456e67696e652f636f6c6c61746572616c2d747970652d616c72656164792d65786973747353414645456e67696e652f636f6c6c61746572616c2d747970652d6e6f742d696e697469616c697a656453414645456e67696e652f7375622d75696e742d75696e742d756e646572666c6f7753414645456e67696e652f6164642d75696e742d696e742d756e646572666c6f7753414645456e67696e652f6163636f756e742d6e6f742d617574686f72697a656453414645456e67696e652f6164642d75696e742d75696e742d6f766572666c6f7753414645456e67696e652f6d756c7469706c792d75696e742d75696e742d6f766572666c6f77a2646970667358221220a9a0964f0346087d4cc1eeade480c488b8f27c64341d74f9ed6f7c65e06634b964736f6c63430006070033",
  "immutableReferences": {},
  "source": "/// SAFEEngine.sol -- SAFE database\n\n// Copyright (C) 2018 Rain <rainbreak@riseup.net>\n//\n// This program is free software: you can redistribute it and/or modify\n// it under the terms of the GNU Affero General Public License as published by\n// the Free Software Foundation, either version 3 of the License, or\n// (at your option) any later version.\n//\n// This program is distributed in the hope that it will be useful,\n// but WITHOUT ANY WARRANTY; without even the implied warranty of\n// MERCHANTABILITY or FITNESS FOR A PARTICULAR PURPOSE.  See the\n// GNU Affero General Public License for more details.\n//\n// You should have received a copy of the GNU Affero General Public License\n// along with this program.  If not, see <https://www.gnu.org/licenses/>.\n\npragma solidity 0.6.7;\n\ncontract SAFEEngine {\n    // --- Auth ---\n    mapping (address => uint256) public authorizedAccounts;\n    /**\n     * @notice Add auth to an account\n     * @param account Account to add auth to\n     */\n    function addAuthorization(address account) external isAuthorized {\n        require(contractEnabled == 1, \"SAFEEngine/contract-not-enabled\");\n        authorizedAccounts[account] = 1;\n        emit AddAuthorization(account);\n    }\n    /**\n     * @notice Remove auth from an account\n     * @param account Account to remove auth from\n     */\n    function removeAuthorization(address account) external isAuthorized {\n        require(contractEnabled == 1, \"SAFEEngine/contract-not-enabled\");\n        authorizedAccounts[account] = 0;\n        emit RemoveAuthorization(account);\n    }\n    /**\n    * @notice Checks whether msg.sender can call an authed function\n    **/\n    modifier isAuthorized {\n        require(authorizedAccounts[msg.sender] == 1, \"SAFEEngine/account-not-authorized\");\n        _;\n    }\n\n    // Who can transfer collateral & debt in/out of a SAFE\n    mapping(address => mapping (address => uint256)) public safeRights;\n    /**\n     * @notice Allow an address to modify your SAFE\n     * @param account Account to give SAFE permissions to\n     */\n    function approveSAFEModification(address account) external {\n        safeRights[msg.sender][account] = 1;\n        emit ApproveSAFEModification(msg.sender, account);\n    }\n    /**\n     * @notice Deny an address the rights to modify your SAFE\n     * @param account Account that is denied SAFE permissions\n     */\n    function denySAFEModification(address account) external {\n        safeRights[msg.sender][account] = 0;\n        emit DenySAFEModification(msg.sender, account);\n    }\n    /**\n    * @notice Checks whether msg.sender has the right to modify a SAFE\n    **/\n    function canModifySAFE(address safe, address account) public view returns (bool) {\n        return either(safe == account, safeRights[safe][account] == 1);\n    }\n\n    // --- Data ---\n    struct CollateralType {\n        // Total debt issued for this specific collateral type\n        uint256 debtAmount;        // [wad]\n        // Accumulator for interest accrued on this collateral type\n        uint256 accumulatedRate;   // [ray]\n        // Floor price at which a SAFE is allowed to generate debt\n        uint256 safetyPrice;       // [ray]\n        // Maximum amount of debt that can be generated with this collateral type\n        uint256 debtCeiling;       // [rad]\n        // Minimum amount of debt that must be generated by a SAFE using this collateral\n        uint256 debtFloor;         // [rad]\n        // Price at which a SAFE gets liquidated\n        uint256 liquidationPrice;  // [ray]\n    }\n    struct SAFE {\n        // Total amount of collateral locked in a SAFE\n        uint256 lockedCollateral;  // [wad]\n        // Total amount of debt generated by a SAFE\n        uint256 generatedDebt;     // [wad]\n    }\n\n    // Data about each collateral type\n    mapping (bytes32 => CollateralType)                public collateralTypes;\n    // Data about each SAFE\n    mapping (bytes32 => mapping (address => SAFE ))    public safes;\n    // Balance of each collateral type\n    mapping (bytes32 => mapping (address => uint256))  public tokenCollateral;  // [wad]\n    // Internal balance of system coins\n    mapping (address => uint256)                       public coinBalance;      // [rad]\n    // Amount of debt held by an account. Coins & debt are like matter and antimatter. They nullify each other\n    mapping (address => uint256)                       public debtBalance;      // [rad]\n\n    // Total amount of debt that a single safe can generate\n    uint256 public safeDebtCeiling;      // [wad]\n    // Total amount of debt (coins) currently issued\n    uint256  public globalDebt;          // [rad]\n    // 'Bad' debt that's not covered by collateral\n    uint256  public globalUnbackedDebt;  // [rad]\n    // Maximum amount of debt that can be issued\n    uint256  public globalDebtCeiling;   // [rad]\n    // Access flag, indicates whether this contract is still active\n    uint256  public contractEnabled;\n\n    // --- Events ---\n    event AddAuthorization(address account);\n    event RemoveAuthorization(address account);\n    event ApproveSAFEModification(address sender, address account);\n    event DenySAFEModification(address sender, address account);\n    event InitializeCollateralType(bytes32 collateralType);\n    event ModifyParameters(bytes32 parameter, uint256 data);\n    event ModifyParameters(bytes32 collateralType, bytes32 parameter, uint256 data);\n    event DisableContract();\n    event ModifyCollateralBalance(bytes32 indexed collateralType, address indexed account, int256 wad);\n    event TransferCollateral(bytes32 indexed collateralType, address indexed src, address indexed dst, uint256 wad);\n    event TransferInternalCoins(address indexed src, address indexed dst, uint256 rad);\n    event ModifySAFECollateralization(\n        bytes32 indexed collateralType,\n        address indexed safe,\n        address collateralSource,\n        address debtDestination,\n        int256 deltaCollateral,\n        int256 deltaDebt,\n        uint256 lockedCollateral,\n        uint256 generatedDebt,\n        uint256 globalDebt\n    );\n    event TransferSAFECollateralAndDebt(\n        bytes32 indexed collateralType,\n        address indexed src,\n        address indexed dst,\n        int256 deltaCollateral,\n        int256 deltaDebt,\n        uint256 srcLockedCollateral,\n        uint256 srcGeneratedDebt,\n        uint256 dstLockedCollateral,\n        uint256 dstGeneratedDebt\n    );\n    event ConfiscateSAFECollateralAndDebt(\n        bytes32 indexed collateralType,\n        address indexed safe,\n        address collateralCounterparty,\n        address debtCounterparty,\n        int256 deltaCollateral,\n        int256 deltaDebt,\n        uint256 globalUnbackedDebt\n    );\n    event SettleDebt(address indexed account, uint256 rad, uint256 debtBalance, uint256 coinBalance, uint256 globalUnbackedDebt, uint256 globalDebt);\n    event CreateUnbackedDebt(\n        address indexed debtDestination,\n        address indexed coinDestination,\n        uint256 rad,\n        uint256 debtDstBalance,\n        uint256 coinDstBalance,\n        uint256 globalUnbackedDebt,\n        uint256 globalDebt\n    );\n    event UpdateAccumulatedRate(\n        bytes32 indexed collateralType,\n        address surplusDst,\n        int256 rateMultiplier,\n        uint256 dstCoinBalance,\n        uint256 globalDebt\n    );\n\n    // --- Init ---\n    constructor() public {\n        authorizedAccounts[msg.sender] = 1;\n        safeDebtCeiling = uint256(-1);\n        contractEnabled = 1;\n        emit AddAuthorization(msg.sender);\n        emit ModifyParameters(\"safeDebtCeiling\", uint256(-1));\n    }\n\n    // --- Math ---\n    function addition(uint256 x, int256 y) internal pure returns (uint256 z) {\n        z = x + uint256(y);\n        require(y >= 0 || z <= x, \"SAFEEngine/add-uint-int-overflow\");\n        require(y <= 0 || z >= x, \"SAFEEngine/add-uint-int-underflow\");\n    }\n    function addition(int256 x, int256 y) internal pure returns (int256 z) {\n        z = x + y;\n        require(y >= 0 || z <= x, \"SAFEEngine/add-int-int-overflow\");\n        require(y <= 0 || z >= x, \"SAFEEngine/add-int-int-underflow\");\n    }\n    function subtract(uint256 x, int256 y) internal pure returns (uint256 z) {\n        z = x - uint256(y);\n        require(y <= 0 || z <= x, \"SAFEEngine/sub-uint-int-overflow\");\n        require(y >= 0 || z >= x, \"SAFEEngine/sub-uint-int-underflow\");\n    }\n    function subtract(int256 x, int256 y) internal pure returns (int256 z) {\n        z = x - y;\n        require(y <= 0 || z <= x, \"SAFEEngine/sub-int-int-overflow\");\n        require(y >= 0 || z >= x, \"SAFEEngine/sub-int-int-underflow\");\n    }\n    function multiply(uint256 x, int256 y) internal pure returns (int256 z) {\n        z = int256(x) * y;\n        require(int256(x) >= 0, \"SAFEEngine/mul-uint-int-null-x\");\n        require(y == 0 || z / y == int256(x), \"SAFEEngine/mul-uint-int-overflow\");\n    }\n    function addition(uint256 x, uint256 y) internal pure returns (uint256 z) {\n        require((z = x + y) >= x, \"SAFEEngine/add-uint-uint-overflow\");\n    }\n    function subtract(uint256 x, uint256 y) internal pure returns (uint256 z) {\n        require((z = x - y) <= x, \"SAFEEngine/sub-uint-uint-underflow\");\n    }\n    function multiply(uint256 x, uint256 y) internal pure returns (uint256 z) {\n        require(y == 0 || (z = x * y) / y == x, \"SAFEEngine/multiply-uint-uint-overflow\");\n    }\n\n    // --- Administration ---\n    /**\n     * @notice Creates a brand new collateral type\n     * @param collateralType Collateral type name (e.g ETH-A, TBTC-B)\n     */\n    function initializeCollateralType(bytes32 collateralType) external isAuthorized {\n        require(collateralTypes[collateralType].accumulatedRate == 0, \"SAFEEngine/collateral-type-already-exists\");\n        collateralTypes[collateralType].accumulatedRate = 10 ** 27;\n        emit InitializeCollateralType(collateralType);\n    }\n    /**\n     * @notice Modify general uint256 params\n     * @param parameter The name of the parameter modified\n     * @param data New value for the parameter\n     */\n    function modifyParameters(bytes32 parameter, uint256 data) external isAuthorized {\n        require(contractEnabled == 1, \"SAFEEngine/contract-not-enabled\");\n        if (parameter == \"globalDebtCeiling\") globalDebtCeiling = data;\n        else if (parameter == \"safeDebtCeiling\") safeDebtCeiling = data;\n        else revert(\"SAFEEngine/modify-unrecognized-param\");\n        emit ModifyParameters(parameter, data);\n    }\n    /**\n     * @notice Modify collateral specific params\n     * @param collateralType Collateral type we modify params for\n     * @param parameter The name of the parameter modified\n     * @param data New value for the parameter\n     */\n    function modifyParameters(\n        bytes32 collateralType,\n        bytes32 parameter,\n        uint256 data\n    ) external isAuthorized {\n        require(contractEnabled == 1, \"SAFEEngine/contract-not-enabled\");\n        if (parameter == \"safetyPrice\") collateralTypes[collateralType].safetyPrice = data;\n        else if (parameter == \"liquidationPrice\") collateralTypes[collateralType].liquidationPrice = data;\n        else if (parameter == \"debtCeiling\") collateralTypes[collateralType].debtCeiling = data;\n        else if (parameter == \"debtFloor\") collateralTypes[collateralType].debtFloor = data;\n        else revert(\"SAFEEngine/modify-unrecognized-param\");\n        emit ModifyParameters(collateralType, parameter, data);\n    }\n    /**\n     * @notice Disable this contract (normally called by GlobalSettlement)\n     */\n    function disableContract() external isAuthorized {\n        contractEnabled = 0;\n        emit DisableContract();\n    }\n\n    // --- Fungibility ---\n    /**\n     * @notice Join/exit collateral into and and out of the system\n     * @param collateralType Collateral type to join/exit\n     * @param account Account that gets credited/debited\n     * @param wad Amount of collateral\n     */\n    function modifyCollateralBalance(\n        bytes32 collateralType,\n        address account,\n        int256 wad\n    ) external isAuthorized {\n        tokenCollateral[collateralType][account] = addition(tokenCollateral[collateralType][account], wad);\n        emit ModifyCollateralBalance(collateralType, account, wad);\n    }\n    /**\n     * @notice Transfer collateral between accounts\n     * @param collateralType Collateral type transferred\n     * @param src Collateral source\n     * @param dst Collateral destination\n     * @param wad Amount of collateral transferred\n     */\n    function transferCollateral(\n        bytes32 collateralType,\n        address src,\n        address dst,\n        uint256 wad\n    ) external {\n        require(canModifySAFE(src, msg.sender), \"SAFEEngine/not-allowed\");\n        tokenCollateral[collateralType][src] = subtract(tokenCollateral[collateralType][src], wad);\n        tokenCollateral[collateralType][dst] = addition(tokenCollateral[collateralType][dst], wad);\n        emit TransferCollateral(collateralType, src, dst, wad);\n    }\n    /**\n     * @notice Transfer internal coins (does not affect external balances from Coin.sol)\n     * @param src Coins source\n     * @param dst Coins destination\n     * @param rad Amount of coins transferred\n     */\n    function transferInternalCoins(address src, address dst, uint256 rad) external {\n        require(canModifySAFE(src, msg.sender), \"SAFEEngine/not-allowed\");\n        coinBalance[src] = subtract(coinBalance[src], rad);\n        coinBalance[dst] = addition(coinBalance[dst], rad);\n        emit TransferInternalCoins(src, dst, rad);\n    }\n\n    function either(bool x, bool y) internal pure returns (bool z) {\n        assembly{ z := or(x, y)}\n    }\n    function both(bool x, bool y) internal pure returns (bool z) {\n        assembly{ z := and(x, y)}\n    }\n\n    // --- SAFE Manipulation ---\n    /**\n     * @notice Add/remove collateral or put back/generate more debt in a SAFE\n     * @param collateralType Type of collateral to withdraw/deposit in and from the SAFE\n     * @param safe Target SAFE\n     * @param collateralSource Account we take collateral from/put collateral into\n     * @param debtDestination Account from which we credit/debit coins and debt\n     * @param deltaCollateral Amount of collateral added/extract from the SAFE (wad)\n     * @param deltaDebt Amount of debt to generate/repay (wad)\n     */\n    function modifySAFECollateralization(\n        bytes32 collateralType,\n        address safe,\n        address collateralSource,\n        address debtDestination,\n        int256 deltaCollateral,\n        int256 deltaDebt\n    ) external {\n        // system is live\n        require(contractEnabled == 1, \"SAFEEngine/contract-not-enabled\");\n\n        SAFE memory safeData = safes[collateralType][safe];\n        CollateralType memory collateralTypeData = collateralTypes[collateralType];\n        // collateral type has been initialised\n        require(collateralTypeData.accumulatedRate != 0, \"SAFEEngine/collateral-type-not-initialized\");\n\n        safeData.lockedCollateral      = addition(safeData.lockedCollateral, deltaCollateral);\n        safeData.generatedDebt         = addition(safeData.generatedDebt, deltaDebt);\n        collateralTypeData.debtAmount  = addition(collateralTypeData.debtAmount, deltaDebt);\n\n        int256 deltaAdjustedDebt = multiply(collateralTypeData.accumulatedRate, deltaDebt);\n        uint256 totalDebtIssued  = multiply(collateralTypeData.accumulatedRate, safeData.generatedDebt);\n        globalDebt               = addition(globalDebt, deltaAdjustedDebt);\n\n        // either debt has decreased, or debt ceilings are not exceeded\n        require(\n          either(\n            deltaDebt <= 0,\n            both(multiply(collateralTypeData.debtAmount, collateralTypeData.accumulatedRate) <= collateralTypeData.debtCeiling,\n              globalDebt <= globalDebtCeiling)\n            ),\n          \"SAFEEngine/ceiling-exceeded\"\n        );\n        // safe is either less risky than before, or it is safe\n        require(\n          either(\n            both(deltaDebt <= 0, deltaCollateral >= 0),\n            totalDebtIssued <= multiply(safeData.lockedCollateral, collateralTypeData.safetyPrice)\n          ),\n          \"SAFEEngine/not-safe\"\n        );\n\n        // safe is either more safe, or the owner consents\n        require(either(both(deltaDebt <= 0, deltaCollateral >= 0), canModifySAFE(safe, msg.sender)), \"SAFEEngine/not-allowed-to-modify-safe\");\n        // collateral src consents\n        require(either(deltaCollateral <= 0, canModifySAFE(collateralSource, msg.sender)), \"SAFEEngine/not-allowed-collateral-src\");\n        // debt dst consents\n        require(either(deltaDebt >= 0, canModifySAFE(debtDestination, msg.sender)), \"SAFEEngine/not-allowed-debt-dst\");\n\n        // safe has no debt, or a non-dusty amount\n        require(either(safeData.generatedDebt == 0, totalDebtIssued >= collateralTypeData.debtFloor), \"SAFEEngine/dust\");\n\n        // safe didn't go above the safe debt limit\n        if (deltaDebt > 0) {\n          require(safeData.generatedDebt <= safeDebtCeiling, \"SAFEEngine/above-debt-limit\");\n        }\n\n        tokenCollateral[collateralType][collateralSource] =\n          subtract(tokenCollateral[collateralType][collateralSource], deltaCollateral);\n\n        coinBalance[debtDestination] = addition(coinBalance[debtDestination], deltaAdjustedDebt);\n\n        safes[collateralType][safe] = safeData;\n        collateralTypes[collateralType] = collateralTypeData;\n\n        emit ModifySAFECollateralization(\n            collateralType,\n            safe,\n            collateralSource,\n            debtDestination,\n            deltaCollateral,\n            deltaDebt,\n            safeData.lockedCollateral,\n            safeData.generatedDebt,\n            globalDebt\n        );\n    }\n\n    // --- SAFE Fungibility ---\n    /**\n     * @notice Transfer collateral and/or debt between SAFEs\n     * @param collateralType Collateral type transferred between SAFEs\n     * @param src Source SAFE\n     * @param dst Destination SAFE\n     * @param deltaCollateral Amount of collateral to take/add into src and give/take from dst (wad)\n     * @param deltaDebt Amount of debt to take/add into src and give/take from dst (wad)\n     */\n    function transferSAFECollateralAndDebt(\n        bytes32 collateralType,\n        address src,\n        address dst,\n        int256 deltaCollateral,\n        int256 deltaDebt\n    ) external {\n        SAFE storage srcSAFE = safes[collateralType][src];\n        SAFE storage dstSAFE = safes[collateralType][dst];\n        CollateralType storage collateralType_ = collateralTypes[collateralType];\n\n        srcSAFE.lockedCollateral = subtract(srcSAFE.lockedCollateral, deltaCollateral);\n        srcSAFE.generatedDebt    = subtract(srcSAFE.generatedDebt, deltaDebt);\n        dstSAFE.lockedCollateral = addition(dstSAFE.lockedCollateral, deltaCollateral);\n        dstSAFE.generatedDebt    = addition(dstSAFE.generatedDebt, deltaDebt);\n\n        uint256 srcTotalDebtIssued = multiply(srcSAFE.generatedDebt, collateralType_.accumulatedRate);\n        uint256 dstTotalDebtIssued = multiply(dstSAFE.generatedDebt, collateralType_.accumulatedRate);\n\n        // both sides consent\n        require(both(canModifySAFE(src, msg.sender), canModifySAFE(dst, msg.sender)), \"SAFEEngine/not-allowed\");\n\n        // both sides safe\n        require(srcTotalDebtIssued <= multiply(srcSAFE.lockedCollateral, collateralType_.safetyPrice), \"SAFEEngine/not-safe-src\");\n        require(dstTotalDebtIssued <= multiply(dstSAFE.lockedCollateral, collateralType_.safetyPrice), \"SAFEEngine/not-safe-dst\");\n\n        // both sides non-dusty\n        require(either(srcTotalDebtIssued >= collateralType_.debtFloor, srcSAFE.generatedDebt == 0), \"SAFEEngine/dust-src\");\n        require(either(dstTotalDebtIssued >= collateralType_.debtFloor, dstSAFE.generatedDebt == 0), \"SAFEEngine/dust-dst\");\n\n        emit TransferSAFECollateralAndDebt(\n            collateralType,\n            src,\n            dst,\n            deltaCollateral,\n            deltaDebt,\n            srcSAFE.lockedCollateral,\n            srcSAFE.generatedDebt,\n            dstSAFE.lockedCollateral,\n            dstSAFE.generatedDebt\n        );\n    }\n\n    // --- SAFE Confiscation ---\n    /**\n     * @notice Normally used by the LiquidationEngine in order to confiscate collateral and\n       debt from a SAFE and give them to someone else\n     * @param collateralType Collateral type the SAFE has locked inside\n     * @param safe Target SAFE\n     * @param collateralCounterparty Who we take/give collateral to\n     * @param debtCounterparty Who we take/give debt to\n     * @param deltaCollateral Amount of collateral taken/added into the SAFE (wad)\n     * @param deltaDebt Amount of debt taken/added into the SAFE (wad)\n     */\n    function confiscateSAFECollateralAndDebt(\n        bytes32 collateralType,\n        address safe,\n        address collateralCounterparty,\n        address debtCounterparty,\n        int256 deltaCollateral,\n        int256 deltaDebt\n    ) external isAuthorized {\n        SAFE storage safe_ = safes[collateralType][safe];\n        CollateralType storage collateralType_ = collateralTypes[collateralType];\n\n        safe_.lockedCollateral = addition(safe_.lockedCollateral, deltaCollateral);\n        safe_.generatedDebt = addition(safe_.generatedDebt, deltaDebt);\n        collateralType_.debtAmount = addition(collateralType_.debtAmount, deltaDebt);\n\n        int256 deltaTotalIssuedDebt = multiply(collateralType_.accumulatedRate, deltaDebt);\n\n        tokenCollateral[collateralType][collateralCounterparty] = subtract(\n          tokenCollateral[collateralType][collateralCounterparty],\n          deltaCollateral\n        );\n        debtBalance[debtCounterparty] = subtract(\n          debtBalance[debtCounterparty],\n          deltaTotalIssuedDebt\n        );\n        globalUnbackedDebt = subtract(\n          globalUnbackedDebt,\n          deltaTotalIssuedDebt\n        );\n\n        emit ConfiscateSAFECollateralAndDebt(\n            collateralType,\n            safe,\n            collateralCounterparty,\n            debtCounterparty,\n            deltaCollateral,\n            deltaDebt,\n            globalUnbackedDebt\n        );\n    }\n\n    // --- Settlement ---\n    /**\n     * @notice Nullify an amount of coins with an equal amount of debt\n     * @param rad Amount of debt & coins to destroy\n     */\n    function settleDebt(uint256 rad) external {\n        address account       = msg.sender;\n        debtBalance[account]  = subtract(debtBalance[account], rad);\n        coinBalance[account]  = subtract(coinBalance[account], rad);\n        globalUnbackedDebt    = subtract(globalUnbackedDebt, rad);\n        globalDebt            = subtract(globalDebt, rad);\n        emit SettleDebt(account, rad, debtBalance[account], coinBalance[account], globalUnbackedDebt, globalDebt);\n    }\n    /**\n     * @notice Usually called by CoinSavingsAccount in order to create unbacked debt\n     * @param debtDestination Usually AccountingEngine that can settle uncovered debt with surplus\n     * @param coinDestination Usually CoinSavingsAccount that passes the new coins to depositors\n     * @param rad Amount of debt to create\n     */\n    function createUnbackedDebt(\n        address debtDestination,\n        address coinDestination,\n        uint256 rad\n    ) external isAuthorized {\n        debtBalance[debtDestination]  = addition(debtBalance[debtDestination], rad);\n        coinBalance[coinDestination]  = addition(coinBalance[coinDestination], rad);\n        globalUnbackedDebt            = addition(globalUnbackedDebt, rad);\n        globalDebt                    = addition(globalDebt, rad);\n        emit CreateUnbackedDebt(\n            debtDestination,\n            coinDestination,\n            rad,\n            debtBalance[debtDestination],\n            coinBalance[coinDestination],\n            globalUnbackedDebt,\n            globalDebt\n        );\n    }\n\n    // --- Rates ---\n    /**\n     * @notice Usually called by TaxCollector in order to accrue interest on a specific collateral type\n     * @param collateralType Collateral type we accrue interest for\n     * @param surplusDst Destination for the newly created surplus\n     * @param rateMultiplier Multiplier applied to the debtAmount in order to calculate the surplus [ray]\n     */\n    function updateAccumulatedRate(\n        bytes32 collateralType,\n        address surplusDst,\n        int256 rateMultiplier\n    ) external isAuthorized {\n        require(contractEnabled == 1, \"SAFEEngine/contract-not-enabled\");\n        CollateralType storage collateralType_ = collateralTypes[collateralType];\n        collateralType_.accumulatedRate        = addition(collateralType_.accumulatedRate, rateMultiplier);\n        int256 deltaSurplus                    = multiply(collateralType_.debtAmount, rateMultiplier);\n        coinBalance[surplusDst]                = addition(coinBalance[surplusDst], deltaSurplus);\n        globalDebt                             = addition(globalDebt, deltaSurplus);\n        emit UpdateAccumulatedRate(\n            collateralType,\n            surplusDst,\n            rateMultiplier,\n            coinBalance[surplusDst],\n            globalDebt\n        );\n    }\n}\n",
  "sourcePath": "/Users/dhruv/Documents/tao/geb/B-RAI_contracts/contracts/SAFEEngine.sol",
  "compiler": {
    "name": "solc",
    "version": "0.6.7+commit.b8d736ae.Emscripten.clang"
  },
  "schemaVersion": "3.4.1",
  "updatedAt": "2021-07-20T23:47:47.839Z",
  "networkType": "ethereum",
  "devdoc": {
    "methods": {
      "addAuthorization(address)": {
        "params": {
          "account": "Account to add auth to"
        }
      },
      "approveSAFEModification(address)": {
        "params": {
          "account": "Account to give SAFE permissions to"
        }
      },
      "confiscateSAFECollateralAndDebt(bytes32,address,address,address,int256,int256)": {
        "params": {
          "collateralCounterparty": "Who we take/give collateral to",
          "collateralType": "Collateral type the SAFE has locked inside",
          "debtCounterparty": "Who we take/give debt to",
          "deltaCollateral": "Amount of collateral taken/added into the SAFE (wad)",
          "deltaDebt": "Amount of debt taken/added into the SAFE (wad)",
          "safe": "Target SAFE"
        }
      },
      "createUnbackedDebt(address,address,uint256)": {
        "params": {
          "coinDestination": "Usually CoinSavingsAccount that passes the new coins to depositors",
          "debtDestination": "Usually AccountingEngine that can settle uncovered debt with surplus",
          "rad": "Amount of debt to create"
        }
      },
      "denySAFEModification(address)": {
        "params": {
          "account": "Account that is denied SAFE permissions"
        }
      },
      "initializeCollateralType(bytes32)": {
        "params": {
          "collateralType": "Collateral type name (e.g ETH-A, TBTC-B)"
        }
      },
      "modifyCollateralBalance(bytes32,address,int256)": {
        "params": {
          "account": "Account that gets credited/debited",
          "collateralType": "Collateral type to join/exit",
          "wad": "Amount of collateral"
        }
      },
      "modifyParameters(bytes32,bytes32,uint256)": {
        "params": {
          "collateralType": "Collateral type we modify params for",
          "data": "New value for the parameter",
          "parameter": "The name of the parameter modified"
        }
      },
      "modifyParameters(bytes32,uint256)": {
        "params": {
          "data": "New value for the parameter",
          "parameter": "The name of the parameter modified"
        }
      },
      "modifySAFECollateralization(bytes32,address,address,address,int256,int256)": {
        "params": {
          "collateralSource": "Account we take collateral from/put collateral into",
          "collateralType": "Type of collateral to withdraw/deposit in and from the SAFE",
          "debtDestination": "Account from which we credit/debit coins and debt",
          "deltaCollateral": "Amount of collateral added/extract from the SAFE (wad)",
          "deltaDebt": "Amount of debt to generate/repay (wad)",
          "safe": "Target SAFE"
        }
      },
      "removeAuthorization(address)": {
        "params": {
          "account": "Account to remove auth from"
        }
      },
      "settleDebt(uint256)": {
        "params": {
          "rad": "Amount of debt & coins to destroy"
        }
      },
      "transferCollateral(bytes32,address,address,uint256)": {
        "params": {
          "collateralType": "Collateral type transferred",
          "dst": "Collateral destination",
          "src": "Collateral source",
          "wad": "Amount of collateral transferred"
        }
      },
      "transferInternalCoins(address,address,uint256)": {
        "params": {
          "dst": "Coins destination",
          "rad": "Amount of coins transferred",
          "src": "Coins source"
        }
      },
      "transferSAFECollateralAndDebt(bytes32,address,address,int256,int256)": {
        "params": {
          "collateralType": "Collateral type transferred between SAFEs",
          "deltaCollateral": "Amount of collateral to take/add into src and give/take from dst (wad)",
          "deltaDebt": "Amount of debt to take/add into src and give/take from dst (wad)",
          "dst": "Destination SAFE",
          "src": "Source SAFE"
        }
      },
      "updateAccumulatedRate(bytes32,address,int256)": {
        "params": {
          "collateralType": "Collateral type we accrue interest for",
          "rateMultiplier": "Multiplier applied to the debtAmount in order to calculate the surplus [ray]",
          "surplusDst": "Destination for the newly created surplus"
        }
      }
    }
  },
  "userdoc": {
    "methods": {
      "addAuthorization(address)": {
        "notice": "Add auth to an account"
      },
      "approveSAFEModification(address)": {
        "notice": "Allow an address to modify your SAFE"
      },
      "canModifySAFE(address,address)": {
        "notice": "Checks whether msg.sender has the right to modify a SAFE*"
      },
      "confiscateSAFECollateralAndDebt(bytes32,address,address,address,int256,int256)": {
        "notice": "Normally used by the LiquidationEngine in order to confiscate collateral and debt from a SAFE and give them to someone else"
      },
      "createUnbackedDebt(address,address,uint256)": {
        "notice": "Usually called by CoinSavingsAccount in order to create unbacked debt"
      },
      "denySAFEModification(address)": {
        "notice": "Deny an address the rights to modify your SAFE"
      },
      "disableContract()": {
        "notice": "Disable this contract (normally called by GlobalSettlement)"
      },
      "initializeCollateralType(bytes32)": {
        "notice": "Creates a brand new collateral type"
      },
      "modifyCollateralBalance(bytes32,address,int256)": {
        "notice": "Join/exit collateral into and and out of the system"
      },
      "modifyParameters(bytes32,bytes32,uint256)": {
        "notice": "Modify collateral specific params"
      },
      "modifyParameters(bytes32,uint256)": {
        "notice": "Modify general uint256 params"
      },
      "modifySAFECollateralization(bytes32,address,address,address,int256,int256)": {
        "notice": "Add/remove collateral or put back/generate more debt in a SAFE"
      },
      "removeAuthorization(address)": {
        "notice": "Remove auth from an account"
      },
      "settleDebt(uint256)": {
        "notice": "Nullify an amount of coins with an equal amount of debt"
      },
      "transferCollateral(bytes32,address,address,uint256)": {
        "notice": "Transfer collateral between accounts"
      },
      "transferInternalCoins(address,address,uint256)": {
        "notice": "Transfer internal coins (does not affect external balances from Coin.sol)"
      },
      "transferSAFECollateralAndDebt(bytes32,address,address,int256,int256)": {
        "notice": "Transfer collateral and/or debt between SAFEs"
      },
      "updateAccumulatedRate(bytes32,address,int256)": {
        "notice": "Usually called by TaxCollector in order to accrue interest on a specific collateral type"
      }
    }
  }
}